{"abi":[{"type":"constructor","inputs":[{"name":"_squadManagerAddress","type":"address","internalType":"address"}],"stateMutability":"nonpayable"},{"type":"function","name":"approve","inputs":[{"name":"to","type":"address","internalType":"address"},{"name":"tokenId","type":"uint256","internalType":"uint256"}],"outputs":[],"stateMutability":"nonpayable"},{"type":"function","name":"badgeDescriptions","inputs":[{"name":"","type":"uint256","internalType":"uint256"}],"outputs":[{"name":"","type":"string","internalType":"string"}],"stateMutability":"view"},{"type":"function","name":"badgeDetails","inputs":[{"name":"","type":"uint256","internalType":"uint256"}],"outputs":[{"name":"badgeType","type":"uint8","internalType":"enum SquadBadges.BadgeType"},{"name":"mintedAt","type":"uint256","internalType":"uint256"},{"name":"metadataURI","type":"string","internalType":"string"}],"stateMutability":"view"},{"type":"function","name":"badgeNames","inputs":[{"name":"","type":"uint256","internalType":"uint256"}],"outputs":[{"name":"","type":"string","internalType":"string"}],"stateMutability":"view"},{"type":"function","name":"balanceOf","inputs":[{"name":"owner","type":"address","internalType":"address"}],"outputs":[{"name":"","type":"uint256","internalType":"uint256"}],"stateMutability":"view"},{"type":"function","name":"batchMintBadges","inputs":[{"name":"user","type":"address","internalType":"address"},{"name":"badgeTypes","type":"uint8[]","internalType":"enum SquadBadges.BadgeType[]"}],"outputs":[],"stateMutability":"nonpayable"},{"type":"function","name":"getApproved","inputs":[{"name":"tokenId","type":"uint256","internalType":"uint256"}],"outputs":[{"name":"","type":"address","internalType":"address"}],"stateMutability":"view"},{"type":"function","name":"getBadgeCount","inputs":[{"name":"user","type":"address","internalType":"address"}],"outputs":[{"name":"","type":"uint256","internalType":"uint256"}],"stateMutability":"view"},{"type":"function","name":"getBadgeDetails","inputs":[{"name":"tokenId","type":"uint256","internalType":"uint256"}],"outputs":[{"name":"","type":"tuple","internalType":"struct SquadBadges.Badge","components":[{"name":"badgeType","type":"uint8","internalType":"enum SquadBadges.BadgeType"},{"name":"mintedAt","type":"uint256","internalType":"uint256"},{"name":"metadataURI","type":"string","internalType":"string"}]}],"stateMutability":"view"},{"type":"function","name":"getUserBadges","inputs":[{"name":"user","type":"address","internalType":"address"}],"outputs":[{"name":"","type":"uint256[]","internalType":"uint256[]"}],"stateMutability":"view"},{"type":"function","name":"hasBadge","inputs":[{"name":"user","type":"address","internalType":"address"},{"name":"badgeType","type":"uint8","internalType":"enum SquadBadges.BadgeType"}],"outputs":[{"name":"","type":"bool","internalType":"bool"}],"stateMutability":"view"},{"type":"function","name":"isApprovedForAll","inputs":[{"name":"owner","type":"address","internalType":"address"},{"name":"operator","type":"address","internalType":"address"}],"outputs":[{"name":"","type":"bool","internalType":"bool"}],"stateMutability":"view"},{"type":"function","name":"mintBadge","inputs":[{"name":"user","type":"address","internalType":"address"},{"name":"badgeType","type":"uint8","internalType":"enum SquadBadges.BadgeType"}],"outputs":[{"name":"","type":"uint256","internalType":"uint256"}],"stateMutability":"nonpayable"},{"type":"function","name":"name","inputs":[],"outputs":[{"name":"","type":"string","internalType":"string"}],"stateMutability":"view"},{"type":"function","name":"owner","inputs":[],"outputs":[{"name":"","type":"address","internalType":"address"}],"stateMutability":"view"},{"type":"function","name":"ownerOf","inputs":[{"name":"tokenId","type":"uint256","internalType":"uint256"}],"outputs":[{"name":"","type":"address","internalType":"address"}],"stateMutability":"view"},{"type":"function","name":"renounceOwnership","inputs":[],"outputs":[],"stateMutability":"nonpayable"},{"type":"function","name":"safeTransferFrom","inputs":[{"name":"from","type":"address","internalType":"address"},{"name":"to","type":"address","internalType":"address"},{"name":"tokenId","type":"uint256","internalType":"uint256"}],"outputs":[],"stateMutability":"nonpayable"},{"type":"function","name":"safeTransferFrom","inputs":[{"name":"from","type":"address","internalType":"address"},{"name":"to","type":"address","internalType":"address"},{"name":"tokenId","type":"uint256","internalType":"uint256"},{"name":"data","type":"bytes","internalType":"bytes"}],"outputs":[],"stateMutability":"nonpayable"},{"type":"function","name":"setApprovalForAll","inputs":[{"name":"operator","type":"address","internalType":"address"},{"name":"approved","type":"bool","internalType":"bool"}],"outputs":[],"stateMutability":"nonpayable"},{"type":"function","name":"squadManagerAddress","inputs":[],"outputs":[{"name":"","type":"address","internalType":"address"}],"stateMutability":"view"},{"type":"function","name":"supportsInterface","inputs":[{"name":"interfaceId","type":"bytes4","internalType":"bytes4"}],"outputs":[{"name":"","type":"bool","internalType":"bool"}],"stateMutability":"view"},{"type":"function","name":"symbol","inputs":[],"outputs":[{"name":"","type":"string","internalType":"string"}],"stateMutability":"view"},{"type":"function","name":"tokenURI","inputs":[{"name":"tokenId","type":"uint256","internalType":"uint256"}],"outputs":[{"name":"","type":"string","internalType":"string"}],"stateMutability":"view"},{"type":"function","name":"totalSupply","inputs":[],"outputs":[{"name":"","type":"uint256","internalType":"uint256"}],"stateMutability":"view"},{"type":"function","name":"transferFrom","inputs":[{"name":"from","type":"address","internalType":"address"},{"name":"to","type":"address","internalType":"address"},{"name":"tokenId","type":"uint256","internalType":"uint256"}],"outputs":[],"stateMutability":"nonpayable"},{"type":"function","name":"transferOwnership","inputs":[{"name":"newOwner","type":"address","internalType":"address"}],"outputs":[],"stateMutability":"nonpayable"},{"type":"function","name":"updateBadgeMetadata","inputs":[{"name":"tokenId","type":"uint256","internalType":"uint256"},{"name":"metadataURI","type":"string","internalType":"string"}],"outputs":[],"stateMutability":"nonpayable"},{"type":"function","name":"updateSquadManager","inputs":[{"name":"_newSquadManagerAddress","type":"address","internalType":"address"}],"outputs":[],"stateMutability":"nonpayable"},{"type":"function","name":"userBadges","inputs":[{"name":"","type":"address","internalType":"address"},{"name":"","type":"uint256","internalType":"uint256"}],"outputs":[{"name":"","type":"uint256","internalType":"uint256"}],"stateMutability":"view"},{"type":"event","name":"Approval","inputs":[{"name":"owner","type":"address","indexed":true,"internalType":"address"},{"name":"approved","type":"address","indexed":true,"internalType":"address"},{"name":"tokenId","type":"uint256","indexed":true,"internalType":"uint256"}],"anonymous":false},{"type":"event","name":"ApprovalForAll","inputs":[{"name":"owner","type":"address","indexed":true,"internalType":"address"},{"name":"operator","type":"address","indexed":true,"internalType":"address"},{"name":"approved","type":"bool","indexed":false,"internalType":"bool"}],"anonymous":false},{"type":"event","name":"BadgeMetadataUpdated","inputs":[{"name":"tokenId","type":"uint256","indexed":true,"internalType":"uint256"},{"name":"metadataURI","type":"string","indexed":false,"internalType":"string"}],"anonymous":false},{"type":"event","name":"BadgeMinted","inputs":[{"name":"user","type":"address","indexed":true,"internalType":"address"},{"name":"badgeType","type":"uint8","indexed":false,"internalType":"enum SquadBadges.BadgeType"},{"name":"tokenId","type":"uint256","indexed":false,"internalType":"uint256"}],"anonymous":false},{"type":"event","name":"OwnershipTransferred","inputs":[{"name":"previousOwner","type":"address","indexed":true,"internalType":"address"},{"name":"newOwner","type":"address","indexed":true,"internalType":"address"}],"anonymous":false},{"type":"event","name":"SquadManagerUpdated","inputs":[{"name":"oldManager","type":"address","indexed":true,"internalType":"address"},{"name":"newManager","type":"address","indexed":true,"internalType":"address"}],"anonymous":false},{"type":"event","name":"Transfer","inputs":[{"name":"from","type":"address","indexed":true,"internalType":"address"},{"name":"to","type":"address","indexed":true,"internalType":"address"},{"name":"tokenId","type":"uint256","indexed":true,"internalType":"uint256"}],"anonymous":false},{"type":"error","name":"ERC721IncorrectOwner","inputs":[{"name":"sender","type":"address","internalType":"address"},{"name":"tokenId","type":"uint256","internalType":"uint256"},{"name":"owner","type":"address","internalType":"address"}]},{"type":"error","name":"ERC721InsufficientApproval","inputs":[{"name":"operator","type":"address","internalType":"address"},{"name":"tokenId","type":"uint256","internalType":"uint256"}]},{"type":"error","name":"ERC721InvalidApprover","inputs":[{"name":"approver","type":"address","internalType":"address"}]},{"type":"error","name":"ERC721InvalidOperator","inputs":[{"name":"operator","type":"address","internalType":"address"}]},{"type":"error","name":"ERC721InvalidOwner","inputs":[{"name":"owner","type":"address","internalType":"address"}]},{"type":"error","name":"ERC721InvalidReceiver","inputs":[{"name":"receiver","type":"address","internalType":"address"}]},{"type":"error","name":"ERC721InvalidSender","inputs":[{"name":"sender","type":"address","internalType":"address"}]},{"type":"error","name":"ERC721NonexistentToken","inputs":[{"name":"tokenId","type":"uint256","internalType":"uint256"}]},{"type":"error","name":"OwnableInvalidOwner","inputs":[{"name":"owner","type":"address","internalType":"address"}]},{"type":"error","name":"OwnableUnauthorizedAccount","inputs":[{"name":"account","type":"address","internalType":"address"}]}],"bytecode":{"object":"0x60806040526040518060c001604052806040518060400160405280601081526020017f4669727374205375626d697373696f6e0000000000000000000000000000000081525081526020016040518060400160405280600e81526020017f3130205375626d697373696f6e7300000000000000000000000000000000000081525081526020016040518060400160405280600e81526020017f3530205375626d697373696f6e7300000000000000000000000000000000000081525081526020016040518060400160405280600f81526020017f313030205375626d697373696f6e73000000000000000000000000000000000081525081526020016040518060400160405280600d81526020017f5665726966696572204865726f0000000000000000000000000000000000000081525081526020016040518060400160405280600e81526020017f5371756164204368616d70696f6e000000000000000000000000000000000000815250815250600b90600661017f9291906105b5565b506040518060c001604052806040518060400160405280601e81526020017f5375626d697474656420796f7572206669727374206368616c6c656e6765000081525081526020016040518060400160405280601381526020017f4d616465203130207375626d697373696f6e730000000000000000000000000081525081526020016040518060400160405280601381526020017f4d616465203530207375626d697373696f6e730000000000000000000000000081525081526020016040518060400160405280601481526020017f4d61646520313030207375626d697373696f6e7300000000000000000000000081525081526020016040518060400160405280601681526020017f56657269666965642035207375626d697373696f6e730000000000000000000081525081526020016040518060400160405280601081526020017f53636f72656420323020706f696e747300000000000000000000000000000000815250815250600c9060066102fb9291906105b5565b50348015610307575f5ffd5b5060405161455b38038061455b833981810160405281019061032991906106e5565b336040518060400160405280600b81526020017f53717561644261646765730000000000000000000000000000000000000000008152506040518060400160405280600481526020017f5342444700000000000000000000000000000000000000000000000000000000815250815f90816103a4919061094d565b5080600190816103b4919061094d565b5050505f73ffffffffffffffffffffffffffffffffffffffff168173ffffffffffffffffffffffffffffffffffffffff1603610427575f6040517f1e4fbdf700000000000000000000000000000000000000000000000000000000815260040161041e9190610a2b565b60405180910390fd5b610436816104f260201b60201c565b505f73ffffffffffffffffffffffffffffffffffffffff168173ffffffffffffffffffffffffffffffffffffffff16036104a5576040517f08c379a000000000000000000000000000000000000000000000000000000000815260040161049c90610a9e565b60405180910390fd5b8060085f6101000a81548173ffffffffffffffffffffffffffffffffffffffff021916908373ffffffffffffffffffffffffffffffffffffffff1602179055505f60078190555050610abc565b5f60065f9054906101000a900473ffffffffffffffffffffffffffffffffffffffff1690508160065f6101000a81548173ffffffffffffffffffffffffffffffffffffffff021916908373ffffffffffffffffffffffffffffffffffffffff1602179055508173ffffffffffffffffffffffffffffffffffffffff168173ffffffffffffffffffffffffffffffffffffffff167f8be0079c531659141344cd1fd0a4f28419497f9722a3daafe3b4186f6b6457e060405160405180910390a35050565b828054828255905f5260205f209081019282156105fb579160200282015b828111156105fa5782518290816105ea919061094d565b50916020019190600101906105d3565b5b509050610608919061060c565b5090565b5b8082111561062b575f8181610622919061062f565b5060010161060d565b5090565b50805461063b90610774565b5f825580601f1061064c5750610669565b601f0160209004905f5260205f2090810190610668919061066c565b5b50565b5b80821115610683575f815f90555060010161066d565b5090565b5f5ffd5b5f73ffffffffffffffffffffffffffffffffffffffff82169050919050565b5f6106b48261068b565b9050919050565b6106c4816106aa565b81146106ce575f5ffd5b50565b5f815190506106df816106bb565b92915050565b5f602082840312156106fa576106f9610687565b5b5f610707848285016106d1565b91505092915050565b5f81519050919050565b7f4e487b71000000000000000000000000000000000000000000000000000000005f52604160045260245ffd5b7f4e487b71000000000000000000000000000000000000000000000000000000005f52602260045260245ffd5b5f600282049050600182168061078b57607f821691505b60208210810361079e5761079d610747565b5b50919050565b5f819050815f5260205f209050919050565b5f6020601f8301049050919050565b5f82821b905092915050565b5f600883026108007fffffffffffffffffffffffffffffffffffffffffffffffffffffffffffffffff826107c5565b61080a86836107c5565b95508019841693508086168417925050509392505050565b5f819050919050565b5f819050919050565b5f61084e61084961084484610822565b61082b565b610822565b9050919050565b5f819050919050565b61086783610834565b61087b61087382610855565b8484546107d1565b825550505050565b5f5f905090565b610892610883565b61089d81848461085e565b505050565b5b818110156108c0576108b55f8261088a565b6001810190506108a3565b5050565b601f821115610905576108d6816107a4565b6108df846107b6565b810160208510156108ee578190505b6109026108fa856107b6565b8301826108a2565b50505b505050565b5f82821c905092915050565b5f6109255f198460080261090a565b1980831691505092915050565b5f61093d8383610916565b9150826002028217905092915050565b61095682610710565b67ffffffffffffffff81111561096f5761096e61071a565b5b6109798254610774565b6109848282856108c4565b5f60209050601f8311600181146109b5575f84156109a3578287015190505b6109ad8582610932565b865550610a14565b601f1984166109c3866107a4565b5f5b828110156109ea578489015182556001820191506020850194506020810190506109c5565b86831015610a075784890151610a03601f891682610916565b8355505b6001600288020188555050505b505050505050565b610a25816106aa565b82525050565b5f602082019050610a3e5f830184610a1c565b92915050565b5f82825260208201905092915050565b7f496e76616c69642053717561644d616e616765722061646472657373000000005f82015250565b5f610a88601c83610a44565b9150610a9382610a54565b602082019050919050565b5f6020820190508181035f830152610ab581610a7c565b9050919050565b613a9280610ac95f395ff3fe608060405234801561000f575f5ffd5b50600436106101d8575f3560e01c806370a0823111610102578063b88d4fde116100a0578063e985e9c51161006f578063e985e9c5146105b0578063ec7fee26146105e0578063f104c7e1146105fe578063f2fde38b1461062e576101d8565b8063b88d4fde14610504578063c87b56dd14610520578063d9983b4914610550578063df91cc2314610580576101d8565b80638da5cb5b116100dc5780638da5cb5b1461047c57806395d89b411461049a578063a22cb465146104b8578063aa131a69146104d4576101d8565b806370a0823114610426578063715018a6146104565780637e67aa7314610460576101d8565b80632950c4bd1161017a57806342842e0e1161014957806342842e0e1461038c57806347461b40146103a85780636352211e146103c45780636d1fa7b0146103f4576101d8565b80632950c4bd146102e057806337c245fe146103105780633af0c688146103405780633b8609e814610370576101d8565b8063095ea7b3116101b6578063095ea7b31461025a5780630fb91b881461027657806318160ddd146102a657806323b872dd146102c4576101d8565b806301ffc9a7146101dc57806306fdde031461020c578063081812fc1461022a575b5f5ffd5b6101f660048036038101906101f19190612715565b61064a565b604051610203919061275a565b60405180910390f35b61021461072b565b60405161022191906127e3565b60405180910390f35b610244600480360381019061023f9190612836565b6107ba565b60405161025191906128a0565b60405180910390f35b610274600480360381019061026f91906128e3565b6107d5565b005b610290600480360381019061028b9190612921565b6107eb565b60405161029d919061295b565b60405180910390f35b6102ae610834565b6040516102bb919061295b565b60405180910390f35b6102de60048036038101906102d99190612974565b61083d565b005b6102fa60048036038101906102f59190612836565b61093c565b6040516103079190612adb565b60405180910390f35b61032a60048036038101906103259190612921565b610ab0565b6040516103379190612ba3565b60405180910390f35b61035a60048036038101906103559190612be6565b610b43565b604051610367919061275a565b60405180910390f35b61038a60048036038101906103859190612c85565b610c67565b005b6103a660048036038101906103a19190612974565b610edc565b005b6103c260048036038101906103bd9190612d37565b610efb565b005b6103de60048036038101906103d99190612836565b610fdc565b6040516103eb91906128a0565b60405180910390f35b61040e60048036038101906104099190612836565b610fed565b60405161041d93929190612da3565b60405180910390f35b610440600480360381019061043b9190612921565b6110a5565b60405161044d919061295b565b60405180910390f35b61045e61115b565b005b61047a60048036038101906104759190612921565b61116e565b005b6104846112a7565b60405161049191906128a0565b60405180910390f35b6104a26112cf565b6040516104af91906127e3565b60405180910390f35b6104d260048036038101906104cd9190612e09565b61135f565b005b6104ee60048036038101906104e99190612be6565b611375565b6040516104fb919061295b565b60405180910390f35b61051e60048036038101906105199190612f6f565b611583565b005b61053a60048036038101906105359190612836565b6115a8565b60405161054791906127e3565b60405180910390f35b61056a60048036038101906105659190612836565b6117b7565b60405161057791906127e3565b60405180910390f35b61059a600480360381019061059591906128e3565b61185d565b6040516105a7919061295b565b60405180910390f35b6105ca60048036038101906105c59190612fef565b611888565b6040516105d7919061275a565b60405180910390f35b6105e8611916565b6040516105f591906128a0565b60405180910390f35b61061860048036038101906106139190612836565b61193b565b60405161062591906127e3565b60405180910390f35b61064860048036038101906106439190612921565b6119e1565b005b5f7f80ac58cd000000000000000000000000000000000000000000000000000000007bffffffffffffffffffffffffffffffffffffffffffffffffffffffff1916827bffffffffffffffffffffffffffffffffffffffffffffffffffffffff1916148061071457507f5b5e139f000000000000000000000000000000000000000000000000000000007bffffffffffffffffffffffffffffffffffffffffffffffffffffffff1916827bffffffffffffffffffffffffffffffffffffffffffffffffffffffff1916145b80610724575061072382611a65565b5b9050919050565b60605f80546107399061305a565b80601f01602080910402602001604051908101604052809291908181526020018280546107659061305a565b80156107b05780601f10610787576101008083540402835291602001916107b0565b820191905f5260205f20905b81548152906001019060200180831161079357829003601f168201915b5050505050905090565b5f6107c482611ace565b506107ce82611b54565b9050919050565b6107e782826107e2611b8d565b611b94565b5050565b5f60095f8373ffffffffffffffffffffffffffffffffffffffff1673ffffffffffffffffffffffffffffffffffffffff1681526020019081526020015f20805490509050919050565b5f600754905090565b5f73ffffffffffffffffffffffffffffffffffffffff168273ffffffffffffffffffffffffffffffffffffffff16036108ad575f6040517f64a0ae920000000000000000000000000000000000000000000000000000000081526004016108a491906128a0565b60405180910390fd5b5f6108c083836108bb611b8d565b611ba6565b90508373ffffffffffffffffffffffffffffffffffffffff168173ffffffffffffffffffffffffffffffffffffffff1614610936578382826040517f64283d7b00000000000000000000000000000000000000000000000000000000815260040161092d9392919061308a565b60405180910390fd5b50505050565b61094461267e565b5f73ffffffffffffffffffffffffffffffffffffffff1661096483611db1565b73ffffffffffffffffffffffffffffffffffffffff16036109ba576040517f08c379a00000000000000000000000000000000000000000000000000000000081526004016109b190613109565b60405180910390fd5b600a5f8381526020019081526020015f206040518060600160405290815f82015f9054906101000a900460ff1660058111156109f9576109f86129c4565b5b6005811115610a0b57610a0a6129c4565b5b815260200160018201548152602001600282018054610a299061305a565b80601f0160208091040260200160405190810160405280929190818152602001828054610a559061305a565b8015610aa05780601f10610a7757610100808354040283529160200191610aa0565b820191905f5260205f20905b815481529060010190602001808311610a8357829003601f168201915b5050505050815250509050919050565b606060095f8373ffffffffffffffffffffffffffffffffffffffff1673ffffffffffffffffffffffffffffffffffffffff1681526020019081526020015f20805480602002602001604051908101604052809291908181526020018280548015610b3757602002820191905f5260205f20905b815481526020019060010190808311610b23575b50505050509050919050565b5f5f60095f8573ffffffffffffffffffffffffffffffffffffffff1673ffffffffffffffffffffffffffffffffffffffff1681526020019081526020015f20805480602002602001604051908101604052809291908181526020018280548015610bca57602002820191905f5260205f20905b815481526020019060010190808311610bb6575b505050505090505f5f90505b8151811015610c5b57836005811115610bf257610bf16129c4565b5b600a5f848481518110610c0857610c07613127565b5b602002602001015181526020019081526020015f205f015f9054906101000a900460ff166005811115610c3e57610c3d6129c4565b5b03610c4e57600192505050610c61565b8080600101915050610bd6565b505f9150505b92915050565b60085f9054906101000a900473ffffffffffffffffffffffffffffffffffffffff1673ffffffffffffffffffffffffffffffffffffffff163373ffffffffffffffffffffffffffffffffffffffff1614610cf6576040517f08c379a0000000000000000000000000000000000000000000000000000000008152600401610ced9061319e565b60405180910390fd5b5f5f90505b82829050811015610ed65760075f815480929190610d18906131e9565b91905055505f6007549050610d2d8582611dea565b6040518060600160405280858585818110610d4b57610d4a613127565b5b9050602002016020810190610d609190613230565b6005811115610d7257610d716129c4565b5b815260200142815260200160405180602001604052805f815250815250600a5f8381526020019081526020015f205f820151815f015f6101000a81548160ff02191690836005811115610dc857610dc76129c4565b5b0217905550602082015181600101556040820151816002019081610dec91906133fb565b5090505060095f8673ffffffffffffffffffffffffffffffffffffffff1673ffffffffffffffffffffffffffffffffffffffff1681526020019081526020015f2081908060018154018082558091505060019003905f5260205f20015f90919091909150558473ffffffffffffffffffffffffffffffffffffffff167f0dbdb7726a1704da165dee8b96cec65a9919e80ca5b8403954b77af3eaa7b26c858585818110610e9c57610e9b613127565b5b9050602002016020810190610eb19190613230565b83604051610ec09291906134ca565b60405180910390a2508080600101915050610cfb565b50505050565b610ef683838360405180602001604052805f815250611583565b505050565b610f03611edd565b5f73ffffffffffffffffffffffffffffffffffffffff16610f2384611db1565b73ffffffffffffffffffffffffffffffffffffffff1603610f79576040517f08c379a0000000000000000000000000000000000000000000000000000000008152600401610f7090613109565b60405180910390fd5b8181600a5f8681526020019081526020015f206002019182610f9c9291906134fb565b50827fb810609e93b7325976c078b96d9c92d3160d0d165073b8c9a8a6a4d257fd04778383604051610fcf9291906135f4565b60405180910390a2505050565b5f610fe682611ace565b9050919050565b600a602052805f5260405f205f91509050805f015f9054906101000a900460ff16908060010154908060020180546110249061305a565b80601f01602080910402602001604051908101604052809291908181526020018280546110509061305a565b801561109b5780601f106110725761010080835404028352916020019161109b565b820191905f5260205f20905b81548152906001019060200180831161107e57829003601f168201915b5050505050905083565b5f5f73ffffffffffffffffffffffffffffffffffffffff168273ffffffffffffffffffffffffffffffffffffffff1603611116575f6040517f89c62b6400000000000000000000000000000000000000000000000000000000815260040161110d91906128a0565b60405180910390fd5b60035f8373ffffffffffffffffffffffffffffffffffffffff1673ffffffffffffffffffffffffffffffffffffffff1681526020019081526020015f20549050919050565b611163611edd565b61116c5f611f64565b565b611176611edd565b5f73ffffffffffffffffffffffffffffffffffffffff168173ffffffffffffffffffffffffffffffffffffffff16036111e4576040517f08c379a00000000000000000000000000000000000000000000000000000000081526004016111db90613660565b60405180910390fd5b5f60085f9054906101000a900473ffffffffffffffffffffffffffffffffffffffff1690508160085f6101000a81548173ffffffffffffffffffffffffffffffffffffffff021916908373ffffffffffffffffffffffffffffffffffffffff1602179055508173ffffffffffffffffffffffffffffffffffffffff168173ffffffffffffffffffffffffffffffffffffffff167f568661ae783870f7539560507e9027e7bd53319b803d419b24ff70e73d88b7dd60405160405180910390a35050565b5f60065f9054906101000a900473ffffffffffffffffffffffffffffffffffffffff16905090565b6060600180546112de9061305a565b80601f016020809104026020016040519081016040528092919081815260200182805461130a9061305a565b80156113555780601f1061132c57610100808354040283529160200191611355565b820191905f5260205f20905b81548152906001019060200180831161133857829003601f168201915b5050505050905090565b61137161136a611b8d565b8383612027565b5050565b5f60085f9054906101000a900473ffffffffffffffffffffffffffffffffffffffff1673ffffffffffffffffffffffffffffffffffffffff163373ffffffffffffffffffffffffffffffffffffffff1614611405576040517f08c379a00000000000000000000000000000000000000000000000000000000081526004016113fc9061319e565b60405180910390fd5b60075f815480929190611417906131e9565b91905055505f600754905061142c8482611dea565b604051806060016040528084600581111561144a576114496129c4565b5b815260200142815260200160405180602001604052805f815250815250600a5f8381526020019081526020015f205f820151815f015f6101000a81548160ff021916908360058111156114a05761149f6129c4565b5b02179055506020820151816001015560408201518160020190816114c491906133fb565b5090505060095f8573ffffffffffffffffffffffffffffffffffffffff1673ffffffffffffffffffffffffffffffffffffffff1681526020019081526020015f2081908060018154018082558091505060019003905f5260205f20015f90919091909150558373ffffffffffffffffffffffffffffffffffffffff167f0dbdb7726a1704da165dee8b96cec65a9919e80ca5b8403954b77af3eaa7b26c84836040516115719291906134ca565b60405180910390a28091505092915050565b61158e84848461083d565b6115a2611599611b8d565b85858585612190565b50505050565b60605f73ffffffffffffffffffffffffffffffffffffffff166115ca83611db1565b73ffffffffffffffffffffffffffffffffffffffff1603611620576040517f08c379a000000000000000000000000000000000000000000000000000000000815260040161161790613109565b60405180910390fd5b5f600a5f8481526020019081526020015f206040518060600160405290815f82015f9054906101000a900460ff1660058111156116605761165f6129c4565b5b6005811115611672576116716129c4565b5b8152602001600182015481526020016002820180546116909061305a565b80601f01602080910402602001604051908101604052809291908181526020018280546116bc9061305a565b80156117075780601f106116de57610100808354040283529160200191611707565b820191905f5260205f20905b8154815290600101906020018083116116ea57829003601f168201915b50505050508152505090505f816040015151111561172c5780604001519150506117b2565b600b815f01516005811115611744576117436129c4565b5b8154811061175557611754613127565b5b905f5260205f2001600c825f01516005811115611775576117746129c4565b5b8154811061178657611785613127565b5b905f5260205f200160405160200161179f9291906138ea565b6040516020818303038152906040529150505b919050565b600b81815481106117c6575f80fd5b905f5260205f20015f9150905080546117de9061305a565b80601f016020809104026020016040519081016040528092919081815260200182805461180a9061305a565b80156118555780601f1061182c57610100808354040283529160200191611855565b820191905f5260205f20905b81548152906001019060200180831161183857829003601f168201915b505050505081565b6009602052815f5260405f208181548110611876575f80fd5b905f5260205f20015f91509150505481565b5f60055f8473ffffffffffffffffffffffffffffffffffffffff1673ffffffffffffffffffffffffffffffffffffffff1681526020019081526020015f205f8373ffffffffffffffffffffffffffffffffffffffff1673ffffffffffffffffffffffffffffffffffffffff1681526020019081526020015f205f9054906101000a900460ff16905092915050565b60085f9054906101000a900473ffffffffffffffffffffffffffffffffffffffff1681565b600c818154811061194a575f80fd5b905f5260205f20015f9150905080546119629061305a565b80601f016020809104026020016040519081016040528092919081815260200182805461198e9061305a565b80156119d95780601f106119b0576101008083540402835291602001916119d9565b820191905f5260205f20905b8154815290600101906020018083116119bc57829003601f168201915b505050505081565b6119e9611edd565b5f73ffffffffffffffffffffffffffffffffffffffff168173ffffffffffffffffffffffffffffffffffffffff1603611a59575f6040517f1e4fbdf7000000000000000000000000000000000000000000000000000000008152600401611a5091906128a0565b60405180910390fd5b611a6281611f64565b50565b5f7f01ffc9a7000000000000000000000000000000000000000000000000000000007bffffffffffffffffffffffffffffffffffffffffffffffffffffffff1916827bffffffffffffffffffffffffffffffffffffffffffffffffffffffff1916149050919050565b5f5f611ad983611db1565b90505f73ffffffffffffffffffffffffffffffffffffffff168173ffffffffffffffffffffffffffffffffffffffff1603611b4b57826040517f7e273289000000000000000000000000000000000000000000000000000000008152600401611b42919061295b565b60405180910390fd5b80915050919050565b5f60045f8381526020019081526020015f205f9054906101000a900473ffffffffffffffffffffffffffffffffffffffff169050919050565b5f33905090565b611ba1838383600161233c565b505050565b5f5f611bb184611db1565b90505f73ffffffffffffffffffffffffffffffffffffffff168373ffffffffffffffffffffffffffffffffffffffff1614611bf257611bf18184866124fb565b5b5f73ffffffffffffffffffffffffffffffffffffffff168173ffffffffffffffffffffffffffffffffffffffff1614611c7d57611c315f855f5f61233c565b600160035f8373ffffffffffffffffffffffffffffffffffffffff1673ffffffffffffffffffffffffffffffffffffffff1681526020019081526020015f205f82825403925050819055505b5f73ffffffffffffffffffffffffffffffffffffffff168573ffffffffffffffffffffffffffffffffffffffff1614611cfc57600160035f8773ffffffffffffffffffffffffffffffffffffffff1673ffffffffffffffffffffffffffffffffffffffff1681526020019081526020015f205f82825401925050819055505b8460025f8681526020019081526020015f205f6101000a81548173ffffffffffffffffffffffffffffffffffffffff021916908373ffffffffffffffffffffffffffffffffffffffff160217905550838573ffffffffffffffffffffffffffffffffffffffff168273ffffffffffffffffffffffffffffffffffffffff167fddf252ad1be2c89b69c2b068fc378daa952ba7f163c4a11628f55a4df523b3ef60405160405180910390a4809150509392505050565b5f60025f8381526020019081526020015f205f9054906101000a900473ffffffffffffffffffffffffffffffffffffffff169050919050565b5f73ffffffffffffffffffffffffffffffffffffffff168273ffffffffffffffffffffffffffffffffffffffff1603611e5a575f6040517f64a0ae92000000000000000000000000000000000000000000000000000000008152600401611e5191906128a0565b60405180910390fd5b5f611e6683835f611ba6565b90505f73ffffffffffffffffffffffffffffffffffffffff168173ffffffffffffffffffffffffffffffffffffffff1614611ed8575f6040517f73c6ac6e000000000000000000000000000000000000000000000000000000008152600401611ecf91906128a0565b60405180910390fd5b505050565b611ee5611b8d565b73ffffffffffffffffffffffffffffffffffffffff16611f036112a7565b73ffffffffffffffffffffffffffffffffffffffff1614611f6257611f26611b8d565b6040517f118cdaa7000000000000000000000000000000000000000000000000000000008152600401611f5991906128a0565b60405180910390fd5b565b5f60065f9054906101000a900473ffffffffffffffffffffffffffffffffffffffff1690508160065f6101000a81548173ffffffffffffffffffffffffffffffffffffffff021916908373ffffffffffffffffffffffffffffffffffffffff1602179055508173ffffffffffffffffffffffffffffffffffffffff168173ffffffffffffffffffffffffffffffffffffffff167f8be0079c531659141344cd1fd0a4f28419497f9722a3daafe3b4186f6b6457e060405160405180910390a35050565b5f73ffffffffffffffffffffffffffffffffffffffff168273ffffffffffffffffffffffffffffffffffffffff160361209757816040517f5b08ba1800000000000000000000000000000000000000000000000000000000815260040161208e91906128a0565b60405180910390fd5b8060055f8573ffffffffffffffffffffffffffffffffffffffff1673ffffffffffffffffffffffffffffffffffffffff1681526020019081526020015f205f8473ffffffffffffffffffffffffffffffffffffffff1673ffffffffffffffffffffffffffffffffffffffff1681526020019081526020015f205f6101000a81548160ff0219169083151502179055508173ffffffffffffffffffffffffffffffffffffffff168373ffffffffffffffffffffffffffffffffffffffff167f17307eab39ab6107e8899845ad3d59bd9653f200f220920489ca2b5937696c3183604051612183919061275a565b60405180910390a3505050565b5f8373ffffffffffffffffffffffffffffffffffffffff163b1115612335578273ffffffffffffffffffffffffffffffffffffffff1663150b7a02868685856040518563ffffffff1660e01b81526004016121ee94939291906139ac565b6020604051808303815f875af192505050801561222957506040513d601f19601f820116820180604052508101906122269190613a0a565b60015b6122aa573d805f8114612257576040519150601f19603f3d011682016040523d82523d5f602084013e61225c565b606091505b505f8151036122a257836040517f64a0ae9200000000000000000000000000000000000000000000000000000000815260040161229991906128a0565b60405180910390fd5b805160208201fd5b63150b7a0260e01b7bffffffffffffffffffffffffffffffffffffffffffffffffffffffff1916817bffffffffffffffffffffffffffffffffffffffffffffffffffffffff19161461233357836040517f64a0ae9200000000000000000000000000000000000000000000000000000000815260040161232a91906128a0565b60405180910390fd5b505b5050505050565b808061237457505f73ffffffffffffffffffffffffffffffffffffffff168273ffffffffffffffffffffffffffffffffffffffff1614155b156124a6575f61238384611ace565b90505f73ffffffffffffffffffffffffffffffffffffffff168373ffffffffffffffffffffffffffffffffffffffff16141580156123ed57508273ffffffffffffffffffffffffffffffffffffffff168173ffffffffffffffffffffffffffffffffffffffff1614155b801561240057506123fe8184611888565b155b1561244257826040517fa9fbf51f00000000000000000000000000000000000000000000000000000000815260040161243991906128a0565b60405180910390fd5b81156124a457838573ffffffffffffffffffffffffffffffffffffffff168273ffffffffffffffffffffffffffffffffffffffff167f8c5be1e5ebec7d5bd14f71427d1e84f3dd0314c0f7b2291e5b200ac8c7c3b92560405160405180910390a45b505b8360045f8581526020019081526020015f205f6101000a81548173ffffffffffffffffffffffffffffffffffffffff021916908373ffffffffffffffffffffffffffffffffffffffff16021790555050505050565b6125068383836125be565b6125b9575f73ffffffffffffffffffffffffffffffffffffffff168373ffffffffffffffffffffffffffffffffffffffff160361257a57806040517f7e273289000000000000000000000000000000000000000000000000000000008152600401612571919061295b565b60405180910390fd5b81816040517f177e802f0000000000000000000000000000000000000000000000000000000081526004016125b0929190613a35565b60405180910390fd5b505050565b5f5f73ffffffffffffffffffffffffffffffffffffffff168373ffffffffffffffffffffffffffffffffffffffff161415801561267557508273ffffffffffffffffffffffffffffffffffffffff168473ffffffffffffffffffffffffffffffffffffffff16148061263657506126358484611888565b5b8061267457508273ffffffffffffffffffffffffffffffffffffffff1661265c83611b54565b73ffffffffffffffffffffffffffffffffffffffff16145b5b90509392505050565b60405180606001604052805f600581111561269c5761269b6129c4565b5b81526020015f8152602001606081525090565b5f604051905090565b5f5ffd5b5f5ffd5b5f7fffffffff0000000000000000000000000000000000000000000000000000000082169050919050565b6126f4816126c0565b81146126fe575f5ffd5b50565b5f8135905061270f816126eb565b92915050565b5f6020828403121561272a576127296126b8565b5b5f61273784828501612701565b91505092915050565b5f8115159050919050565b61275481612740565b82525050565b5f60208201905061276d5f83018461274b565b92915050565b5f81519050919050565b5f82825260208201905092915050565b8281835e5f83830152505050565b5f601f19601f8301169050919050565b5f6127b582612773565b6127bf818561277d565b93506127cf81856020860161278d565b6127d88161279b565b840191505092915050565b5f6020820190508181035f8301526127fb81846127ab565b905092915050565b5f819050919050565b61281581612803565b811461281f575f5ffd5b50565b5f813590506128308161280c565b92915050565b5f6020828403121561284b5761284a6126b8565b5b5f61285884828501612822565b91505092915050565b5f73ffffffffffffffffffffffffffffffffffffffff82169050919050565b5f61288a82612861565b9050919050565b61289a81612880565b82525050565b5f6020820190506128b35f830184612891565b92915050565b6128c281612880565b81146128cc575f5ffd5b50565b5f813590506128dd816128b9565b92915050565b5f5f604083850312156128f9576128f86126b8565b5b5f612906858286016128cf565b925050602061291785828601612822565b9150509250929050565b5f60208284031215612936576129356126b8565b5b5f612943848285016128cf565b91505092915050565b61295581612803565b82525050565b5f60208201905061296e5f83018461294c565b92915050565b5f5f5f6060848603121561298b5761298a6126b8565b5b5f612998868287016128cf565b93505060206129a9868287016128cf565b92505060406129ba86828701612822565b9150509250925092565b7f4e487b71000000000000000000000000000000000000000000000000000000005f52602160045260245ffd5b60068110612a0257612a016129c4565b5b50565b5f819050612a12826129f1565b919050565b5f612a2182612a05565b9050919050565b612a3181612a17565b82525050565b612a4081612803565b82525050565b5f82825260208201905092915050565b5f612a6082612773565b612a6a8185612a46565b9350612a7a81856020860161278d565b612a838161279b565b840191505092915050565b5f606083015f830151612aa35f860182612a28565b506020830151612ab66020860182612a37565b5060408301518482036040860152612ace8282612a56565b9150508091505092915050565b5f6020820190508181035f830152612af38184612a8e565b905092915050565b5f81519050919050565b5f82825260208201905092915050565b5f819050602082019050919050565b5f612b2f8383612a37565b60208301905092915050565b5f602082019050919050565b5f612b5182612afb565b612b5b8185612b05565b9350612b6683612b15565b805f5b83811015612b96578151612b7d8882612b24565b9750612b8883612b3b565b925050600181019050612b69565b5085935050505092915050565b5f6020820190508181035f830152612bbb8184612b47565b905092915050565b60068110612bcf575f5ffd5b50565b5f81359050612be081612bc3565b92915050565b5f5f60408385031215612bfc57612bfb6126b8565b5b5f612c09858286016128cf565b9250506020612c1a85828601612bd2565b9150509250929050565b5f5ffd5b5f5ffd5b5f5ffd5b5f5f83601f840112612c4557612c44612c24565b5b8235905067ffffffffffffffff811115612c6257612c61612c28565b5b602083019150836020820283011115612c7e57612c7d612c2c565b5b9250929050565b5f5f5f60408486031215612c9c57612c9b6126b8565b5b5f612ca9868287016128cf565b935050602084013567ffffffffffffffff811115612cca57612cc96126bc565b5b612cd686828701612c30565b92509250509250925092565b5f5f83601f840112612cf757612cf6612c24565b5b8235905067ffffffffffffffff811115612d1457612d13612c28565b5b602083019150836001820283011115612d3057612d2f612c2c565b5b9250929050565b5f5f5f60408486031215612d4e57612d4d6126b8565b5b5f612d5b86828701612822565b935050602084013567ffffffffffffffff811115612d7c57612d7b6126bc565b5b612d8886828701612ce2565b92509250509250925092565b612d9d81612a17565b82525050565b5f606082019050612db65f830186612d94565b612dc3602083018561294c565b8181036040830152612dd581846127ab565b9050949350505050565b612de881612740565b8114612df2575f5ffd5b50565b5f81359050612e0381612ddf565b92915050565b5f5f60408385031215612e1f57612e1e6126b8565b5b5f612e2c858286016128cf565b9250506020612e3d85828601612df5565b9150509250929050565b5f5ffd5b7f4e487b71000000000000000000000000000000000000000000000000000000005f52604160045260245ffd5b612e818261279b565b810181811067ffffffffffffffff82111715612ea057612e9f612e4b565b5b80604052505050565b5f612eb26126af565b9050612ebe8282612e78565b919050565b5f67ffffffffffffffff821115612edd57612edc612e4b565b5b612ee68261279b565b9050602081019050919050565b828183375f83830152505050565b5f612f13612f0e84612ec3565b612ea9565b905082815260208101848484011115612f2f57612f2e612e47565b5b612f3a848285612ef3565b509392505050565b5f82601f830112612f5657612f55612c24565b5b8135612f66848260208601612f01565b91505092915050565b5f5f5f5f60808587031215612f8757612f866126b8565b5b5f612f94878288016128cf565b9450506020612fa5878288016128cf565b9350506040612fb687828801612822565b925050606085013567ffffffffffffffff811115612fd757612fd66126bc565b5b612fe387828801612f42565b91505092959194509250565b5f5f60408385031215613005576130046126b8565b5b5f613012858286016128cf565b9250506020613023858286016128cf565b9150509250929050565b7f4e487b71000000000000000000000000000000000000000000000000000000005f52602260045260245ffd5b5f600282049050600182168061307157607f821691505b6020821081036130845761308361302d565b5b50919050565b5f60608201905061309d5f830186612891565b6130aa602083018561294c565b6130b76040830184612891565b949350505050565b7f426164676520646f6573206e6f742065786973740000000000000000000000005f82015250565b5f6130f360148361277d565b91506130fe826130bf565b602082019050919050565b5f6020820190508181035f830152613120816130e7565b9050919050565b7f4e487b71000000000000000000000000000000000000000000000000000000005f52603260045260245ffd5b7f4f6e6c792053717561644d616e616765722063616e206d696e740000000000005f82015250565b5f613188601a8361277d565b915061319382613154565b602082019050919050565b5f6020820190508181035f8301526131b58161317c565b9050919050565b7f4e487b71000000000000000000000000000000000000000000000000000000005f52601160045260245ffd5b5f6131f382612803565b91507fffffffffffffffffffffffffffffffffffffffffffffffffffffffffffffffff8203613225576132246131bc565b5b600182019050919050565b5f60208284031215613245576132446126b8565b5b5f61325284828501612bd2565b91505092915050565b5f819050815f5260205f209050919050565b5f6020601f8301049050919050565b5f82821b905092915050565b5f600883026132b77fffffffffffffffffffffffffffffffffffffffffffffffffffffffffffffffff8261327c565b6132c1868361327c565b95508019841693508086168417925050509392505050565b5f819050919050565b5f6132fc6132f76132f284612803565b6132d9565b612803565b9050919050565b5f819050919050565b613315836132e2565b61332961332182613303565b848454613288565b825550505050565b5f5f905090565b613340613331565b61334b81848461330c565b505050565b5b8181101561336e576133635f82613338565b600181019050613351565b5050565b601f8211156133b3576133848161325b565b61338d8461326d565b8101602085101561339c578190505b6133b06133a88561326d565b830182613350565b50505b505050565b5f82821c905092915050565b5f6133d35f19846008026133b8565b1980831691505092915050565b5f6133eb83836133c4565b9150826002028217905092915050565b61340482612773565b67ffffffffffffffff81111561341d5761341c612e4b565b5b613427825461305a565b613432828285613372565b5f60209050601f831160018114613463575f8415613451578287015190505b61345b85826133e0565b8655506134c2565b601f1984166134718661325b565b5f5b8281101561349857848901518255600182019150602085019450602081019050613473565b868310156134b557848901516134b1601f8916826133c4565b8355505b6001600288020188555050505b505050505050565b5f6040820190506134dd5f830185612d94565b6134ea602083018461294c565b9392505050565b5f82905092915050565b61350583836134f1565b67ffffffffffffffff81111561351e5761351d612e4b565b5b613528825461305a565b613533828285613372565b5f601f831160018114613560575f841561354e578287013590505b61355885826133e0565b8655506135bf565b601f19841661356e8661325b565b5f5b8281101561359557848901358255600182019150602085019450602081019050613570565b868310156135b257848901356135ae601f8916826133c4565b8355505b6001600288020188555050505b50505050505050565b5f6135d3838561277d565b93506135e0838584612ef3565b6135e98361279b565b840190509392505050565b5f6020820190508181035f83015261360d8184866135c8565b90509392505050565b7f496e76616c6964206164647265737300000000000000000000000000000000005f82015250565b5f61364a600f8361277d565b915061365582613616565b602082019050919050565b5f6020820190508181035f8301526136778161363e565b9050919050565b5f81905092915050565b7f646174613a6170706c69636174696f6e2f6a736f6e3b757466382c7b000000005f82015250565b5f6136bc601c8361367e565b91506136c782613688565b601c82019050919050565b7f226e616d65223a220000000000000000000000000000000000000000000000005f82015250565b5f61370660088361367e565b9150613711826136d2565b600882019050919050565b5f81546137288161305a565b613732818661367e565b9450600182165f811461374c576001811461376157613793565b60ff1983168652811515820286019350613793565b61376a8561325b565b5f5b8381101561378b5781548189015260018201915060208101905061376c565b838801955050505b50505092915050565b7f222c0000000000000000000000000000000000000000000000000000000000005f82015250565b5f6137d060028361367e565b91506137db8261379c565b600282019050919050565b7f226465736372697074696f6e223a2200000000000000000000000000000000005f82015250565b5f61381a600f8361367e565b9150613825826137e6565b600f82019050919050565b7f22696d616765223a22697066733a2f2f516d44656661756c744261646765496d5f8201527f6167652200000000000000000000000000000000000000000000000000000000602082015250565b5f61388a60248361367e565b915061389582613830565b602482019050919050565b7f7d000000000000000000000000000000000000000000000000000000000000005f82015250565b5f6138d460018361367e565b91506138df826138a0565b600182019050919050565b5f6138f4826136b0565b91506138ff826136fa565b915061390b828561371c565b9150613916826137c4565b91506139218261380e565b915061392d828461371c565b9150613938826137c4565b91506139438261387e565b915061394e826138c8565b91508190509392505050565b5f81519050919050565b5f82825260208201905092915050565b5f61397e8261395a565b6139888185613964565b935061399881856020860161278d565b6139a18161279b565b840191505092915050565b5f6080820190506139bf5f830187612891565b6139cc6020830186612891565b6139d9604083018561294c565b81810360608301526139eb8184613974565b905095945050505050565b5f81519050613a04816126eb565b92915050565b5f60208284031215613a1f57613a1e6126b8565b5b5f613a2c848285016139f6565b91505092915050565b5f604082019050613a485f830185612891565b613a55602083018461294c565b939250505056fea26469706673582212209b0af01546c08ee6db330391bc8721d4b825175f9f69f0e753d7cbce145acfaf64736f6c634300081e0033","linkReferences":{}},"methodIdentifiers":{"approve(address,uint256)":"095ea7b3","badgeDescriptions(uint256)":"f104c7e1","badgeDetails(uint256)":"6d1fa7b0","badgeNames(uint256)":"d9983b49","balanceOf(address)":"70a08231","batchMintBadges(address,uint8[])":"3b8609e8","getApproved(uint256)":"081812fc","getBadgeCount(address)":"0fb91b88","getBadgeDetails(uint256)":"2950c4bd","getUserBadges(address)":"37c245fe","hasBadge(address,uint8)":"3af0c688","isApprovedForAll(address,address)":"e985e9c5","mintBadge(address,uint8)":"aa131a69","name()":"06fdde03","owner()":"8da5cb5b","ownerOf(uint256)":"6352211e","renounceOwnership()":"715018a6","safeTransferFrom(address,address,uint256)":"42842e0e","safeTransferFrom(address,address,uint256,bytes)":"b88d4fde","setApprovalForAll(address,bool)":"a22cb465","squadManagerAddress()":"ec7fee26","supportsInterface(bytes4)":"01ffc9a7","symbol()":"95d89b41","tokenURI(uint256)":"c87b56dd","totalSupply()":"18160ddd","transferFrom(address,address,uint256)":"23b872dd","transferOwnership(address)":"f2fde38b","updateBadgeMetadata(uint256,string)":"47461b40","updateSquadManager(address)":"7e67aa73","userBadges(address,uint256)":"df91cc23"},"id":35}