{"abi":[{"type":"constructor","inputs":[{"name":"_squadManagerAddress","type":"address","internalType":"address"}],"stateMutability":"nonpayable"},{"type":"function","name":"challenges","inputs":[{"name":"","type":"uint256","internalType":"uint256"}],"outputs":[{"name":"id","type":"uint256","internalType":"uint256"},{"name":"title","type":"string","internalType":"string"},{"name":"description","type":"string","internalType":"string"},{"name":"theme","type":"string","internalType":"string"},{"name":"startTime","type":"uint256","internalType":"uint256"},{"name":"endTime","type":"uint256","internalType":"uint256"},{"name":"bonusPoints","type":"uint256","internalType":"uint256"},{"name":"active","type":"bool","internalType":"bool"},{"name":"participantCount","type":"uint256","internalType":"uint256"}],"stateMutability":"view"},{"type":"function","name":"completeChallenge","inputs":[{"name":"_challengeId","type":"uint256","internalType":"uint256"}],"outputs":[],"stateMutability":"nonpayable"},{"type":"function","name":"createChallenge","inputs":[{"name":"_title","type":"string","internalType":"string"},{"name":"_description","type":"string","internalType":"string"},{"name":"_theme","type":"string","internalType":"string"},{"name":"_durationInDays","type":"uint256","internalType":"uint256"},{"name":"_bonusPoints","type":"uint256","internalType":"uint256"}],"outputs":[],"stateMutability":"nonpayable"},{"type":"function","name":"getActiveChallenge","inputs":[],"outputs":[{"name":"","type":"tuple","internalType":"struct ChallengeManager.Challenge","components":[{"name":"id","type":"uint256","internalType":"uint256"},{"name":"title","type":"string","internalType":"string"},{"name":"description","type":"string","internalType":"string"},{"name":"theme","type":"string","internalType":"string"},{"name":"startTime","type":"uint256","internalType":"uint256"},{"name":"endTime","type":"uint256","internalType":"uint256"},{"name":"bonusPoints","type":"uint256","internalType":"uint256"},{"name":"active","type":"bool","internalType":"bool"},{"name":"participantCount","type":"uint256","internalType":"uint256"}]}],"stateMutability":"view"},{"type":"function","name":"getChallenge","inputs":[{"name":"_challengeId","type":"uint256","internalType":"uint256"}],"outputs":[{"name":"","type":"tuple","internalType":"struct ChallengeManager.Challenge","components":[{"name":"id","type":"uint256","internalType":"uint256"},{"name":"title","type":"string","internalType":"string"},{"name":"description","type":"string","internalType":"string"},{"name":"theme","type":"string","internalType":"string"},{"name":"startTime","type":"uint256","internalType":"uint256"},{"name":"endTime","type":"uint256","internalType":"uint256"},{"name":"bonusPoints","type":"uint256","internalType":"uint256"},{"name":"active","type":"bool","internalType":"bool"},{"name":"participantCount","type":"uint256","internalType":"uint256"}]}],"stateMutability":"view"},{"type":"function","name":"getChallengeCount","inputs":[],"outputs":[{"name":"","type":"uint256","internalType":"uint256"}],"stateMutability":"view"},{"type":"function","name":"getUserChallenges","inputs":[{"name":"_user","type":"address","internalType":"address"}],"outputs":[{"name":"","type":"tuple[]","internalType":"struct ChallengeManager.UserChallenge[]","components":[{"name":"challengeId","type":"uint256","internalType":"uint256"},{"name":"completedAt","type":"uint256","internalType":"uint256"},{"name":"claimed","type":"bool","internalType":"bool"}]}],"stateMutability":"view"},{"type":"function","name":"hasCompleted","inputs":[{"name":"","type":"uint256","internalType":"uint256"},{"name":"","type":"address","internalType":"address"}],"outputs":[{"name":"","type":"bool","internalType":"bool"}],"stateMutability":"view"},{"type":"function","name":"hasUserCompleted","inputs":[{"name":"_challengeId","type":"uint256","internalType":"uint256"},{"name":"_user","type":"address","internalType":"address"}],"outputs":[{"name":"","type":"bool","internalType":"bool"}],"stateMutability":"view"},{"type":"function","name":"owner","inputs":[],"outputs":[{"name":"","type":"address","internalType":"address"}],"stateMutability":"view"},{"type":"function","name":"renounceOwnership","inputs":[],"outputs":[],"stateMutability":"nonpayable"},{"type":"function","name":"squadManagerAddress","inputs":[],"outputs":[{"name":"","type":"address","internalType":"address"}],"stateMutability":"view"},{"type":"function","name":"transferOwnership","inputs":[{"name":"newOwner","type":"address","internalType":"address"}],"outputs":[],"stateMutability":"nonpayable"},{"type":"function","name":"userChallenges","inputs":[{"name":"","type":"address","internalType":"address"},{"name":"","type":"uint256","internalType":"uint256"}],"outputs":[{"name":"challengeId","type":"uint256","internalType":"uint256"},{"name":"completedAt","type":"uint256","internalType":"uint256"},{"name":"claimed","type":"bool","internalType":"bool"}],"stateMutability":"view"},{"type":"event","name":"ChallengeCompleted","inputs":[{"name":"id","type":"uint256","indexed":true,"internalType":"uint256"},{"name":"user","type":"address","indexed":true,"internalType":"address"},{"name":"bonusPoints","type":"uint256","indexed":false,"internalType":"uint256"}],"anonymous":false},{"type":"event","name":"ChallengeCreated","inputs":[{"name":"id","type":"uint256","indexed":true,"internalType":"uint256"},{"name":"title","type":"string","indexed":false,"internalType":"string"},{"name":"endTime","type":"uint256","indexed":false,"internalType":"uint256"}],"anonymous":false},{"type":"event","name":"OwnershipTransferred","inputs":[{"name":"previousOwner","type":"address","indexed":true,"internalType":"address"},{"name":"newOwner","type":"address","indexed":true,"internalType":"address"}],"anonymous":false},{"type":"error","name":"OwnableInvalidOwner","inputs":[{"name":"owner","type":"address","internalType":"address"}]},{"type":"error","name":"OwnableUnauthorizedAccount","inputs":[{"name":"account","type":"address","internalType":"address"}]}],"bytecode":{"object":"0x608060405234801561000f575f5ffd5b506040516113dc3803806113dc83398101604081905261002e916100d1565b338061005357604051631e4fbdf760e01b81525f600482015260240160405180910390fd5b61005c81610082565b50600180546001600160a01b0319166001600160a01b03929092169190911790556100fe565b5f80546001600160a01b038381166001600160a01b0319831681178455604051919092169283917f8be0079c531659141344cd1fd0a4f28419497f9722a3daafe3b4186f6b6457e09190a35050565b5f602082840312156100e1575f5ffd5b81516001600160a01b03811681146100f7575f5ffd5b9392505050565b6112d18061010b5f395ff3fe608060405234801561000f575f5ffd5b50600436106100e5575f3560e01c8063a5ff0a1311610088578063e8c31f8511610063578063e8c31f85146101f3578063ec7fee2614610216578063f2fde38b14610229578063f93965771461023c575f5ffd5b8063a5ff0a131461019d578063a7817bbc146101cd578063d4e9a0af146101e0575f5ffd5b80634ee0c9c7116100c35780634ee0c9c71461013f578063715018a6146101475780638da5cb5b146101515780638f1d377614610175575f5ffd5b80630933f467146100e957806311da8e54146100ff5780631bdd4b741461011f575b5f5ffd5b6002546040519081526020015b60405180910390f35b61011261010d366004610d58565b610269565b6040516100f69190610d78565b61013261012d366004610dd8565b6102fb565b6040516100f69190610e1d565b61013261057b565b61014f61062f565b005b5f546001600160a01b03165b6040516001600160a01b0390911681526020016100f6565b610188610183366004610dd8565b610642565b6040516100f699989796959493929190610ecb565b6101b06101ab366004610f3b565b610831565b6040805193845260208401929092521515908201526060016100f6565b61014f6101db366004610dd8565b610872565b61014f6101ee366004610fa8565b610a0c565b610206610201366004611055565b610c11565b60405190151581526020016100f6565b60015461015d906001600160a01b031681565b61014f610237366004610d58565b610c3d565b61020661024a366004611055565b600460209081525f928352604080842090915290825290205460ff1681565b6001600160a01b0381165f908152600360209081526040808320805482518185028101850190935280835260609492939192909184015b828210156102f0575f8481526020908190206040805160608101825260038602909201805483526001808201548486015260029091015460ff1615159183019190915290835290920191016102a0565b505050509050919050565b610303610cf5565b60025482106103595760405162461bcd60e51b815260206004820152601760248201527f4368616c6c656e676520646f65736e277420657869737400000000000000000060448201526064015b60405180910390fd5b6002828154811061036c5761036c61107f565b905f5260205f209060090201604051806101200160405290815f820154815260200160018201805461039d90611093565b80601f01602080910402602001604051908101604052809291908181526020018280546103c990611093565b80156104145780601f106103eb57610100808354040283529160200191610414565b820191905f5260205f20905b8154815290600101906020018083116103f757829003601f168201915b5050505050815260200160028201805461042d90611093565b80601f016020809104026020016040519081016040528092919081815260200182805461045990611093565b80156104a45780601f1061047b576101008083540402835291602001916104a4565b820191905f5260205f20905b81548152906001019060200180831161048757829003601f168201915b505050505081526020016003820180546104bd90611093565b80601f01602080910402602001604051908101604052809291908181526020018280546104e990611093565b80156105345780601f1061050b57610100808354040283529160200191610534565b820191905f5260205f20905b81548152906001019060200180831161051757829003601f168201915b5050509183525050600482015460208201526005820154604082015260068201546060820152600782015460ff161515608082015260089091015460a09091015292915050565b610583610cf5565b6002545b80156105f05742600261059b6001846110df565b815481106105ab576105ab61107f565b905f5260205f2090600902016005015411156105de5760026105ce6001836110df565b8154811061036c5761036c61107f565b806105e8816110f2565b915050610587565b5060405162461bcd60e51b81526020600482015260136024820152724e6f20616374697665206368616c6c656e676560681b6044820152606401610350565b610637610c7a565b6106405f610ca6565b565b60028181548110610651575f80fd5b5f918252602090912060099091020180546001820180549193509061067590611093565b80601f01602080910402602001604051908101604052809291908181526020018280546106a190611093565b80156106ec5780601f106106c3576101008083540402835291602001916106ec565b820191905f5260205f20905b8154815290600101906020018083116106cf57829003601f168201915b50505050509080600201805461070190611093565b80601f016020809104026020016040519081016040528092919081815260200182805461072d90611093565b80156107785780601f1061074f57610100808354040283529160200191610778565b820191905f5260205f20905b81548152906001019060200180831161075b57829003601f168201915b50505050509080600301805461078d90611093565b80601f01602080910402602001604051908101604052809291908181526020018280546107b990611093565b80156108045780601f106107db57610100808354040283529160200191610804565b820191905f5260205f20905b8154815290600101906020018083116107e757829003601f168201915b505050506004830154600584015460068501546007860154600890960154949592949193509160ff169089565b6003602052815f5260405f20818154811061084a575f80fd5b5f91825260209091206003909102018054600182015460029092015490935090915060ff1683565b5f600282815481106108865761088661107f565b905f5260205f2090600902019050806005015442106108db5760405162461bcd60e51b815260206004820152601160248201527010da185b1b195b99d948195e1c1a5c9959607a1b6044820152606401610350565b5f82815260046020908152604080832033845290915290205460ff16156109385760405162461bcd60e51b8152602060048201526011602482015270105b1c9958591e4818dbdb5c1b195d1959607a1b6044820152606401610350565b5f8281526004602090815260408083203384529091528120805460ff191660011790556008820180549161096b83611107565b9091555050335f81815260036020818152604080842081516060810183528881524281850190815281840187815283546001808201865594895297869020925197909602909101958655519085015591516002909301805460ff1916931515939093179092556006840154905190815284917f7932c06b29830891dfe02481815d0c11164579bbfcfb919d73741acb1bb6292b910160405180910390a35050565b610a14610c7a565b5f600280549050905060026040518061012001604052808381526020018b8b8080601f0160208091040260200160405190810160405280939291908181526020018383808284375f92019190915250505090825250604080516020601f8c018190048102820181019092528a815291810191908b908b90819084018382808284375f92019190915250505090825250604080516020601f8a01819004810282018101909252888152918101919089908990819084018382808284375f92019190915250505090825250426020820152604001610af3866201518061111f565b610afd9042611136565b815260208082018690526001604083018190525f60609093018390528454808201865594835291819020835160099095020193845582015191929190820190610b4690826111a9565b5060408201516002820190610b5b90826111a9565b5060608201516003820190610b7090826111a9565b506080820151600482015560a0820151600582015560c0820151600682015560e082015160078201805460ff191691151591909117905561010090910151600890910155807fd9e1dd888325e72084cbcf9634262dfb2ba49c6eda196148e4b9c4c44d14678b8a8a610be5876201518061111f565b610bef9042611136565b604051610bfe93929190611264565b60405180910390a2505050505050505050565b5f8281526004602090815260408083206001600160a01b038516845290915290205460ff165b92915050565b610c45610c7a565b6001600160a01b038116610c6e57604051631e4fbdf760e01b81525f6004820152602401610350565b610c7781610ca6565b50565b5f546001600160a01b031633146106405760405163118cdaa760e01b8152336004820152602401610350565b5f80546001600160a01b038381166001600160a01b0319831681178455604051919092169283917f8be0079c531659141344cd1fd0a4f28419497f9722a3daafe3b4186f6b6457e09190a35050565b6040518061012001604052805f81526020016060815260200160608152602001606081526020015f81526020015f81526020015f81526020015f151581526020015f81525090565b80356001600160a01b0381168114610d53575f5ffd5b919050565b5f60208284031215610d68575f5ffd5b610d7182610d3d565b9392505050565b602080825282518282018190525f918401906040840190835b81811015610dcd578351805184526020810151602085015260408101511515604085015250606083019250602084019350600181019050610d91565b509095945050505050565b5f60208284031215610de8575f5ffd5b5035919050565b5f81518084528060208401602086015e5f602082860101526020601f19601f83011685010191505092915050565b60208152815160208201525f60208301516101206040840152610e44610140840182610def565b90506040840151601f19848303016060850152610e618282610def565b9150506060840151601f19848303016080850152610e7f8282610def565b915050608084015160a084015260a084015160c084015260c084015160e084015260e0840151610eb461010085018215159052565b506101008401516101208401528091505092915050565b89815261012060208201525f610ee561012083018b610def565b8281036040840152610ef7818b610def565b90508281036060840152610f0b818a610def565b6080840198909852505060a081019490945260c0840192909252151560e083015261010090910152949350505050565b5f5f60408385031215610f4c575f5ffd5b610f5583610d3d565b946020939093013593505050565b5f5f83601f840112610f73575f5ffd5b50813567ffffffffffffffff811115610f8a575f5ffd5b602083019150836020828501011115610fa1575f5ffd5b9250929050565b5f5f5f5f5f5f5f5f60a0898b031215610fbf575f5ffd5b883567ffffffffffffffff811115610fd5575f5ffd5b610fe18b828c01610f63565b909950975050602089013567ffffffffffffffff811115611000575f5ffd5b61100c8b828c01610f63565b909750955050604089013567ffffffffffffffff81111561102b575f5ffd5b6110378b828c01610f63565b999c989b509699959896976060870135966080013595509350505050565b5f5f60408385031215611066575f5ffd5b8235915061107660208401610d3d565b90509250929050565b634e487b7160e01b5f52603260045260245ffd5b600181811c908216806110a757607f821691505b6020821081036110c557634e487b7160e01b5f52602260045260245ffd5b50919050565b634e487b7160e01b5f52601160045260245ffd5b81810381811115610c3757610c376110cb565b5f81611100576111006110cb565b505f190190565b5f60018201611118576111186110cb565b5060010190565b8082028115828204841417610c3757610c376110cb565b80820180821115610c3757610c376110cb565b634e487b7160e01b5f52604160045260245ffd5b601f8211156111a457805f5260205f20601f840160051c810160208510156111825750805b601f840160051c820191505b818110156111a1575f815560010161118e565b50505b505050565b815167ffffffffffffffff8111156111c3576111c3611149565b6111d7816111d18454611093565b8461115d565b6020601f821160018114611209575f83156111f25750848201515b5f19600385901b1c1916600184901b1784556111a1565b5f84815260208120601f198516915b828110156112385787850151825560209485019460019092019101611218565b508482101561125557868401515f19600387901b60f8161c191681555b50505050600190811b01905550565b60408152826040820152828460608301375f606084830101525f6060601f19601f860116830101905082602083015294935050505056fea2646970667358221220de4421d560a8b74a9afb02873ef936c4ed145f265b1003471059ffb13b96bdee64736f6c634300081e0033","linkReferences":{}},"methodIdentifiers":{"challenges(uint256)":"8f1d3776","completeChallenge(uint256)":"a7817bbc","createChallenge(string,string,string,uint256,uint256)":"d4e9a0af","getActiveChallenge()":"4ee0c9c7","getChallenge(uint256)":"1bdd4b74","getChallengeCount()":"0933f467","getUserChallenges(address)":"11da8e54","hasCompleted(uint256,address)":"f9396577","hasUserCompleted(uint256,address)":"e8c31f85","owner()":"8da5cb5b","renounceOwnership()":"715018a6","squadManagerAddress()":"ec7fee26","transferOwnership(address)":"f2fde38b","userChallenges(address,uint256)":"a5ff0a13"},"id":34}