{"abi":[{"type":"constructor","inputs":[{"name":"_squadManagerAddress","type":"address","internalType":"address"}],"stateMutability":"nonpayable"},{"type":"function","name":"challenges","inputs":[{"name":"","type":"uint256","internalType":"uint256"}],"outputs":[{"name":"id","type":"uint256","internalType":"uint256"},{"name":"challengeType","type":"uint8","internalType":"enum ChallengeManager.ChallengeType"},{"name":"title","type":"string","internalType":"string"},{"name":"description","type":"string","internalType":"string"},{"name":"task","type":"string","internalType":"string"},{"name":"minPages","type":"uint256","internalType":"uint256"},{"name":"maxPages","type":"uint256","internalType":"uint256"},{"name":"theme","type":"string","internalType":"string"},{"name":"startTime","type":"uint256","internalType":"uint256"},{"name":"endTime","type":"uint256","internalType":"uint256"},{"name":"bonusPoints","type":"uint256","internalType":"uint256"},{"name":"active","type":"bool","internalType":"bool"},{"name":"participantCount","type":"uint256","internalType":"uint256"}],"stateMutability":"view"},{"type":"function","name":"completeChallenge","inputs":[{"name":"_challengeId","type":"uint256","internalType":"uint256"},{"name":"_submission","type":"string","internalType":"string"}],"outputs":[],"stateMutability":"nonpayable"},{"type":"function","name":"createChallenge","inputs":[{"name":"_challengeType","type":"uint8","internalType":"enum ChallengeManager.ChallengeType"},{"name":"_title","type":"string","internalType":"string"},{"name":"_description","type":"string","internalType":"string"},{"name":"_task","type":"string","internalType":"string"},{"name":"_bookSuggestions","type":"string[]","internalType":"string[]"},{"name":"_minPages","type":"uint256","internalType":"uint256"},{"name":"_maxPages","type":"uint256","internalType":"uint256"},{"name":"_theme","type":"string","internalType":"string"},{"name":"_durationInDays","type":"uint256","internalType":"uint256"},{"name":"_bonusPoints","type":"uint256","internalType":"uint256"}],"outputs":[],"stateMutability":"nonpayable"},{"type":"function","name":"getActiveChallenge","inputs":[],"outputs":[{"name":"","type":"tuple","internalType":"struct ChallengeManager.Challenge","components":[{"name":"id","type":"uint256","internalType":"uint256"},{"name":"challengeType","type":"uint8","internalType":"enum ChallengeManager.ChallengeType"},{"name":"title","type":"string","internalType":"string"},{"name":"description","type":"string","internalType":"string"},{"name":"task","type":"string","internalType":"string"},{"name":"bookSuggestions","type":"string[]","internalType":"string[]"},{"name":"minPages","type":"uint256","internalType":"uint256"},{"name":"maxPages","type":"uint256","internalType":"uint256"},{"name":"theme","type":"string","internalType":"string"},{"name":"startTime","type":"uint256","internalType":"uint256"},{"name":"endTime","type":"uint256","internalType":"uint256"},{"name":"bonusPoints","type":"uint256","internalType":"uint256"},{"name":"active","type":"bool","internalType":"bool"},{"name":"participantCount","type":"uint256","internalType":"uint256"}]}],"stateMutability":"view"},{"type":"function","name":"getChallenge","inputs":[{"name":"_challengeId","type":"uint256","internalType":"uint256"}],"outputs":[{"name":"","type":"tuple","internalType":"struct ChallengeManager.Challenge","components":[{"name":"id","type":"uint256","internalType":"uint256"},{"name":"challengeType","type":"uint8","internalType":"enum ChallengeManager.ChallengeType"},{"name":"title","type":"string","internalType":"string"},{"name":"description","type":"string","internalType":"string"},{"name":"task","type":"string","internalType":"string"},{"name":"bookSuggestions","type":"string[]","internalType":"string[]"},{"name":"minPages","type":"uint256","internalType":"uint256"},{"name":"maxPages","type":"uint256","internalType":"uint256"},{"name":"theme","type":"string","internalType":"string"},{"name":"startTime","type":"uint256","internalType":"uint256"},{"name":"endTime","type":"uint256","internalType":"uint256"},{"name":"bonusPoints","type":"uint256","internalType":"uint256"},{"name":"active","type":"bool","internalType":"bool"},{"name":"participantCount","type":"uint256","internalType":"uint256"}]}],"stateMutability":"view"},{"type":"function","name":"getChallengeCount","inputs":[],"outputs":[{"name":"","type":"uint256","internalType":"uint256"}],"stateMutability":"view"},{"type":"function","name":"getChallengeSubmissions","inputs":[{"name":"_challengeId","type":"uint256","internalType":"uint256"}],"outputs":[{"name":"","type":"tuple[]","internalType":"struct ChallengeManager.UserChallenge[]","components":[{"name":"challengeId","type":"uint256","internalType":"uint256"},{"name":"completedAt","type":"uint256","internalType":"uint256"},{"name":"submission","type":"string","internalType":"string"},{"name":"votes","type":"uint256","internalType":"uint256"},{"name":"claimed","type":"bool","internalType":"bool"}]}],"stateMutability":"view"},{"type":"function","name":"getUserChallenges","inputs":[{"name":"_user","type":"address","internalType":"address"}],"outputs":[{"name":"","type":"tuple[]","internalType":"struct ChallengeManager.UserChallenge[]","components":[{"name":"challengeId","type":"uint256","internalType":"uint256"},{"name":"completedAt","type":"uint256","internalType":"uint256"},{"name":"submission","type":"string","internalType":"string"},{"name":"votes","type":"uint256","internalType":"uint256"},{"name":"claimed","type":"bool","internalType":"bool"}]}],"stateMutability":"view"},{"type":"function","name":"hasCompleted","inputs":[{"name":"","type":"uint256","internalType":"uint256"},{"name":"","type":"address","internalType":"address"}],"outputs":[{"name":"","type":"bool","internalType":"bool"}],"stateMutability":"view"},{"type":"function","name":"hasUserCompleted","inputs":[{"name":"_challengeId","type":"uint256","internalType":"uint256"},{"name":"_user","type":"address","internalType":"address"}],"outputs":[{"name":"","type":"bool","internalType":"bool"}],"stateMutability":"view"},{"type":"function","name":"hasVoted","inputs":[{"name":"","type":"uint256","internalType":"uint256"},{"name":"","type":"address","internalType":"address"}],"outputs":[{"name":"","type":"bool","internalType":"bool"}],"stateMutability":"view"},{"type":"function","name":"owner","inputs":[],"outputs":[{"name":"","type":"address","internalType":"address"}],"stateMutability":"view"},{"type":"function","name":"renounceOwnership","inputs":[],"outputs":[],"stateMutability":"nonpayable"},{"type":"function","name":"squadManagerAddress","inputs":[],"outputs":[{"name":"","type":"address","internalType":"address"}],"stateMutability":"view"},{"type":"function","name":"transferOwnership","inputs":[{"name":"newOwner","type":"address","internalType":"address"}],"outputs":[],"stateMutability":"nonpayable"},{"type":"function","name":"userChallenges","inputs":[{"name":"","type":"address","internalType":"address"},{"name":"","type":"uint256","internalType":"uint256"}],"outputs":[{"name":"challengeId","type":"uint256","internalType":"uint256"},{"name":"completedAt","type":"uint256","internalType":"uint256"},{"name":"submission","type":"string","internalType":"string"},{"name":"votes","type":"uint256","internalType":"uint256"},{"name":"claimed","type":"bool","internalType":"bool"}],"stateMutability":"view"},{"type":"function","name":"voteForSubmission","inputs":[{"name":"_challengeId","type":"uint256","internalType":"uint256"},{"name":"_participant","type":"address","internalType":"address"}],"outputs":[],"stateMutability":"nonpayable"},{"type":"event","name":"ChallengeCompleted","inputs":[{"name":"id","type":"uint256","indexed":true,"internalType":"uint256"},{"name":"user","type":"address","indexed":true,"internalType":"address"},{"name":"submission","type":"string","indexed":false,"internalType":"string"}],"anonymous":false},{"type":"event","name":"ChallengeCreated","inputs":[{"name":"id","type":"uint256","indexed":true,"internalType":"uint256"},{"name":"challengeType","type":"uint8","indexed":false,"internalType":"enum ChallengeManager.ChallengeType"},{"name":"title","type":"string","indexed":false,"internalType":"string"},{"name":"endTime","type":"uint256","indexed":false,"internalType":"uint256"}],"anonymous":false},{"type":"event","name":"ChallengeVerified","inputs":[{"name":"id","type":"uint256","indexed":true,"internalType":"uint256"},{"name":"user","type":"address","indexed":true,"internalType":"address"},{"name":"bonusPoints","type":"uint256","indexed":false,"internalType":"uint256"}],"anonymous":false},{"type":"event","name":"OwnershipTransferred","inputs":[{"name":"previousOwner","type":"address","indexed":true,"internalType":"address"},{"name":"newOwner","type":"address","indexed":true,"internalType":"address"}],"anonymous":false},{"type":"event","name":"VoteCast","inputs":[{"name":"id","type":"uint256","indexed":true,"internalType":"uint256"},{"name":"voter","type":"address","indexed":true,"internalType":"address"},{"name":"target","type":"address","indexed":true,"internalType":"address"}],"anonymous":false},{"type":"error","name":"OwnableInvalidOwner","inputs":[{"name":"owner","type":"address","internalType":"address"}]},{"type":"error","name":"OwnableUnauthorizedAccount","inputs":[{"name":"account","type":"address","internalType":"address"}]}],"bytecode":{"object":"0x60806040523461002f576100196100146100f4565b61018f565b610021610034565b612fcd6102da8239612fcd90f35b61003a565b60405190565b5f80fd5b601f801991011690565b634e487b7160e01b5f52604160045260245ffd5b906100669061003e565b810190811060018060401b0382111761007e57604052565b610048565b9061009661008f610034565b928361005c565b565b5f80fd5b60018060a01b031690565b6100b09061009c565b90565b6100bc816100a7565b036100c357565b5f80fd5b905051906100d4826100b3565b565b906020828203126100ef576100ec915f016100c7565b90565b610098565b6101126132a78038038061010781610083565b9283398101906100d6565b90565b5f1b90565b9061012b60018060a01b0391610115565b9181191691161790565b90565b61014c6101476101519261009c565b610135565b61009c565b90565b61015d90610138565b90565b61016990610154565b90565b90565b9061018461017f61018b92610160565b61016c565b825461011a565b9055565b6101a39061019c336101f2565b600161016f565b565b90565b6101bc6101b76101c1926101a5565b610135565b61009c565b90565b6101cd906101a8565b90565b6101d9906100a7565b9052565b91906101f0905f602085019401906101d0565b565b8061020d6102076102025f6101c4565b6100a7565b916100a7565b1461021d5761021b9061027a565b565b6102406102295f6101c4565b5f918291631e4fbdf760e01b8352600483016101dd565b0390fd5b5f1c90565b60018060a01b031690565b61026061026591610244565b610249565b90565b6102729054610254565b90565b5f0190565b6102835f610268565b61028d825f61016f565b906102c16102bb7f8be0079c531659141344cd1fd0a4f28419497f9722a3daafe3b4186f6b6457e093610160565b91610160565b916102ca610034565b806102d481610275565b0390a356fe60a06040526004361015610013575b611209565b61001d5f3561012c565b80630933f4671461012757806311da8e54146101225780631bdd4b741461011d57806324334e841461011857806343859632146101135780634ee0c9c71461010e578063715018a6146101095780638da5cb5b146101045780638f1d3776146100ff578063a5ff0a13146100fa578063b639947b146100f5578063c18dcd67146100f0578063cd0d67c4146100eb578063e8c31f85146100e6578063ec7fee26146100e1578063f2fde38b146100dc5763f93965770361000e576111d3565b61117f565b61114a565b6110d4565b61109f565b61106b565b610fdf565b610ddb565b610c62565b61084c565b6107f7565b6107c2565b61078c565b610666565b6105ff565b61037f565b610174565b60e01c90565b60405190565b5f80fd5b5f80fd5b5f91031261014a57565b61013c565b90565b61015b9061014f565b9052565b9190610172905f60208501940190610152565b565b346101a457610184366004610140565b6101a061018f611211565b610197610132565b9182918261015f565b0390f35b610138565b5f80fd5b60018060a01b031690565b6101c1906101ad565b90565b6101cd816101b8565b036101d457565b5f80fd5b905035906101e5826101c4565b565b90602082820312610200576101fd915f016101d8565b90565b61013c565b5190565b60209181520190565b60200190565b6102219061014f565b9052565b5190565b60209181520190565b90825f9392825e0152565b601f801991011690565b61026661026f6020936102749361025d81610225565b93848093610229565b95869101610232565b61023d565b0190565b151590565b61028690610278565b9052565b906102ea906080806102cd60a084016102a95f8801515f870190610218565b6102bb60208801516020870190610218565b60408701518582036040870152610247565b946102e060608201516060860190610218565b015191019061027d565b90565b906102f79161028a565b90565b60200190565b9061031461030d83610205565b8092610209565b908161032560208302840194610212565b925f915b83831061033857505050505090565b9091929394602061035a610354838560019503875289516102ed565b976102fa565b9301930191939290610329565b61037c9160208201915f818403910152610300565b90565b346103af576103ab61039a6103953660046101e7565b611389565b6103a2610132565b91829182610367565b0390f35b610138565b6103bd8161014f565b036103c457565b5f80fd5b905035906103d5826103b4565b565b906020828203126103f0576103ed915f016103c8565b90565b61013c565b634e487b7160e01b5f52602160045260245ffd5b600c111561041357565b6103f5565b9061042282610409565b565b61042d90610418565b90565b61043990610424565b9052565b5190565b60209181520190565b60200190565b9061045a91610247565b90565b60200190565b906104776104708361043d565b8092610441565b90816104886020830284019461044a565b925f915b83831061049b57505050505090565b909192939460206104bd6104b783856001950387528951610450565b9761045d565b930193019193929061048c565b906105e4906101a08061058961055161053f61052d61051b6101c088016104f75f8c01515f8b0190610218565b61050960208c015160208b0190610430565b60408b015189820360408b0152610247565b60608a015188820360608a0152610247565b60808901518782036080890152610247565b60a088015186820360a0880152610463565b61056360c088015160c0870190610218565b61057560e088015160e0870190610218565b610100870151858203610100870152610247565b9461059e610120820151610120860190610218565b6105b2610140820151610140860190610218565b6105c6610160820151610160860190610218565b6105da61018082015161018086019061027d565b0151910190610218565b90565b6105fc9160208201915f8184039101526104ca565b90565b3461062f5761062b61061a6106153660046103d7565b611727565b610622610132565b918291826105e7565b0390f35b610138565b919060408382031261065c5780610650610659925f86016103c8565b936020016101d8565b90565b61013c565b5f0190565b346106955761067f610679366004610634565b90611a90565b610687610132565b8061069181610661565b0390f35b610138565b90565b6106b16106ac6106b69261014f565b61069a565b61014f565b90565b906106c39061069d565b5f5260205260405f2090565b6106e36106de6106e8926101ad565b61069a565b6101ad565b90565b6106f4906106cf565b90565b610700906106eb565b90565b9061070d906106f7565b5f5260205260405f2090565b1c90565b60ff1690565b6107339060086107389302610719565b61071d565b90565b906107469154610723565b90565b6107626107679261075d6005935f946106b9565b610703565b61073b565b90565b61077390610278565b9052565b919061078a905f6020850194019061076a565b565b346107bd576107b96107a86107a2366004610634565b90610749565b6107b0610132565b91829182610777565b0390f35b610138565b346107f2576107d2366004610140565b6107ee6107dd611d1f565b6107e5610132565b918291826105e7565b0390f35b610138565b3461082557610807366004610140565b61080f611e37565b610817610132565b8061082181610661565b0390f35b610138565b610833906101b8565b9052565b919061084a905f6020850194019061082a565b565b3461087c5761085c366004610140565b610878610867611e66565b61086f610132565b91829182610837565b0390f35b610138565b634e487b7160e01b5f52603260045260245ffd5b5490565b5f5260205f2090565b6108ab81610895565b8210156108c5576108bd600e91610899565b910201905f90565b610881565b5f1c90565b90565b6108de6108e3916108ca565b6108cf565b90565b6108f090546108d2565b90565b60ff1690565b61090561090a916108ca565b6108f3565b90565b61091790546108f9565b90565b634e487b7160e01b5f52602260045260245ffd5b906001600283049216801561094e575b602083101461094957565b61091a565b91607f169161093e565b5f5260205f2090565b905f929180549061097b6109748361092e565b8094610229565b916001811690815f146109d25750600114610996575b505050565b6109a39192939450610958565b915f925b8184106109ba57505001905f8080610991565b600181602092959395548486015201910192906109a7565b92949550505060ff19168252151560200201905f8080610991565b906109f791610961565b90565b634e487b7160e01b5f52604160045260245ffd5b90610a189061023d565b810190811067ffffffffffffffff821117610a3257604052565b6109fa565b90610a57610a5092610a47610132565b938480926109ed565b0383610a0e565b565b610a65610a6a916108ca565b61071d565b90565b610a779054610a59565b90565b600290610a8682610895565b811015610b4057610a96916108a2565b50610aa25f82016108e6565b91610aaf6001830161090d565b91610abc60028201610a37565b91610ac960038301610a37565b91610ad660048201610a37565b91610ae3600683016108e6565b91610af0600782016108e6565b91610afd60088301610a37565b91610b0a600982016108e6565b91610b17600a83016108e6565b91610b24600b82016108e6565b91610b3d600d610b36600c8501610a6d565b93016108e6565b90565b5f80fd5b610b4d90610424565b9052565b60209181520190565b610b79610b82602093610b8793610b7081610225565b93848093610b51565b95869101610232565b61023d565b0190565b610c5998819a9f9e9c96610c609e99610c15610c4e9a6101809f98610c0d610c1f95610bff610c439d610bf1610c2c9c60a096610c389f610be3908f602090610bdc6101a08201965f830190610152565b0190610b44565b8d6040818403910152610b5a565b908b820360608d0152610b5a565b9089820360808b0152610b5a565b960190610152565b60c08d0190610152565b8a820360e08c0152610b5a565b9c610100890190610152565b610120870190610152565b610140850190610152565b61016083019061076a565b0190610152565b565b34610ca257610c9e610c7d610c783660046103d7565b610a7a565b99610c959d9b9d999199989298979397969496610132565b9d8e9d8e610b8b565b0390f35b610138565b9190604083820312610ccf5780610cc3610ccc925f86016101d8565b936020016103c8565b90565b61013c565b90610cde906106f7565b5f5260205260405f2090565b5490565b5f5260205f2090565b610d0081610cea565b821015610d1a57610d12600591610cee565b910201905f90565b610881565b610d2a906003610cd4565b90610d3482610cea565b811015610d8657610d4491610cf7565b50610d505f82016108e6565b91610d5d600183016108e6565b91610d6a60028201610a37565b91610d836004610d7c600385016108e6565b9301610a6d565b90565b5f80fd5b90610dc7610dd291610dd996989795610dba608096610db060a08801945f890190610152565b6020870190610152565b8482036040860152610b5a565b966060830190610152565b019061076a565b565b34610e1057610e0c610df7610df1366004610ca7565b90610d1f565b91610e03959395610132565b95869586610d8a565b0390f35b610138565b600c1115610e1f57565b5f80fd5b90503590610e3082610e15565b565b5f80fd5b5f80fd5b5f80fd5b909182601f83011215610e785781359167ffffffffffffffff8311610e73576020019260018302840111610e6e57565b610e3a565b610e36565b610e32565b909182601f83011215610eb75781359167ffffffffffffffff8311610eb2576020019260208302840111610ead57565b610e3a565b610e36565b610e32565b91909161014081840312610fda57610ed6835f8301610e23565b92602082013567ffffffffffffffff8111610fd55781610ef7918401610e3e565b929093604082013567ffffffffffffffff8111610fd05783610f1a918401610e3e565b929093606082013567ffffffffffffffff8111610fcb5781610f3d918401610e3e565b929093608082013567ffffffffffffffff8111610fc65783610f60918401610e7d565b929093610f708160a084016103c8565b92610f7e8260c085016103c8565b9260e08101359167ffffffffffffffff8311610fc157610fa384610fbe948401610e3e565b939094610fb48161010086016103c8565b93610120016103c8565b90565b6101a9565b6101a9565b6101a9565b6101a9565b6101a9565b61013c565b346110205761100a610ff2366004610ebc565b9d9c909c9b919b9a929a99939998949897959761297b565b611012610132565b8061101c81610661565b0390f35b610138565b9190916040818403126110665761103e835f83016103c8565b92602082013567ffffffffffffffff81116110615761105d9201610e3e565b9091565b6101a9565b61013c565b3461109a5761108461107e366004611025565b91612b88565b61108c610132565b8061109681610661565b0390f35b610138565b346110cf576110cb6110ba6110b53660046103d7565b612d98565b6110c2610132565b91829182610367565b0390f35b610138565b34611105576111016110f06110ea366004610634565b90612e07565b6110f8610132565b91829182610777565b0390f35b610138565b60018060a01b031690565b61112590600861112a9302610719565b61110a565b90565b906111389154611115565b90565b61114760015f9061112d565b90565b3461117a5761115a366004610140565b61117661116561113b565b61116d610132565b91829182610837565b0390f35b610138565b346111ad576111976111923660046101e7565b612e94565b61119f610132565b806111a981610661565b0390f35b610138565b6111cb6111d0926111c66004935f946106b9565b610703565b61073b565b90565b34611204576112006111ef6111e9366004610634565b906111b2565b6111f7610132565b91829182610777565b0390f35b610138565b5f80fd5b5f90565b61121961120d565b506112246002610895565b90565b606090565b9061123f611238610132565b9283610a0e565b565b67ffffffffffffffff81116112595760208091020190565b6109fa565b9061127061126b83611241565b61122c565b918252565b9061127f9061014f565b9052565b52565b9061129090610278565b9052565b61129e60a061122c565b90565b9061132061131760046112b2611294565b946112c96112c15f83016108e6565b5f8801611275565b6112e16112d8600183016108e6565b60208801611275565b6112f96112f060028301610a37565b60408801611283565b611311611308600383016108e6565b60608801611275565b01610a6d565b60808401611286565b565b61132b906112a1565b90565b9061133882610cea565b6113418161125e565b9261134f6020850191610cee565b5f915b83831061135f5750505050565b6005602060019261136f85611322565b815201920192019190611352565b6113869061132e565b90565b6113a06113a591611398611227565b506003610cd4565b61137d565b90565b6113b36101c061122c565b90565b5f90565b5f90565b606090565b606090565b5f90565b602090818080808080808080808080806113e46113a8565b9e8f6113ee6113b6565b8152016113f96113ba565b8152016114046113be565b81520161140f6113be565b81520161141a6113be565b8152016114256113c3565b8152016114306113b6565b81520161143b6113b6565b8152016114466113be565b8152016114516113b6565b81520161145c6113b6565b8152016114676113b6565b8152016114726113c8565b81520161147d6113b6565b81525050565b61148b6113cc565b90565b5f7f4368616c6c656e676520646f65736e2774206578697374000000000000000000910152565b6114c26017602092610b51565b6114cb8161148e565b0190565b6114e49060208101905f8183039101526114b5565b90565b156114ee57565b6114f6610132565b62461bcd60e51b81528061150c600482016114cf565b0390fd5b9061151a90610418565b9052565b5490565b67ffffffffffffffff811161153a5760208091020190565b6109fa565b9061155161154c83611522565b61122c565b918252565b5f5260205f2090565b61156890610a37565b90565b906115758261151e565b61157e8161153f565b9261158c6020850191611556565b5f915b83831061159c5750505050565b6001602081926115ab8561155f565b81520192019201919061158f565b52565b9061171961170f600d6115cd6113a8565b946115e46115dc5f83016108e6565b5f8801611275565b6115fc6115f36001830161090d565b60208801611510565b61161461160b60028301610a37565b60408801611283565b61162c61162360038301610a37565b60608801611283565b61164461163b60048301610a37565b60808801611283565b61165c6116536005830161156b565b60a088016115b9565b61167461166b600683016108e6565b60c08801611275565b61168c611683600783016108e6565b60e08801611275565b6116a561169b60088301610a37565b6101008801611283565b6116be6116b4600983016108e6565b6101208801611275565b6116d76116cd600a83016108e6565b6101408801611275565b6116f06116e6600b83016108e6565b6101608801611275565b6117096116ff600c8301610a6d565b6101808801611286565b016108e6565b6101a08401611275565b565b611724906115bc565b90565b61176361176991611736611483565b5061175c8161175661175061174b6002610895565b61014f565b9161014f565b106114e7565b60026108a2565b5061171b565b90565b90565b5f7f4e6f74206120766f74696e67206368616c6c656e676500000000000000000000910152565b6117a36016602092610b51565b6117ac8161176f565b0190565b6117c59060208101905f818303910152611796565b90565b156117cf57565b6117d7610132565b62461bcd60e51b8152806117ed600482016117b0565b0390fd5b5f7f4368616c6c656e676520656e6465640000000000000000000000000000000000910152565b611825600f602092610b51565b61182e816117f1565b0190565b6118479060208101905f818303910152611818565b90565b1561185157565b611859610132565b62461bcd60e51b81528061186f60048201611832565b0390fd5b5f7f416c726561647920766f74656400000000000000000000000000000000000000910152565b6118a7600d602092610b51565b6118b081611873565b0190565b6118c99060208101905f81830391015261189a565b90565b156118d357565b6118db610132565b62461bcd60e51b8152806118f1600482016118b4565b0390fd5b5f7f43616e6e6f7420766f746520666f7220796f757273656c660000000000000000910152565b6119296018602092610b51565b611932816118f5565b0190565b61194b9060208101905f81830391015261191c565b90565b1561195557565b61195d610132565b62461bcd60e51b81528061197360048201611936565b0390fd5b90565b90565b61199161198c6119969261197a565b61069a565b61014f565b90565b60016119a5910161014f565b90565b5490565b5f5260205f2090565b6119be816119a8565b8210156119d8576119d06005916119ac565b910201905f90565b610881565b634e487b7160e01b5f52601160045260245ffd5b6119fa9061014f565b5f198114611a085760010190565b6119dd565b5f1b90565b90611a1e5f1991611a0d565b9181191691161790565b90565b90611a40611a3b611a479261069d565b611a28565b8254611a12565b9055565b90611a5760ff91611a0d565b9181191691161790565b611a6a90610278565b90565b90565b90611a85611a80611a8c92611a61565b611a6d565b8254611a4b565b9055565b90611af5611aa9611aa3600285906108a2565b5061176c565b611ad1611ab86001830161090d565b611acb611ac56008610418565b91610418565b146117c8565b611aef611ae9611ae4600a4294016108e6565b61014f565b9161014f565b1061184a565b611b24611b1f611b19611b14611b0d600587906106b9565b3390610703565b610a6d565b15610278565b6118cc565b611b4133611b3a611b34846101b8565b916101b8565b141561194e565b611b55611b5060038390610cd4565b611977565b91611b5f5f61197d565b5b80611b7b611b75611b70876119a8565b61014f565b9161014f565b1015611c5d57611b975f611b908684906119b5565b50016108e6565b611ba9611ba38461014f565b9161014f565b14611bbc57611bb790611999565b611b60565b611bcd600391611be69394956119b5565b5001611be0611bdb826108e6565b6119f1565b90611a2b565b611c066001611c01611bfa600585906106b9565b3390610703565b611a70565b9033611c44611c3e611c387fcfff1651bcea794952a516ce970ab17518a85210bd939aaeaac670a8d3e65ec79561069d565b926106f7565b926106f7565b92611c4d610132565b80611c5781610661565b0390a45b565b50505050611c5b565b611c6f9061014f565b5f8114611c7d576001900390565b6119dd565b90565b611c99611c94611c9e92611c82565b61069a565b61014f565b90565b611cb0611cb69193929361014f565b9261014f565b8203918211611cc157565b6119dd565b5f7f4e6f20616374697665206368616c6c656e676500000000000000000000000000910152565b611cfa6013602092610b51565b611d0381611cc6565b0190565b611d1c9060208101905f818303910152611ced565b90565b611d27611483565b50611d326002610895565b5b80611d46611d405f61197d565b9161014f565b1115611dc857611d77600a611d706002611d6a85611d646001611c85565b90611ca1565b906108a2565b50016108e6565b611d89611d834261014f565b9161014f565b11611d9c57611d9790611c66565b611d33565b611dbf611dc591611db9600291611db36001611c85565b90611ca1565b906108a2565b5061171b565b90565b611dd0610132565b62461bcd60e51b815280611de660048201611d07565b0390fd5b611df2612e9f565b611dfa611e24565b565b611e10611e0b611e159261197a565b61069a565b6101ad565b90565b611e2190611dfc565b90565b611e35611e305f611e18565b612f2b565b565b611e3f611dea565b565b5f90565b611e51611e56916108ca565b61110a565b90565b611e639054611e45565b90565b611e6e611e41565b50611e785f611e59565b90565b90611e9a9e9d9c9b9a999897969594939291611e95612e9f565b61277b565b565b90565b90565b611eb6611eb1611ebb92611e9f565b61069a565b61014f565b90565b611ecd611ed39193929361014f565b9261014f565b91611edf83820261014f565b928184041490151715611eee57565b6119dd565b611f02611f089193929361014f565b9261014f565b8201809211611f1357565b6119dd565b611f236101c061122c565b90565b5f80fd5b67ffffffffffffffff8111611f4857611f4460209161023d565b0190565b6109fa565b90825f939282370152565b90929192611f6d611f6882611f2a565b61122c565b93818552602085019082840111611f8957611f8792611f4d565b565b611f26565b611f99913691611f58565b90565b9080601f83011215611fba57816020611fb793359101611f58565b90565b610e32565b929190611fd3611fce82611522565b61122c565b938185526020808601920281019183831161202a5781905b838210611ff9575050505050565b813567ffffffffffffffff81116120255760209161201a8784938701611f9c565b815201910190611feb565b610e32565b610e3a565b61203a913691611fbf565b90565b5f5260205f2090565b5490565b61205381612046565b82101561206d57612065600e9161203d565b910201905f90565b610881565b634e487b7160e01b5f525f60045260245ffd5b61208f905161014f565b90565b61209c9051610418565b90565b6120a890610418565b90565b90565b906120c36120be6120ca9261209f565b6120ab565b8254611a4b565b9055565b5190565b601f602091010490565b1b90565b919060086120fb9102916120f55f19846120dc565b926120dc565b9181191691161790565b919061211b6121166121239361069d565b611a28565b9083546120e0565b9055565b6121399161213361120d565b91612105565b565b5b818110612147575050565b806121545f600193612127565b0161213c565b9190601f811161216a575b505050565b61217661219b93610958565b906020612182846120d2565b830193106121a3575b612194906120d2565b019061213b565b5f8080612165565b91506121948192905061218b565b906121c1905f1990600802610719565b191690565b816121d0916121b1565b906002021790565b906121e281610225565b9067ffffffffffffffff82116122a25761220682612200855461092e565b8561215a565b602090601f831160011461223a57918091612229935f9261222e575b50506121c6565b90555b565b90915001515f80612222565b601f1983169161224985610958565b925f5b81811061228a57509160029391856001969410612270575b5050500201905561222c565b612280910151601f8416906121b1565b90555f8080612264565b9193602060018192878701518155019501920161224c565b6109fa565b906122b1916121d8565b565b5190565b600190818003010490565b906122d5905f1990602003600802610719565b8154169055565b905f916122f36122eb82610958565b9283546121c6565b905555565b919290602082105f1461235157601f84116001146123215761231b9293506121c6565b90555b5b565b509061234761234c93600161233e61233885610958565b926120d2565b8201910161213b565b6122dc565b61231e565b506123888293612362600194610958565b61238161236e856120d2565b820192601f861680612393575b506120d2565b019061213b565b60020217905561231f565b61239f908886036122c2565b5f61237b565b929091680100000000000000008211612405576020115f146123f657602081105f146123da576123d4916121c6565b90555b5b565b60019160ff19166123ea84610958565b556002020190556123d7565b600191506002020190556123d8565b6109fa565b9081546124168161092e565b9081831161243f575b81831061242d575b50505050565b612436936122f8565b5f808080612427565b61244b838383876123a5565b61241f565b5f61245a9161240a565b565b905f0361246e5761246c90612450565b565b612072565b5b81811061247f575050565b8061248c5f60019361245c565b01612474565b90918281106124a1575b505050565b6124bf6124b96124b36124ca956122b7565b926122b7565b92611556565b918201910190612473565b5f808061249c565b906801000000000000000081116124fb57816124f06124f99361151e565b90828155612492565b565b6109fa565b61252561251f61250f8461043d565b9361251a85856124d2565b61044a565b91611556565b5f915b8383106125355750505050565b600160208261254d61254784956120ce565b866122a7565b01920192019190612528565b9061256391612500565b565b61256f9051610278565b90565b906126cf6101a0600d6126d5946125965f82016125905f8801612085565b90611a2b565b6125af600182016125a960208801612092565b906120ae565b6125c8600282016125c2604088016120ce565b906122a7565b6125e1600382016125db606088016120ce565b906122a7565b6125fa600482016125f4608088016120ce565b906122a7565b6126136005820161260d60a088016122b3565b90612559565b61262c6006820161262660c08801612085565b90611a2b565b6126456007820161263f60e08801612085565b90611a2b565b61265f6008820161265961010088016120ce565b906122a7565b612679600982016126736101208801612085565b90611a2b565b612693600a820161268d6101408801612085565b90611a2b565b6126ad600b82016126a76101608801612085565b90611a2b565b6126c7600c82016126c16101808801612565565b90611a70565b019201612085565b90611a2b565b565b91906126e8576126e691612572565b565b612072565b908154916801000000000000000083101561271d578261271591600161271b9501815561204a565b906126d7565b565b6109fa565b919061273c816127358161274195610b51565b8095611f4d565b61023d565b0190565b949391604091612779946127719261276460608a01935f8b0190610b44565b88830360208a0152612722565b940190610152565b565b9c9b95819e97839c958f9a94978f989d969d9c949c600261279b90610895565b9e8f9e60026127a990611e9c565b9f9e909291949396959897999a9c9b4290620151806127c790611ea2565b6127d091611ebe565b6127d991611ef3565b9d9e6127e3611f18565b6080526080515f01906127f591611275565b6080516020019061280591611510565b61280e91611f8e565b6080516040019061281e91611283565b61282791611f8e565b6080516060019061283791611283565b61284091611f8e565b6080516080019061285091611283565b6128599161202f565b60805160a00190612869916115b9565b60805160c0019061287991611275565b60805160e0019061288991611275565b61289291611f8e565b60805161010001906128a391611283565b4260805161012001906128b591611275565b60805161014001906128c691611275565b60805161016001906128d791611275565b6080516101800160016128e991611286565b6128f25f61197d565b6080516101a0019061290391611275565b60805161290f916126ed565b9293909142906201518061292290611ea2565b61292b91611ebe565b61293491611ef3565b937ffc9de6109b664d8f576514cd148b2ece64b10bddde00b8d02a1a6beea2b5fa51936129609061069d565b94612969610132565b9384936129769385612745565b0390a2565b906129929e9d9c9b9a999897969594939291611e7b565b565b5f7f4368616c6c656e67652065787069726564000000000000000000000000000000910152565b6129c86011602092610b51565b6129d181612994565b0190565b6129ea9060208101905f8183039101526129bb565b90565b156129f457565b6129fc610132565b62461bcd60e51b815280612a12600482016129d5565b0390fd5b5f7f416c726561647920636f6d706c65746564000000000000000000000000000000910152565b612a4a6011602092610b51565b612a5381612a16565b0190565b612a6c9060208101905f818303910152612a3d565b90565b15612a7657565b612a7e610132565b62461bcd60e51b815280612a9460048201612a57565b0390fd5b612aa260a061122c565b90565b90612b1b60806004612b2194612ac85f8201612ac25f8801612085565b90611a2b565b612ae160018201612adb60208801612085565b90611a2b565b612afa60028201612af4604088016120ce565b906122a7565b612b1360038201612b0d60608801612085565b90611a2b565b019201612565565b90611a70565b565b9190612b3457612b3291612aa5565b565b612072565b9081549168010000000000000000831015612b695782612b61916001612b67950181556119b5565b90612b23565b565b6109fa565b9091612b859260208301925f818503910152612722565b90565b612c30600d612ba2612b9c600285906108a2565b5061176c565b612bc942612bc3612bbd612bb8600a86016108e6565b61014f565b9161014f565b106129ed565b612bf8612bf3612bed612be8612be1600489906106b9565b3390610703565b610a6d565b15610278565b612a6f565b612c186001612c13612c0c600488906106b9565b3390610703565b611a70565b01612c2a612c25826108e6565b6119f1565b90611a2b565b612ca95f612c48612c4360033390610cd4565b611977565b612ca484612c9b612c9242612c8d612c848b8d90612c7f8b95612c768d9a612c6e612a98565b9e8f01611275565b60208d01611275565b611f8e565b60408901611283565b61197d565b60608601611275565b60808401611286565b612b39565b339192612cdf612cd97f94899b5a23a89b1820e20eaa28780ee67d63ba9c756e9ddb0101cbfc2d6948339361069d565b936106f7565b93612cf4612ceb610132565b92839283612b6e565b0390a3565b612d01611294565b9060208080808086612d116113b6565b815201612d1c6113b6565b815201612d276113be565b815201612d326113b6565b815201612d3d6113c8565b81525050565b612d4b612cf9565b90565b5f5b828110612d5c57505050565b602090612d67612d43565b8184015201612d50565b90612d96612d7e8361125e565b92602080612d8c8693611241565b9201910390612d4e565b565b50612da1611227565b50612dab5f61197d565b5b80612dda612dd4612dcf612dca6003612dc45f611e18565b90610cd4565b610cea565b61014f565b9161014f565b1015612dee57612de990611999565b612dac565b50612e00612dfb5f61197d565b612d71565b90565b5f90565b612e2c91612e22612e2792612e1a612e03565b5060046106b9565b610703565b610a6d565b90565b612e4090612e3b612e9f565b612e42565b565b80612e5d612e57612e525f611e18565b6101b8565b916101b8565b14612e6d57612e6b90612f2b565b565b612e90612e795f611e18565b5f918291631e4fbdf760e01b835260048301610837565b0390fd5b612e9d90612e2f565b565b612ea7611e66565b612ec0612eba612eb5612f8a565b6101b8565b916101b8565b03612ec757565b612ee9612ed2612f8a565b5f91829163118cdaa760e01b835260048301610837565b0390fd5b90612efe60018060a01b0391611a0d565b9181191691161790565b90565b90612f20612f1b612f27926106f7565b612f08565b8254612eed565b9055565b612f345f611e59565b612f3e825f612f0b565b90612f72612f6c7f8be0079c531659141344cd1fd0a4f28419497f9722a3daafe3b4186f6b6457e0936106f7565b916106f7565b91612f7b610132565b80612f8581610661565b0390a3565b612f92611e41565b50339056fea2646970667358221220021e74c19f728304bc3bd24883f7474d28624208fb37e29043e1de121b279ef264736f6c634300081e0033","linkReferences":{}},"methodIdentifiers":{"challenges(uint256)":"8f1d3776","completeChallenge(uint256,string)":"c18dcd67","createChallenge(uint8,string,string,string,string[],uint256,uint256,string,uint256,uint256)":"b639947b","getActiveChallenge()":"4ee0c9c7","getChallenge(uint256)":"1bdd4b74","getChallengeCount()":"0933f467","getChallengeSubmissions(uint256)":"cd0d67c4","getUserChallenges(address)":"11da8e54","hasCompleted(uint256,address)":"f9396577","hasUserCompleted(uint256,address)":"e8c31f85","hasVoted(uint256,address)":"43859632","owner()":"8da5cb5b","renounceOwnership()":"715018a6","squadManagerAddress()":"ec7fee26","transferOwnership(address)":"f2fde38b","userChallenges(address,uint256)":"a5ff0a13","voteForSubmission(uint256,address)":"24334e84"},"id":40}