{"abi":[{"type":"constructor","inputs":[{"name":"_squadManagerAddress","type":"address","internalType":"address"}],"stateMutability":"nonpayable"},{"type":"function","name":"DEFAULT_ADMIN_ROLE","inputs":[],"outputs":[{"name":"","type":"bytes32","internalType":"bytes32"}],"stateMutability":"view"},{"type":"function","name":"currentChallenge","inputs":[],"outputs":[{"name":"day","type":"uint256","internalType":"uint256"},{"name":"challengeType","type":"uint256","internalType":"uint256"},{"name":"title","type":"string","internalType":"string"},{"name":"description","type":"string","internalType":"string"},{"name":"theme","type":"string","internalType":"string"},{"name":"bonusPoints","type":"uint256","internalType":"uint256"}],"stateMutability":"view"},{"type":"function","name":"dayGenerated","inputs":[{"name":"","type":"uint256","internalType":"uint256"}],"outputs":[{"name":"","type":"bool","internalType":"bool"}],"stateMutability":"view"},{"type":"function","name":"generateDailyChallenge","inputs":[],"outputs":[],"stateMutability":"nonpayable"},{"type":"function","name":"getCurrentChallenge","inputs":[],"outputs":[{"name":"","type":"tuple","internalType":"struct DailyChallenge.Challenge","components":[{"name":"day","type":"uint256","internalType":"uint256"},{"name":"challengeType","type":"uint256","internalType":"uint256"},{"name":"title","type":"string","internalType":"string"},{"name":"description","type":"string","internalType":"string"},{"name":"theme","type":"string","internalType":"string"},{"name":"bonusPoints","type":"uint256","internalType":"uint256"}]}],"stateMutability":"view"},{"type":"function","name":"getDailyParticipants","inputs":[{"name":"day","type":"uint256","internalType":"uint256"}],"outputs":[{"name":"","type":"address[]","internalType":"address[]"}],"stateMutability":"view"},{"type":"function","name":"getDailySubmission","inputs":[{"name":"day","type":"uint256","internalType":"uint256"},{"name":"user","type":"address","internalType":"address"}],"outputs":[{"name":"submitter","type":"address","internalType":"address"},{"name":"ipfsHash","type":"string","internalType":"string"},{"name":"quote","type":"string","internalType":"string"},{"name":"timestamp","type":"uint256","internalType":"uint256"},{"name":"verified","type":"bool","internalType":"bool"},{"name":"verifierCount","type":"uint256","internalType":"uint256"}],"stateMutability":"view"},{"type":"function","name":"getRoleAdmin","inputs":[{"name":"role","type":"bytes32","internalType":"bytes32"}],"outputs":[{"name":"","type":"bytes32","internalType":"bytes32"}],"stateMutability":"view"},{"type":"function","name":"getVerificationStatus","inputs":[{"name":"day","type":"uint256","internalType":"uint256"},{"name":"user","type":"address","internalType":"address"}],"outputs":[{"name":"verified","type":"bool","internalType":"bool"},{"name":"verifierCount","type":"uint256","internalType":"uint256"}],"stateMutability":"view"},{"type":"function","name":"grantRole","inputs":[{"name":"role","type":"bytes32","internalType":"bytes32"},{"name":"account","type":"address","internalType":"address"}],"outputs":[],"stateMutability":"nonpayable"},{"type":"function","name":"hasRole","inputs":[{"name":"role","type":"bytes32","internalType":"bytes32"},{"name":"account","type":"address","internalType":"address"}],"outputs":[{"name":"","type":"bool","internalType":"bool"}],"stateMutability":"view"},{"type":"function","name":"hasSubmittedToday","inputs":[{"name":"user","type":"address","internalType":"address"}],"outputs":[{"name":"","type":"bool","internalType":"bool"}],"stateMutability":"view"},{"type":"function","name":"renounceRole","inputs":[{"name":"role","type":"bytes32","internalType":"bytes32"},{"name":"callerConfirmation","type":"address","internalType":"address"}],"outputs":[],"stateMutability":"nonpayable"},{"type":"function","name":"revokeRole","inputs":[{"name":"role","type":"bytes32","internalType":"bytes32"},{"name":"account","type":"address","internalType":"address"}],"outputs":[],"stateMutability":"nonpayable"},{"type":"function","name":"squadManagerAddress","inputs":[],"outputs":[{"name":"","type":"address","internalType":"address"}],"stateMutability":"view"},{"type":"function","name":"submitDailyChallenge","inputs":[{"name":"ipfsHash","type":"string","internalType":"string"},{"name":"quote","type":"string","internalType":"string"}],"outputs":[],"stateMutability":"nonpayable"},{"type":"function","name":"supportsInterface","inputs":[{"name":"interfaceId","type":"bytes4","internalType":"bytes4"}],"outputs":[{"name":"","type":"bool","internalType":"bool"}],"stateMutability":"view"},{"type":"function","name":"verifyDailySubmission","inputs":[{"name":"submitter","type":"address","internalType":"address"}],"outputs":[],"stateMutability":"nonpayable"},{"type":"event","name":"ChallengeAutoGenerated","inputs":[{"name":"day","type":"uint256","indexed":true,"internalType":"uint256"},{"name":"challengeType","type":"uint256","indexed":true,"internalType":"uint256"},{"name":"title","type":"string","indexed":false,"internalType":"string"},{"name":"bonusPoints","type":"uint256","indexed":false,"internalType":"uint256"}],"anonymous":false},{"type":"event","name":"DailySubmissionAdded","inputs":[{"name":"day","type":"uint256","indexed":true,"internalType":"uint256"},{"name":"user","type":"address","indexed":true,"internalType":"address"},{"name":"ipfsHash","type":"string","indexed":false,"internalType":"string"},{"name":"quote","type":"string","indexed":false,"internalType":"string"}],"anonymous":false},{"type":"event","name":"DailySubmissionVerified","inputs":[{"name":"day","type":"uint256","indexed":true,"internalType":"uint256"},{"name":"submitter","type":"address","indexed":true,"internalType":"address"},{"name":"verifier","type":"address","indexed":true,"internalType":"address"},{"name":"verifierCount","type":"uint256","indexed":false,"internalType":"uint256"}],"anonymous":false},{"type":"event","name":"PointsAwarded","inputs":[{"name":"day","type":"uint256","indexed":true,"internalType":"uint256"},{"name":"user","type":"address","indexed":true,"internalType":"address"},{"name":"points","type":"uint256","indexed":false,"internalType":"uint256"}],"anonymous":false},{"type":"event","name":"RoleAdminChanged","inputs":[{"name":"role","type":"bytes32","indexed":true,"internalType":"bytes32"},{"name":"previousAdminRole","type":"bytes32","indexed":true,"internalType":"bytes32"},{"name":"newAdminRole","type":"bytes32","indexed":true,"internalType":"bytes32"}],"anonymous":false},{"type":"event","name":"RoleGranted","inputs":[{"name":"role","type":"bytes32","indexed":true,"internalType":"bytes32"},{"name":"account","type":"address","indexed":true,"internalType":"address"},{"name":"sender","type":"address","indexed":true,"internalType":"address"}],"anonymous":false},{"type":"event","name":"RoleRevoked","inputs":[{"name":"role","type":"bytes32","indexed":true,"internalType":"bytes32"},{"name":"account","type":"address","indexed":true,"internalType":"address"},{"name":"sender","type":"address","indexed":true,"internalType":"address"}],"anonymous":false},{"type":"error","name":"AccessControlBadConfirmation","inputs":[]},{"type":"error","name":"AccessControlUnauthorizedAccount","inputs":[{"name":"account","type":"address","internalType":"address"},{"name":"neededRole","type":"bytes32","internalType":"bytes32"}]}],"bytecode":{"object":"0x60a060405234801561000f575f5ffd5b506040516134cb3803806134cb83398101604081905261002e91610fea565b6001600160a01b0381166100885760405162461bcd60e51b815260206004820152601c60248201527f496e76616c69642053717561644d616e61676572206164647265737300000000604482015260640160405180910390fd5b6001600160a01b03811660805261009f5f336100ae565b506100a8610157565b50611169565b5f828152602081815260408083206001600160a01b038516845290915281205460ff1661014e575f838152602081815260408083206001600160a01b03861684529091529020805460ff191660011790556101063390565b6001600160a01b0316826001600160a01b0316847f2f8788117e7eff1d82e926ec794901d17c78024a50270940304540a733656f0d60405160405180910390a4506001610151565b505f5b92915050565b604080516104008101825260176103c082019081527f4661766f7269746520426f6f6b204368617261637465720000000000000000006103e0830152815281518083018352600f8082526e10995cdd08141b1bdd08151dda5cdd608a1b602083810191909152808401929092528351808501855260148082527f4d6f7374204d656d6f7261626c652051756f7465000000000000000000000000828501528486019190915284518086018652601581527f426f6f6b2054686174204368616e67656420596f75000000000000000000000081850152606085015284518086018652600e81526d556e64657272617465642047656d60901b818501526080850152845180860186526012808252714368696c64686f6f64204661766f7269746560701b8286015260a086019190915285518087018752600d81526c2137b7b5902430b733b7bb32b960991b8186015260c0860152855180870187528381526e2330bb37b934ba329020baba3437b960891b8186015260e0860152855180870187529283526e2132b0baba34b33ab61021b7bb32b960891b838501526101008501929092528451808601865260188082527f426f6f6b2053657474696e6720596f752764205669736974000000000000000082860152610120860191909152855180870187528181527f56696c6c61696e20596f75204c6f766520746f2048617465000000000000000081860152610140860152855180870187528281527f4d6f737420456d6f74696f6e616c205363656e65000000000000000000000000818601526101608601528551808701875260168082527f426f6f6b2054686174204d61646520596f75204372790000000000000000000082870152610180870191909152865180880188528281527f426f6f6b2054686174204d61646520596f75204c617567680000000000000000818701526101a087015286518088018852601181527042657374204f70656e696e67204c696e6560781b818701526101c0870152865180880188528181527f4d6f73742053617469736679696e6720456e64696e6700000000000000000000818701526101e0870152865180880188528381527f426f6f6b20596f7520526572656164204d6f737400000000000000000000000081870152610200870152865180880188528281527f426f6f6b20596f7520436f756c646e27742046696e697368000000000000000081870152610220870152865180880188529283527f4775696c747920506c65617375726520526561640000000000000000000000008386015261024086019290925285518087018752601b81527f426f6f6b20576974682042657374204d616769632053797374656d000000000081860152610260860152855180870187529081527f4d6f73742052656c617461626c652043686172616374657200000000000000008185015261028085015284518086018652601d8082527f4265737420467269656e647368697020696e204c697465726174757265000000828601526102a0860191909152855180870187529182527f4d6f7374204570696320426174746c65205363656e6500000000000000000000828501526102c085019190915284518086018652600c81526b4265737420526f6d616e636560a01b818501526102e085015284518086018652601981527f4d6f737420556e697175652057726974696e67205374796c65000000000000008185015261030085015284518086018652601f81527f426f6f6b2054686174204b65707420596f7520557020416c6c204e696768740081850152610320850152845180860186529081527f4265737420426f6f6b20746f204d6f7669652041646170746174696f6e0000008184015261034084015283518085018552601381527f4d6f7374204f766572726174656420426f6f6b00000000000000000000000000818401526103608401528351808501855281815271121a5919195b8811d95b481bd9880c8c0c8d60721b81840152610380840152835180850190945283527142657374205365726965732046696e616c6560701b908301526103a081019190915261074c90600a90601e610f34565b5060408051610440810190915260446103c0820181815282916130456103e084013981526020016040518060600160405280603781526020016134026037913981526020016040518060600160405280602e8152602001613110602e913981526020016040518060600160405280602c8152602001613089602c913981526020016040518060600160405280603481526020016132be6034913981526020016040518060600160405280602e8152602001613017602e913981526020016040518060600160405280603a8152602001613465603a913981526020016040518060600160405280602c815260200161349f602c913981526020016040518060600160405280602e81526020016133a9602e91398152602001604051806060016040528060338152602001612fbd6033913981526020016040518060600160405280602d815260200161316c602d913981526020016040518060600160405280602c8152602001613266602c913981526020016040518060400160405280601d81526020017f4120626f6f6b2074686174206d61646520796f752075676c792063727900000081525081526020016040518060600160405280602581526020016132176025913981526020016040518060600160405280602c81526020016131c1602c913981526020016040518060600160405280602c8152602001613439602c913981526020016040518060600160405280602481526020016133646024913981526020016040518060600160405280602981526020016132f26029913981526020016040518060600160405280602181526020016133886021913981526020016040518060600160405280602a81526020016131ed602a913981526020016040518060600160405280602e815260200161313e602e91398152602001604051806060016040528060278152602001612ff06027913981526020016040518060600160405280602c81526020016130b5602c913981526020016040518060600160405280602881526020016131996028913981526020016040518060600160405280602c8152602001613292602c913981526020016040518060600160405280602a815260200161323c602a913981526020016040518060600160405280602b81526020016133d7602b9139815260200160405180606001604052806025815260200161333f6025913981526020016040518060600160405280602f81526020016130e1602f9139815260200160405180606001604052806024815260200161331b602491399052610b0190600b90601e610f34565b506040805161040081018252600a6103c08201818152694368617261637465727360b01b6103e0840152825282518084018452600b8082526a506c6f742054776973747360a81b602083810191909152808501929092528451808601865260068082526551756f74657360d01b82850152858701919091528551808701875281815265125b5c1858dd60d21b818501526060860152855180870187528281526a48696464656e2047656d7360a81b818501526080860152855180870187526009808252684e6f7374616c67696160b81b8286015260a087019190915286518088018852600d8082526c2137b7b5902430b733b7bb32b960991b8287015260c088019190915287518089018952600780825266417574686f727360c81b8288015260e08901919091528851808a018a528381526810dbdd995c88105c9d60ba1b818801526101008901528851808a018a52600e81526d576f726c64204275696c64696e6760901b818801526101208901528851808a018a52600881526756696c6c61696e7360c01b818801526101408901528851808a018a5283815268115b5bdd1a5bdb985b60ba1b818801526101608901528851808a018a528381526853616420526561647360b81b818801526101808901528851808a018a528581526a46756e6e7920526561647360a81b818801526101a08901528851808a018a528281526c57726974696e67205374796c6560981b818801526101c08901528851808a018a5281815266456e64696e677360c81b818801526101e08901528851808a018a528781526952652d72656164696e6760b01b818801526102008901528851808a018a528581526a436f6e66657373696f6e7360a81b818801526102208901528851808a018a52601081526f4775696c747920506c6561737572657360801b818801526102408901528851808a018a529182526c4d616769632053797374656d7360981b82870152610260880191909152875180890189528281526852656c617461626c6560b81b8187015261028088015287518089018952958652690467269656e64736869760b41b868601526102a0870195909552865180880188528281526520b1ba34b7b760d11b818601526102c08701528651808801885294855266526f6d616e636560c81b858501526102e08601949094528551808701875260058152645374796c6560d81b818501526103008601528551808701875284815268536c6565706c65737360b81b81850152610320860152855180870187529182526a41646170746174696f6e7360a81b828401526103408501919091528451808601865283815268486f742054616b657360b81b818401526103608501528451808601865292835268446973636f7665727960b81b8383015261038084019290925283518085019094529083526553657269657360d01b908301526103a0810191909152610f3190600c90601e610f34565b50565b828054828255905f5260205f20908101928215610f78579160200282015b82811115610f785782518290610f6890826110af565b5091602001919060010190610f52565b50610f84929150610f88565b5090565b80821115610f84575f610f9b8282610fa4565b50600101610f88565b508054610fb09061102b565b5f825580601f10610fbf575050565b601f0160209004905f5260205f2090810190610f3191905b80821115610f84575f8155600101610fd7565b5f60208284031215610ffa575f5ffd5b81516001600160a01b0381168114611010575f5ffd5b9392505050565b634e487b7160e01b5f52604160045260245ffd5b600181811c9082168061103f57607f821691505b60208210810361105d57634e487b7160e01b5f52602260045260245ffd5b50919050565b601f8211156110aa57805f5260205f20601f840160051c810160208510156110885750805b601f840160051c820191505b818110156110a7575f8155600101611094565b50505b505050565b81516001600160401b038111156110c8576110c8611017565b6110dc816110d6845461102b565b84611063565b6020601f82116001811461110e575f83156110f75750848201515b5f19600385901b1c1916600184901b1784556110a7565b5f84815260208120601f198516915b8281101561113d578785015182556020948501946001909201910161111d565b508482101561115a57868401515f19600387901b60f8161c191681555b50505050600190811b01905550565b608051611e2e61118f5f395f81816102c8015281816109020152610f6b0152611e2e5ff3fe608060405234801561000f575f5ffd5b5060043610610111575f3560e01c806391d148541161009e578063a65257811161006e578063a652578114610275578063d547741f14610295578063d71cbab2146102a8578063e70788aa146102bb578063ec7fee26146102c3575f5ffd5b806391d148541461020c5780639a49f18f1461021f5780639d1de1f914610244578063a217fddf1461026e575f5ffd5b80632f2ff15d116100e45780632f2ff15d146101a457806336568abe146101b957806346a02367146101cc57806351bdd585146101df578063779cb342146101f9575f5ffd5b806301ffc9a714610115578063094e7c7c1461013d578063202eaa9c1461015f578063248a9ca314610174575b5f5ffd5b6101286101233660046116ae565b610302565b60405190151581526020015b60405180910390f35b61012861014b3660046116dc565b60096020525f908152604090205460ff1681565b610167610338565b6040516101349190611721565b6101966101823660046116dc565b5f9081526020819052604090206001015490565b604051908152602001610134565b6101b76101b23660046117bd565b61054a565b005b6101b76101c73660046117bd565b610574565b6101286101da3660046117e7565b6105ac565b6101e76105eb565b60405161013496959493929190611800565b6101b7610207366004611896565b6107a2565b61012861021a3660046117bd565b610b0d565b61023261022d3660046117bd565b610b35565b60405161013496959493929190611902565b6102576102523660046117bd565b610cb5565b604080519215158352602083019190915201610134565b6101965f81565b6102886102833660046116dc565b610cef565b6040516101349190611956565b6101b76102a33660046117bd565b610d58565b6101b76102b63660046117e7565b610d7c565b6101b761119a565b6102ea7f000000000000000000000000000000000000000000000000000000000000000081565b6040516001600160a01b039091168152602001610134565b5f6001600160e01b03198216637965db0b60e01b148061033257506301ffc9a760e01b6001600160e01b03198316145b92915050565b61036e6040518060c001604052805f81526020015f81526020016060815260200160608152602001606081526020015f81525090565b6040805160c081018252600180548252600254602083015260038054929391929184019161039b906119a1565b80601f01602080910402602001604051908101604052809291908181526020018280546103c7906119a1565b80156104125780601f106103e957610100808354040283529160200191610412565b820191905f5260205f20905b8154815290600101906020018083116103f557829003601f168201915b5050505050815260200160038201805461042b906119a1565b80601f0160208091040260200160405190810160405280929190818152602001828054610457906119a1565b80156104a25780601f10610479576101008083540402835291602001916104a2565b820191905f5260205f20905b81548152906001019060200180831161048557829003601f168201915b505050505081526020016004820180546104bb906119a1565b80601f01602080910402602001604051908101604052809291908181526020018280546104e7906119a1565b80156105325780601f1061050957610100808354040283529160200191610532565b820191905f5260205f20905b81548152906001019060200180831161051557829003601f168201915b50505050508152602001600582015481525050905090565b5f828152602081905260409020600101546105648161156c565b61056e8383611579565b50505050565b6001600160a01b038116331461059d5760405163334bd91960e11b815260040160405180910390fd5b6105a78282611608565b505050565b5f806105bb6201518042611a01565b5f9081526007602090815260408083206001600160a01b0390961683529490529290922060030154151592915050565b600180546002546003805492939192610603906119a1565b80601f016020809104026020016040519081016040528092919081815260200182805461062f906119a1565b801561067a5780601f106106515761010080835404028352916020019161067a565b820191905f5260205f20905b81548152906001019060200180831161065d57829003601f168201915b50505050509080600301805461068f906119a1565b80601f01602080910402602001604051908101604052809291908181526020018280546106bb906119a1565b80156107065780601f106106dd57610100808354040283529160200191610706565b820191905f5260205f20905b8154815290600101906020018083116106e957829003601f168201915b50505050509080600401805461071b906119a1565b80601f0160208091040260200160405190810160405280929190818152602001828054610747906119a1565b80156107925780601f1061076957610100808354040283529160200191610792565b820191905f5260205f20905b81548152906001019060200180831161077557829003601f168201915b5050505050908060050154905086565b5f6107b06201518042611a01565b5f8181526009602052604090205490915060ff166108155760405162461bcd60e51b815260206004820152601d60248201527f4e6f20616374697665206368616c6c656e676520666f7220746f64617900000060448201526064015b60405180910390fd5b836108625760405162461bcd60e51b815260206004820152601960248201527f4950465320686173682063616e6e6f7420626520656d70747900000000000000604482015260640161080c565b816108a75760405162461bcd60e51b815260206004820152601560248201527451756f74652063616e6e6f7420626520656d70747960581b604482015260640161080c565b60015481146108ed5760405162461bcd60e51b8152602060048201526012602482015271086d0c2d8d8cadcceca40dad2e6dac2e8c6d60731b604482015260640161080c565b604051634c3f70ab60e11b81523360048201527f0000000000000000000000000000000000000000000000000000000000000000905f906001600160a01b0383169063987ee156906024015f60405180830381865afa158015610952573d5f5f3e3d5ffd5b505050506040513d5f823e601f3d908101601f191682016040526109799190810190611a28565b505050505090505f8151116109c55760405162461bcd60e51b8152602060048201526012602482015271135d5cdd081899481a5b8818481cdc5d585960721b604482015260640161080c565b5f83815260076020908152604080832033845290915290206003015415610a2e5760405162461bcd60e51b815260206004820152601760248201527f416c7265616479207375626d697474656420746f646179000000000000000000604482015260640161080c565b5f83815260076020908152604080832033808552925290912080546001600160a01b031916909117815560018101610a67888a83611b49565b5060028101610a77868883611b49565b5042600382015560048101805460ff191690555f600582018190558481526008602090815260408083208054600181018255908452919092200180546001600160a01b03191633908117909155905185907f27560c6c8bca909b2e51d07c7bffdf561304be51489e84a8480c04b68587d50090610afb908c908c908c908c90611c2b565b60405180910390a35050505050505050565b5f918252602082815260408084206001600160a01b0393909316845291905290205460ff1690565b5f8281526007602090815260408083206001600160a01b03808616855292528220805460038201546004830154600584015460018501805460609788978a9788978897929691909316949360028701939260ff1691908590610b96906119a1565b80601f0160208091040260200160405190810160405280929190818152602001828054610bc2906119a1565b8015610c0d5780601f10610be457610100808354040283529160200191610c0d565b820191905f5260205f20905b815481529060010190602001808311610bf057829003601f168201915b50505050509450838054610c20906119a1565b80601f0160208091040260200160405190810160405280929190818152602001828054610c4c906119a1565b8015610c975780601f10610c6e57610100808354040283529160200191610c97565b820191905f5260205f20905b815481529060010190602001808311610c7a57829003601f168201915b50505050509350965096509650965096509650509295509295509295565b5f8281526007602090815260408083206001600160a01b03851684529091529020600481015460059091015460ff909116905b9250929050565b5f81815260086020908152604091829020805483518184028101840190945280845260609392830182828015610d4c57602002820191905f5260205f20905b81546001600160a01b03168152600190910190602001808311610d2e575b50505050509050919050565b5f82815260208190526040902060010154610d728161156c565b61056e8383611608565b5f610d8a6201518042611a01565b5f8181526009602052604090205490915060ff16610dea5760405162461bcd60e51b815260206004820152601d60248201527f4e6f20616374697665206368616c6c656e676520666f7220746f646179000000604482015260640161080c565b336001600160a01b03831603610e3b5760405162461bcd60e51b815260206004820152601660248201527521b0b73737ba103b32b934b33c903cb7bab939b2b63360511b604482015260640161080c565b5f8181526007602090815260408083206001600160a01b038616845290915290206003810154610ead5760405162461bcd60e51b815260206004820152601860248201527f5375626d697373696f6e20646f65736e27742065786973740000000000000000604482015260640161080c565b600481015460ff1615610ef55760405162461bcd60e51b815260206004820152601060248201526f105b1c9958591e481d995c9a599a595960821b604482015260640161080c565b335f90815260068201602052604090205460ff1615610f565760405162461bcd60e51b815260206004820181905260248201527f416c72656164792076657269666965642074686973207375626d697373696f6e604482015260640161080c565b604051634c3f70ab60e11b81523360048201527f0000000000000000000000000000000000000000000000000000000000000000905f906001600160a01b0383169063987ee156906024015f60405180830381865afa158015610fbb573d5f5f3e3d5ffd5b505050506040513d5f823e601f3d908101601f19168201604052610fe29190810190611a28565b505050505090505f81511161102e5760405162461bcd60e51b8152602060048201526012602482015271135d5cdd081899481a5b8818481cdc5d585960721b604482015260640161080c565b600583018054905f61103f83611c5c565b9091555050335f81815260068501602052604090819020805460ff19166001179055600585015490516001600160a01b0388169187917f1ada978fe54dee6f7768652e1560787252a3023be4da48791768b4849572077a916110a49190815260200190565b60405180910390a460018360050154101580156110c65750600483015460ff16155b15611193576004808401805460ff1916600117905560065460405163507cd30f60e01b81526001600160a01b0385169263507cd30f9261111c928a92016001600160a01b03929092168252602082015260400190565b5f604051808303815f87803b158015611133575f5ffd5b505af1158015611145573d5f5f3e3d5ffd5b50505050846001600160a01b0316847f0dbadce3c07b5bc30ebbe2bcec3d6bb95f9b3a0bb33178ff0d61e4d7d433991560016005015460405161118a91815260200190565b60405180910390a35b5050505050565b5f6111a86201518042611a01565b5f8181526009602052604090205490915060ff16156112095760405162461bcd60e51b815260206004820181905260248201527f546f6461792773206368616c6c656e676520616c726561647920657869737473604482015260640161080c565b604080514260208083019190915244828401524360608084019190915233901b6bffffffffffffffffffffffff191660808301528251808303607401815260949092019092528051910120600a545f906112639083611c74565b90505f611271601f84611c74565b61127c906014611c87565b90506040518060c00160405280858152602001600a8461129c9190611c74565b8152602001600a84815481106112b4576112b4611c9a565b905f5260205f200180546112c7906119a1565b80601f01602080910402602001604051908101604052809291908181526020018280546112f3906119a1565b801561133e5780601f106113155761010080835404028352916020019161133e565b820191905f5260205f20905b81548152906001019060200180831161132157829003601f168201915b50505050508152602001600b848154811061135b5761135b611c9a565b905f5260205f2001805461136e906119a1565b80601f016020809104026020016040519081016040528092919081815260200182805461139a906119a1565b80156113e55780601f106113bc576101008083540402835291602001916113e5565b820191905f5260205f20905b8154815290600101906020018083116113c857829003601f168201915b50505050508152602001600c848154811061140257611402611c9a565b905f5260205f20018054611415906119a1565b80601f0160208091040260200160405190810160405280929190818152602001828054611441906119a1565b801561148c5780601f106114635761010080835404028352916020019161148c565b820191905f5260205f20905b81548152906001019060200180831161146f57829003601f168201915b50505091835250506020908101839052815160019081559082015160025560408201516003906114bc9082611cae565b50606082015160038201906114d19082611cae565b50608082015160048201906114e69082611cae565b5060a091909101516005909101555f848152600960205260409020805460ff19166001179055600a8054839186917fa928db95b00adb996b75f8aa88e66ae0a597a661a2666831e7efa49e4afff68591908490811061154757611547611c9a565b905f5260205f20018460405161155e929190611d69565b60405180910390a350505050565b6115768133611671565b50565b5f6115848383610b0d565b611601575f838152602081815260408083206001600160a01b03861684529091529020805460ff191660011790556115b93390565b6001600160a01b0316826001600160a01b0316847f2f8788117e7eff1d82e926ec794901d17c78024a50270940304540a733656f0d60405160405180910390a4506001610332565b505f610332565b5f6116138383610b0d565b15611601575f838152602081815260408083206001600160a01b0386168085529252808320805460ff1916905551339286917ff6391f5c32d9c69d2a47ea670b442974b53935d1edc7fd64eb21e047a839171b9190a4506001610332565b61167b8282610b0d565b6116aa5760405163e2517d3f60e01b81526001600160a01b03821660048201526024810183905260440161080c565b5050565b5f602082840312156116be575f5ffd5b81356001600160e01b0319811681146116d5575f5ffd5b9392505050565b5f602082840312156116ec575f5ffd5b5035919050565b5f81518084528060208401602086015e5f602082860101526020601f19601f83011685010191505092915050565b6020815281516020820152602082015160408201525f604083015160c0606084015261175060e08401826116f3565b90506060840151601f1984830301608085015261176d82826116f3565b9150506080840151601f198483030160a085015261178b82826116f3565b91505060a084015160c08401528091505092915050565b80356001600160a01b03811681146117b8575f5ffd5b919050565b5f5f604083850312156117ce575f5ffd5b823591506117de602084016117a2565b90509250929050565b5f602082840312156117f7575f5ffd5b6116d5826117a2565b86815285602082015260c060408201525f61181e60c08301876116f3565b828103606084015261183081876116f3565b9050828103608084015261184481866116f3565b9150508260a0830152979650505050505050565b5f5f83601f840112611868575f5ffd5b50813567ffffffffffffffff81111561187f575f5ffd5b602083019150836020828501011115610ce8575f5ffd5b5f5f5f5f604085870312156118a9575f5ffd5b843567ffffffffffffffff8111156118bf575f5ffd5b6118cb87828801611858565b909550935050602085013567ffffffffffffffff8111156118ea575f5ffd5b6118f687828801611858565b95989497509550505050565b6001600160a01b038716815260c0602082018190525f90611925908301886116f3565b828103604084015261193781886116f3565b60608401969096525050911515608083015260a0909101529392505050565b602080825282518282018190525f918401906040840190835b818110156119965783516001600160a01b031683526020938401939092019160010161196f565b509095945050505050565b600181811c908216806119b557607f821691505b6020821081036119d357634e487b7160e01b5f52602260045260245ffd5b50919050565b634e487b7160e01b5f52601260045260245ffd5b634e487b7160e01b5f52601160045260245ffd5b5f82611a0f57611a0f6119d9565b500490565b634e487b7160e01b5f52604160045260245ffd5b5f5f5f5f5f5f60c08789031215611a3d575f5ffd5b865167ffffffffffffffff811115611a53575f5ffd5b8701601f81018913611a63575f5ffd5b805167ffffffffffffffff811115611a7d57611a7d611a14565b604051601f8201601f19908116603f0116810167ffffffffffffffff81118282101715611aac57611aac611a14565b6040528181528282016020018b1015611ac3575f5ffd5b8160208401602083015e5f60209282018301529089015160408a015160608b015160808c015160a0909c0151939d929c50909a90995097509095509350505050565b601f8211156105a757805f5260205f20601f840160051c81016020851015611b2a5750805b601f840160051c820191505b81811015611193575f8155600101611b36565b67ffffffffffffffff831115611b6157611b61611a14565b611b7583611b6f83546119a1565b83611b05565b5f601f841160018114611ba6575f8515611b8f5750838201355b5f19600387901b1c1916600186901b178355611193565b5f83815260208120601f198716915b82811015611bd55786850135825560209485019460019092019101611bb5565b5086821015611bf1575f1960f88860031b161c19848701351681555b505060018560011b0183555050505050565b81835281816020850137505f828201602090810191909152601f909101601f19169091010190565b604081525f611c3e604083018688611c03565b8281036020840152611c51818587611c03565b979650505050505050565b5f60018201611c6d57611c6d6119ed565b5060010190565b5f82611c8257611c826119d9565b500690565b80820180821115610332576103326119ed565b634e487b7160e01b5f52603260045260245ffd5b815167ffffffffffffffff811115611cc857611cc8611a14565b611cdc81611cd684546119a1565b84611b05565b6020601f821160018114611d0e575f8315611cf75750848201515b5f19600385901b1c1916600184901b178455611193565b5f84815260208120601f198516915b82811015611d3d5787850151825560209485019460019092019101611d1d565b5084821015611d5a57868401515f19600387901b60f8161c191681555b50505050600190811b01905550565b604081525f5f8454611d7a816119a1565b806040860152600182165f8114611d985760018114611db457611de5565b60ff1983166060870152606082151560051b8701019350611de5565b875f5260205f205f5b83811015611ddc57815488820160600152600190910190602001611dbd565b87016060019450505b505050602092909201929092529291505056fea264697066735822122049b215f556d6d0198ede17e43f4c9268c51b8bd35ef7968c5bc74346e5d0d4b064736f6c634300081e003357686963682066696374696f6e616c20706c61636520776f756c6420796f75206d6f73742077616e7420746f2076697369743f536861726520796f7572206661766f72697465206c6974657261727920667269656e64736869704120626f6f6b2066726f6d20796f7572206368696c64686f6f64207468617420796f75207374696c6c206c6f7665446573637269626520796f7572206661766f7269746520626f6f6b2063686172616374657220616e64207768792074686579207265736f6e617465207769746820796f754120626f6f6b2074686174206368616e67656420796f7572207065727370656374697665206f6e206c696665446573637269626520616e206570696320626174746c652074686174206761766520796f75206368696c6c735265636f6d6d656e6420612068696464656e2067656d20796f7520646973636f766572656420746869732079656172506f737420612071756f74652074686174206c697665732072656e742d6672656520696e20796f7572206865616457686963682063686172616374657220646f20796f752072656c61746520746f206d6f737420616e64207768793f446573637269626520612076696c6c61696e20796f7520636f756c646e27742068656c7020627574206c6f766554656c6c2075732061626f757420796f7572206661766f7269746520626f6f6b20726f6d616e63655368617265207468652062657374206f70656e696e67206c696e6520796f75277665206576657220726561644120626f6f6b207769746820746865206d6f7374206372656174697665206d616769632073797374656d4120626f6f6b20746861742068616420796f75206c61756768696e67206f7574206c6f75644120626f6f6b2074686174206b65707420796f752072656164696e6720756e74696c2073756e7269736553686172652061207363656e65207468617420656d6f74696f6e616c6c792064657374726f79656420796f755768617420626f6f6b2068617320746865206d6f737420756e697175652077726974696e67207374796c653f5265636f6d6d656e6420616e20756e646572726174656420626f6f6b206d6f72652070656f706c652073686f756c6420726561644120626f6f6b20796f7520636f756c646e27742066696e69736820286e6f206a7564676d656e7421295768696368207365726965732068616420746865207065726665637420656e64696e673f4120706f70756c617220626f6f6b20796f75207468696e6b206973206f76657272617465644120626f6f6b20796f752776652072656164206d6f7265207468616e20332074696d657357686174277320796f7572206775696c747920706c65617375726520726561643f5368617265206120626f6f6b20636f766572207468617420796f75207468696e6b2069732062656175746966756c576869636820626f6f6b2061646170746174696f6e206469642074686520626f6f6b206a7573746963653f5368617265206120706c6f7420747769737420746861742063617567687420796f7520636f6d706c6574656c79206f6666206775617264416e20656e64696e672074686174206c65667420796f7520636f6d706c6574656c79207361746973666965644120626f6f6b2074686174206c65667420796f7520756e61626c6520746f207265616420616e797468696e6720656c736520666f72206461797354656c6c2075732061626f757420616e20617574686f722077686f736520776f726b20796f752061646f7265","linkReferences":{}},"methodIdentifiers":{"DEFAULT_ADMIN_ROLE()":"a217fddf","currentChallenge()":"51bdd585","dayGenerated(uint256)":"094e7c7c","generateDailyChallenge()":"e70788aa","getCurrentChallenge()":"202eaa9c","getDailyParticipants(uint256)":"a6525781","getDailySubmission(uint256,address)":"9a49f18f","getRoleAdmin(bytes32)":"248a9ca3","getVerificationStatus(uint256,address)":"9d1de1f9","grantRole(bytes32,address)":"2f2ff15d","hasRole(bytes32,address)":"91d14854","hasSubmittedToday(address)":"46a02367","renounceRole(bytes32,address)":"36568abe","revokeRole(bytes32,address)":"d547741f","squadManagerAddress()":"ec7fee26","submitDailyChallenge(string,string)":"779cb342","supportsInterface(bytes4)":"01ffc9a7","verifyDailySubmission(address)":"d71cbab2"},"id":35}