{"abi":[{"type":"constructor","inputs":[{"name":"_squadManager","type":"address","internalType":"address"}],"stateMutability":"nonpayable"},{"type":"receive","stateMutability":"payable"},{"type":"function","name":"CHALLENGE_DURATION","inputs":[],"outputs":[{"name":"","type":"uint256","internalType":"uint256"}],"stateMutability":"view"},{"type":"function","name":"CHALLENGE_ENTRY_FEE","inputs":[],"outputs":[{"name":"","type":"uint256","internalType":"uint256"}],"stateMutability":"view"},{"type":"function","name":"MIN_SPONSOR_AMOUNT","inputs":[],"outputs":[{"name":"","type":"uint256","internalType":"uint256"}],"stateMutability":"view"},{"type":"function","name":"REVIEW_SUBMISSION_WINDOW","inputs":[],"outputs":[{"name":"","type":"uint256","internalType":"uint256"}],"stateMutability":"view"},{"type":"function","name":"VOTES_REQUIRED","inputs":[],"outputs":[{"name":"","type":"uint256","internalType":"uint256"}],"stateMutability":"view"},{"type":"function","name":"VOTING_DURATION","inputs":[],"outputs":[{"name":"","type":"uint256","internalType":"uint256"}],"stateMutability":"view"},{"type":"function","name":"VOTING_REWARD","inputs":[],"outputs":[{"name":"","type":"uint256","internalType":"uint256"}],"stateMutability":"view"},{"type":"function","name":"bookProposals","inputs":[{"name":"","type":"uint256","internalType":"uint256"}],"outputs":[{"name":"title","type":"string","internalType":"string"},{"name":"author","type":"string","internalType":"string"},{"name":"proposer","type":"address","internalType":"address"},{"name":"votes","type":"uint256","internalType":"uint256"},{"name":"executed","type":"bool","internalType":"bool"},{"name":"sponsor","type":"address","internalType":"address"},{"name":"sponsorAmount","type":"uint256","internalType":"uint256"}],"stateMutability":"view"},{"type":"function","name":"challengeParticipants","inputs":[{"name":"","type":"uint256","internalType":"uint256"},{"name":"","type":"uint256","internalType":"uint256"}],"outputs":[{"name":"","type":"address","internalType":"address"}],"stateMutability":"view"},{"type":"function","name":"challengeReviews","inputs":[{"name":"","type":"uint256","internalType":"uint256"},{"name":"","type":"uint256","internalType":"uint256"}],"outputs":[{"name":"user","type":"address","internalType":"address"},{"name":"ipfsHash","type":"string","internalType":"string"},{"name":"timestamp","type":"uint256","internalType":"uint256"},{"name":"upvotes","type":"uint256","internalType":"uint256"}],"stateMutability":"view"},{"type":"function","name":"challenges","inputs":[{"name":"","type":"uint256","internalType":"uint256"}],"outputs":[{"name":"id","type":"uint256","internalType":"uint256"},{"name":"bookTitle","type":"string","internalType":"string"},{"name":"bookAuthor","type":"string","internalType":"string"},{"name":"startTime","type":"uint256","internalType":"uint256"},{"name":"endTime","type":"uint256","internalType":"uint256"},{"name":"prizePool","type":"uint256","internalType":"uint256"},{"name":"sponsor","type":"address","internalType":"address"},{"name":"sponsorAmount","type":"uint256","internalType":"uint256"},{"name":"rewardsDistributed","type":"bool","internalType":"bool"}],"stateMutability":"view"},{"type":"function","name":"completeChallenge","inputs":[{"name":"challengeId","type":"uint256","internalType":"uint256"}],"outputs":[],"stateMutability":"nonpayable"},{"type":"function","name":"depositRewards","inputs":[],"outputs":[],"stateMutability":"payable"},{"type":"function","name":"executeBookProposal","inputs":[{"name":"proposalId","type":"uint256","internalType":"uint256"}],"outputs":[],"stateMutability":"nonpayable"},{"type":"function","name":"getActiveChallenges","inputs":[],"outputs":[{"name":"","type":"uint256[]","internalType":"uint256[]"}],"stateMutability":"view"},{"type":"function","name":"getActiveProposals","inputs":[],"outputs":[{"name":"","type":"uint256[]","internalType":"uint256[]"}],"stateMutability":"view"},{"type":"function","name":"getChallenge","inputs":[{"name":"challengeId","type":"uint256","internalType":"uint256"}],"outputs":[{"name":"id","type":"uint256","internalType":"uint256"},{"name":"bookTitle","type":"string","internalType":"string"},{"name":"bookAuthor","type":"string","internalType":"string"},{"name":"startTime","type":"uint256","internalType":"uint256"},{"name":"endTime","type":"uint256","internalType":"uint256"},{"name":"prizePool","type":"uint256","internalType":"uint256"},{"name":"sponsor","type":"address","internalType":"address"},{"name":"rewardsDistributed","type":"bool","internalType":"bool"},{"name":"participantCount","type":"uint256","internalType":"uint256"}],"stateMutability":"view"},{"type":"function","name":"getParticipants","inputs":[{"name":"challengeId","type":"uint256","internalType":"uint256"}],"outputs":[{"name":"","type":"address[]","internalType":"address[]"}],"stateMutability":"view"},{"type":"function","name":"getPendingRewards","inputs":[{"name":"user","type":"address","internalType":"address"}],"outputs":[{"name":"","type":"uint256","internalType":"uint256"}],"stateMutability":"view"},{"type":"function","name":"getProposal","inputs":[{"name":"proposalId","type":"uint256","internalType":"uint256"}],"outputs":[{"name":"title","type":"string","internalType":"string"},{"name":"author","type":"string","internalType":"string"},{"name":"proposer","type":"address","internalType":"address"},{"name":"votes","type":"uint256","internalType":"uint256"},{"name":"executed","type":"bool","internalType":"bool"},{"name":"sponsor","type":"address","internalType":"address"},{"name":"sponsorAmount","type":"uint256","internalType":"uint256"}],"stateMutability":"view"},{"type":"function","name":"getReviews","inputs":[{"name":"challengeId","type":"uint256","internalType":"uint256"}],"outputs":[{"name":"users","type":"address[]","internalType":"address[]"},{"name":"ipfsHashes","type":"string[]","internalType":"string[]"},{"name":"upvotes","type":"uint256[]","internalType":"uint256[]"}],"stateMutability":"view"},{"type":"function","name":"hasJoinedChallenge","inputs":[{"name":"","type":"uint256","internalType":"uint256"},{"name":"","type":"address","internalType":"address"}],"outputs":[{"name":"","type":"bool","internalType":"bool"}],"stateMutability":"view"},{"type":"function","name":"hasVotedOnProposal","inputs":[{"name":"","type":"address","internalType":"address"},{"name":"","type":"uint256","internalType":"uint256"}],"outputs":[{"name":"","type":"bool","internalType":"bool"}],"stateMutability":"view"},{"type":"function","name":"joinChallenge","inputs":[{"name":"challengeId","type":"uint256","internalType":"uint256"}],"outputs":[],"stateMutability":"payable"},{"type":"function","name":"owner","inputs":[],"outputs":[{"name":"","type":"address","internalType":"address"}],"stateMutability":"view"},{"type":"function","name":"pendingRewards","inputs":[{"name":"","type":"address","internalType":"address"}],"outputs":[{"name":"","type":"uint256","internalType":"uint256"}],"stateMutability":"view"},{"type":"function","name":"proposeBook","inputs":[{"name":"title","type":"string","internalType":"string"},{"name":"author","type":"string","internalType":"string"}],"outputs":[],"stateMutability":"nonpayable"},{"type":"function","name":"renounceOwnership","inputs":[],"outputs":[],"stateMutability":"nonpayable"},{"type":"function","name":"rewardPool","inputs":[],"outputs":[{"name":"","type":"uint256","internalType":"uint256"}],"stateMutability":"view"},{"type":"function","name":"sponsorBook","inputs":[{"name":"proposalId","type":"uint256","internalType":"uint256"}],"outputs":[],"stateMutability":"payable"},{"type":"function","name":"squadManager","inputs":[],"outputs":[{"name":"","type":"address","internalType":"contract ISquadManager"}],"stateMutability":"view"},{"type":"function","name":"submitReview","inputs":[{"name":"challengeId","type":"uint256","internalType":"uint256"},{"name":"ipfsHash","type":"string","internalType":"string"}],"outputs":[],"stateMutability":"nonpayable"},{"type":"function","name":"transferOwnership","inputs":[{"name":"newOwner","type":"address","internalType":"address"}],"outputs":[],"stateMutability":"nonpayable"},{"type":"function","name":"userReviewIndex","inputs":[{"name":"","type":"uint256","internalType":"uint256"},{"name":"","type":"address","internalType":"address"}],"outputs":[{"name":"","type":"uint256","internalType":"uint256"}],"stateMutability":"view"},{"type":"function","name":"voteForReview","inputs":[{"name":"challengeId","type":"uint256","internalType":"uint256"},{"name":"reviewId","type":"uint256","internalType":"uint256"}],"outputs":[],"stateMutability":"nonpayable"},{"type":"function","name":"voteOnBook","inputs":[{"name":"proposalId","type":"uint256","internalType":"uint256"}],"outputs":[],"stateMutability":"nonpayable"},{"type":"function","name":"withdrawRewards","inputs":[],"outputs":[],"stateMutability":"nonpayable"},{"type":"event","name":"BookProposed","inputs":[{"name":"proposalId","type":"uint256","indexed":true,"internalType":"uint256"},{"name":"title","type":"string","indexed":false,"internalType":"string"},{"name":"author","type":"string","indexed":false,"internalType":"string"},{"name":"proposer","type":"address","indexed":true,"internalType":"address"}],"anonymous":false},{"type":"event","name":"BookSelected","inputs":[{"name":"proposalId","type":"uint256","indexed":true,"internalType":"uint256"},{"name":"title","type":"string","indexed":false,"internalType":"string"},{"name":"author","type":"string","indexed":false,"internalType":"string"}],"anonymous":false},{"type":"event","name":"BookVoted","inputs":[{"name":"proposalId","type":"uint256","indexed":true,"internalType":"uint256"},{"name":"voter","type":"address","indexed":true,"internalType":"address"}],"anonymous":false},{"type":"event","name":"ChallengeCompleted","inputs":[{"name":"challengeId","type":"uint256","indexed":true,"internalType":"uint256"},{"name":"winners","type":"address[]","indexed":false,"internalType":"address[]"},{"name":"totalPrize","type":"uint256","indexed":false,"internalType":"uint256"}],"anonymous":false},{"type":"event","name":"ChallengeCreated","inputs":[{"name":"challengeId","type":"uint256","indexed":true,"internalType":"uint256"},{"name":"bookTitle","type":"string","indexed":false,"internalType":"string"},{"name":"bookAuthor","type":"string","indexed":false,"internalType":"string"},{"name":"prizePool","type":"uint256","indexed":false,"internalType":"uint256"}],"anonymous":false},{"type":"event","name":"ChallengeJoined","inputs":[{"name":"challengeId","type":"uint256","indexed":true,"internalType":"uint256"},{"name":"user","type":"address","indexed":true,"internalType":"address"}],"anonymous":false},{"type":"event","name":"OwnershipTransferred","inputs":[{"name":"previousOwner","type":"address","indexed":true,"internalType":"address"},{"name":"newOwner","type":"address","indexed":true,"internalType":"address"}],"anonymous":false},{"type":"event","name":"ReviewSubmitted","inputs":[{"name":"challengeId","type":"uint256","indexed":true,"internalType":"uint256"},{"name":"reviewId","type":"uint256","indexed":false,"internalType":"uint256"},{"name":"user","type":"address","indexed":true,"internalType":"address"},{"name":"ipfsHash","type":"string","indexed":false,"internalType":"string"}],"anonymous":false},{"type":"event","name":"RewardAdded","inputs":[{"name":"user","type":"address","indexed":true,"internalType":"address"},{"name":"amount","type":"uint256","indexed":false,"internalType":"uint256"},{"name":"reason","type":"string","indexed":false,"internalType":"string"}],"anonymous":false},{"type":"event","name":"RewardWithdrawn","inputs":[{"name":"user","type":"address","indexed":true,"internalType":"address"},{"name":"amount","type":"uint256","indexed":false,"internalType":"uint256"}],"anonymous":false},{"type":"event","name":"SponsorAdded","inputs":[{"name":"proposalId","type":"uint256","indexed":true,"internalType":"uint256"},{"name":"sponsor","type":"address","indexed":true,"internalType":"address"},{"name":"amount","type":"uint256","indexed":false,"internalType":"uint256"}],"anonymous":false},{"type":"event","name":"Voted","inputs":[{"name":"challengeId","type":"uint256","indexed":true,"internalType":"uint256"},{"name":"reviewId","type":"uint256","indexed":false,"internalType":"uint256"},{"name":"voter","type":"address","indexed":true,"internalType":"address"},{"name":"author","type":"address","indexed":true,"internalType":"address"}],"anonymous":false},{"type":"error","name":"OwnableInvalidOwner","inputs":[{"name":"owner","type":"address","internalType":"address"}]},{"type":"error","name":"OwnableUnauthorizedAccount","inputs":[{"name":"account","type":"address","internalType":"address"}]},{"type":"error","name":"ReentrancyGuardReentrantCall","inputs":[]}],"bytecode":{"object":"0x60803461014157601f612ec238819003918201601f19168301916001600160401b038311848410176101455780849260209460405283398101031261014157516001600160a01b0381169081900361014157331561012e575f8054336001600160a01b03198216811783556040519290916001600160a01b0316907f8be0079c531659141344cd1fd0a4f28419497f9722a3daafe3b4186f6b6457e09080a360017f9b779b17422d0df92223018b32b4d1fa46e071723d6817e2486d003becc55f005581156100ec5750600180546001600160a01b031916919091179055604051612d68908161015a8239f35b62461bcd60e51b815260206004820152601c60248201527f496e76616c69642053717561644d616e616765722061646472657373000000006044820152606490fd5b631e4fbdf760e01b5f525f60045260245ffd5b5f80fd5b634e487b7160e01b5f52604160045260245ffdfe60806040526004361015610029575b3615610018575f80fd5b61002434600954612278565b600955005b5f3560e01c8063152111f714611f7257806319a347c314611ef55780631bdd4b7414611e3f5780631f47991e14611d53578063284aaa3314611d0a5780632c7a0718146118d55780632da463851461188c57806331d7a262146102105780634192f8de146112ed5780635584c4f9146117d257806358e6b809146117b25780635ba723e1146116b95780635cf9a0ca1461169e578063603965611461162357806366666aa91461160657806367ab845b146115eb578063715018a61461159457806385c993ed146112f25780638d3de3ba146112ed5780638da5cb5b146112c65780638f1d3776146112025780638fce0679146110e35780639d4a225514610f6b578063a438d20814610f50578063a7817bbc14610bb4578063ba279a2914610876578063c1e3bd3e146107f5578063c4d665f1146107da578063c7b8981c1461066e578063c7cfd83d1461062a578063c7f758a8146105b0578063db270d4d14610588578063e448ee2614610358578063efe12c7a146102cd578063f2fde38b14610248578063f6ed2017146102105763ffac1a950361000e573461020c576101d2366121dc565b905f52600660205260405f20805482101561020c576020916101f391612263565b905460405160039290921b1c6001600160a01b03168152f35b5f80fd5b3461020c57602036600319011261020c576001600160a01b03610231612178565b165f52600a602052602060405f2054604051908152f35b3461020c57602036600319011261020c57610261612178565b6102696125e6565b6001600160a01b031680156102ba575f80546001600160a01b03198116831782556001600160a01b0316907f8be0079c531659141344cd1fd0a4f28419497f9722a3daafe3b4186f6b6457e09080a3005b631e4fbdf760e01b5f525f60045260245ffd5b3461020c57602036600319011261020c576004356102ee60025482106124ac565b6102f781611f89565b509060026003830154106103205761031960ff600461031e94015416156124eb565b61268d565b005b60405162461bcd60e51b815260206004820152601060248201526f4e6f7420656e6f75676820766f74657360801b6044820152606490fd5b602036600319011261020c5760043560245f60018060a01b036001541660405192838092634c3f70ab60e11b82523360048301525afa801561057d576103a8915f91610556575b505115156123b9565b6103b5600454821061252a565b6103be8161220b565b50600481015442101561051f575f82815260056020908152604080832033845290915290205460ff166104e95766038d7ea4c6800034036104ab575f8281526005602090815260408083203384528252808320805460ff191660011790558483526006909152902080549190600160401b8310156104975782610448916001600595018155612263565b81549060031b9033821b9160018060a01b03901b19161790550161046d348254612278565b905533907f690ecbabe96222b39728b512682860cc6460002a670ff94954038286bea0ba695f80a3005b634e487b7160e01b5f52604160045260245ffd5b60405162461bcd60e51b815260206004820152601660248201527522b73a393c903332b29034b99018171818189021272160511b6044820152606490fd5b60405162461bcd60e51b815260206004820152600e60248201526d105b1c9958591e481a9bda5b995960921b6044820152606490fd5b60405162461bcd60e51b815260206004820152600f60248201526e10da185b1b195b99d948195b991959608a1b6044820152606490fd5b61057291503d805f833e61056a8183611ff1565b810190612338565b50505050508361039f565b6040513d5f823e3d90fd5b3461020c575f36600319011261020c576001546040516001600160a01b039091168152602090f35b3461020c57602036600319011261020c576105cc600435611f89565b5060018060a01b0360028201541690610626600382015491600481015460058201549161060460016105fd83612012565b9201612012565b604051968796600885901c6001600160a01b03169460ff1693909290886120d6565b0390f35b3461020c57604036600319011261020c57610643612162565b6004355f52600860205260405f209060018060a01b03165f52602052602060405f2054604051908152f35b3461020c575f36600319011261020c57610686612aec565b335f52600a60205260405f205480156107a857600954811161076f57335f52600a6020525f60408120556106bc8160095461247f565b6009555f80808084335af13d1561076a573d6106d78161231d565b906106e56040519283611ff1565b81525f60203d92013e5b15610733576040519081527f1d3eee4ca001cff39eec6ec7615aacf2f2bd61791273830728ba00ccbd6e133760203392a260015f516020612d135f395f51905f5255005b60405162461bcd60e51b815260206004820152600f60248201526e151c985b9cd9995c8819985a5b1959608a1b6044820152606490fd5b6106ef565b60405162461bcd60e51b8152602060048201526011602482015270125b9cdd59999a58da595b9d081c1bdbdb607a1b6044820152606490fd5b60405162461bcd60e51b815260206004820152600a6024820152694e6f207265776172647360b01b6044820152606490fd5b3461020c575f36600319011261020c57602060405160028152f35b3461020c57602036600319011261020c576004355f52600660205260405f206040519081602082549182815201915f5260205f20905f5b818110610857576106268561084381870382611ff1565b604051918291602083526020830190612227565b82546001600160a01b031684526020909301926001928301920161082c565b3461020c57604036600319011261020c576004356024356001600160401b03811161020c576108a990369060040161218e565b91906108b8600454831061252a565b60046108c38361220b565b500154600e198101818111610a37574210610b79574211610b34575f8281526005602090815260408083203384529091529020546109039060ff1661256a565b5f828152600860209081526040808320338452909152902054610afb578215610ac1575f8281526007602052604090208054919082600160401b81101561049757610953916001820181556121f2565b5080546001600160a01b03191633178155600181016001600160401b0386116104975761098a866109848354611fb9565b83612430565b855f601f8211600114610a5657916109bc825f95936003958791610a4b575b508160011b915f199060031b1c19161790565b90555b42600282015501556001820191828111610a37577ffedc8b2e8ea95d3f59af6edade0b29286bc4d4b3db2ecae900a5d6ed773813ba92845f52600860205260405f2060018060a01b0333165f5260205260405f2055610a326040519283928352604060208401523396604084019161248c565b0390a3005b634e487b7160e01b5f52601160045260245ffd5b90508701358b6109a9565b5f8381526020812092508890601f198216905b818110610aa65750915f9593916003959310610a8f575b5050600188811b0190556109bf565b86013585198a861b60f8161c191690558880610a80565b8784013585556001909401936020938401938b935001610a69565b60405162461bcd60e51b815260206004820152601260248201527112541194c81a185cda081c995c5d5a5c995960721b6044820152606490fd5b60405162461bcd60e51b8152602060048201526011602482015270105b1c9958591e481cdd589b5a5d1d1959607a1b6044820152606490fd5b60405162461bcd60e51b815260206004820152601760248201527f5375626d697373696f6e20706572696f6420656e6465640000000000000000006044820152606490fd5b60405162461bcd60e51b8152602060048201526013602482015272151bdbc819585c9b1e481d1bc81cdd589b5a5d606a1b6044820152606490fd5b3461020c57602036600319011261020c57600435610bd0612aec565b610bdd600454821061252a565b610be68161220b565b50600481015460148101809111610a3757421115610f18576008810160ff815416610edd57825f52600660205260405f205415610ea6576005610c2884612b24565b920154908251610e0e575b6001835111610d73575b6002835111610ca9575b91610c8d917f361c58c673f6c16ebf050c5ed271588db0160e0c7b605a0a66f90cf0f966165093600160ff19825416179055604051928392604084526040840190612227565b9060208301520390a260015f516020612d135f395f51905f5255005b91601482029180830460141481151715610a37577f361c58c673f6c16ebf050c5ed271588db0160e0c7b605a0a66f90cf0f966165093610c8d93606490046001600160a01b03610cf8856122f9565b51165f52600a60205260405f20610d10828254612278565b90555f516020612cf35f395f51905f5260806001600160a01b03610d33876122f9565b5116926040519081526040602082015260156040820152744368616c6c656e676520746869726420706c61636560581b6060820152a29193509150610c47565b601e8202828104601e1483151715610a3757606490046001600160a01b03610d9a856122e9565b51165f52600a60205260405f20610db2828254612278565b90555f516020612cf35f395f51905f5260806001600160a01b03610dd5876122e9565b51169260405190815260406020820152601360408201527204368616c6c656e67652072756e6e65722d757606c1b6060820152a2610c3d565b6032820282810460321483151715610a3757606490046001600160a01b03610e35856122dc565b51165f52600a60205260405f20610e4d828254612278565b90555f516020612cf35f395f51905f5260806001600160a01b03610e70876122dc565b51169260405190815260406020820152601060408201526f21b430b63632b733b2903bb4b73732b960811b6060820152a2610c33565b60405162461bcd60e51b815260206004820152600f60248201526e4e6f207061727469636970616e747360881b6044820152606490fd5b60405162461bcd60e51b8152602060048201526013602482015272105b1c9958591e48191a5cdd1c9a589d5d1959606a1b6044820152606490fd5b60405162461bcd60e51b815260206004820152601060248201526f159bdd1a5b99c81b9bdd08195b99195960821b6044820152606490fd5b3461020c575f36600319011261020c57602060405160148152f35b3461020c57602036600319011261020c57600435805f52600760205260405f205490610f96826122aa565b91610fa081612293565b90610fae6040519283611ff1565b808252601f19610fbd82612293565b015f5b8181106110d0575050610fd2816122aa565b925f5b82811061106757610ff6858786604051938492606084526060840190612227565b928284036020840152815180855260208501946020808360051b8301019401955f915b8383106110345786806106268888838203604085015261212f565b919395509193602080611053600193601f198682030187528a516120b2565b980193019301909287959396949296611019565b600190825f96959652600760205260036110848260405f206121f2565b50838060a01b03815416611098848b612309565b526110a4848201612012565b6110ae848a612309565b526110b98389612309565b5001546110c68287612309565b5201939293610fd5565b6060602082860181019190915201610fc0565b3461020c57602036600319011261020c5760043560245f60018060a01b036001541660405192838092634c3f70ab60e11b82523360048301525afa801561057d57611137915f9161055657505115156123b9565b61114460025482106124ac565b61114d81611f89565b5060026003600483019261116560ff855416156124eb565b335f528160205260405f20855f5260205261118760ff60405f205416156125aa565b016111928154612285565b8155335f52600360205260405f20845f5260205260405f20600160ff1982541617905533847ff84b00c490c2f3fa36a23d817b3fa8542f0f338f891e5b3f71e8b25e7e27510b5f80a354101590816111f5575b506111ec57005b61031e9061268d565b60ff9150541615826111e5565b3461020c57602036600319011261020c5760043560045481101561020c576112299061220b565b50805461123860018301612012565b9161124560028201612012565b6003820154916004810154600582015460018060a01b03600684015416916112a060ff6008600787015496015416956112926040519a8b9a8b5261012060208c01526101208b01906120b2565b9089820360408b01526120b2565b956060880152608087015260a086015260c085015260e084015215156101008301520390f35b3461020c575f36600319011261020c575f546040516001600160a01b039091168152602090f35b6121bb565b3461020c57611300366121dc565b61130d600454831061252a565b60046113188361220b565b500154804211156115595760148101809111610a37574211611525575f8281526005602090815260408083203384529091529020546113599060ff1661256a565b815f52600760205260405f20548110156114ef57815f5260076020526113828160405f206121f2565b5080546001600160a01b031633146114aa57335f9081526004820160208190526040909120546113b59060ff16156125aa565b600382016113c38154612285565b9055335f90815260209190915260409020805460ff19166001179055600954652d79883d2000111561142b575b546040519182526001600160a01b03169133917fa04ac67a6bc0ede3b7ebe1725aae55658d79655771c93c0041a93570cb91af8190602090a4005b335f52600a60205260405f20805490652d79883d20008201809211610a375755600954652d79883d1fff198101908111610a3757600955604051652d79883d2000815260406020820152600d60408201526c159bdd1a5b99c81c995dd85c99609a1b60608201525f516020612cf35f395f51905f5260803392a26113f0565b60405162461bcd60e51b815260206004820152601860248201527f43616e6e6f7420766f746520666f7220796f757273656c6600000000000000006044820152606490fd5b60405162461bcd60e51b815260206004820152600e60248201526d496e76616c69642072657669657760901b6044820152606490fd5b60405162461bcd60e51b815260206004820152600c60248201526b159bdd1a5b99c8195b99195960a21b6044820152606490fd5b60405162461bcd60e51b815260206004820152601360248201527210da185b1b195b99d9481b9bdd08195b991959606a1b6044820152606490fd5b3461020c575f36600319011261020c576115ac6125e6565b5f80546001600160a01b0319811682556001600160a01b03167f8be0079c531659141344cd1fd0a4f28419497f9722a3daafe3b4186f6b6457e08280a3005b3461020c575f36600319011261020c576020604051603c8152f35b3461020c575f36600319011261020c576020600954604051908152f35b3461020c57611631366121dc565b905f52600760205260405f2090815481101561020c57611650916121f2565b5080546001600160a01b031661166860018301612012565b916003600282015491015461168f60405194859485526080602086015260808501906120b2565b91604084015260608301520390f35b3461020c575f36600319011261020c576020604051600f8152f35b602036600319011261020c576004356116d560025482106124ac565b6116de81611f89565b5060048101908154916116f460ff8416156124eb565b66038d7ea4c6800034106117795760059260081c6001600160a01b031615611755575b5001611724348254612278565b9055604051903482527fd23aaa3ee60ce3f938e54e5b192945b974b53dd4a48edcf51ba4ce92de65021c60203393a3005b8054610100600160a81b0319163360081b610100600160a81b031617905583611717565b60405162461bcd60e51b815260206004820152601160248201527026b4b734b6bab69018171818189021272160791b6044820152606490fd5b3461020c575f36600319011261020c576020604051652d79883d20008152f35b3461020c575f36600319011261020c576002545f805b82811061185957506117f9906122aa565b905f5f5b82811061181a57604051602080825281906106269082018761212f565b60ff600461182783611f89565b5001541615611839575b6001016117fd565b90611851818361184b60019488612309565b52612285565b919050611831565b60ff600461186683611f89565b5001541615611878575b6001016117e8565b90611884600191612285565b919050611870565b3461020c57604036600319011261020c576001600160a01b036118ad612178565b165f52600360205260405f206024355f52602052602060ff60405f2054166040519015158152f35b3461020c57604036600319011261020c576004356001600160401b03811161020c5761190590369060040161218e565b6024356001600160401b03811161020c5761192490369060040161218e565b600154604051634c3f70ab60e11b815233600482015292949192905f90829060249082906001600160a01b03165afa801561057d5761196c915f91611ceb57505115156123b9565b8215611cb5578115611c7e5760405160e081018181106001600160401b038211176104975760405261199f3685846123fa565b81526119ac3684876123fa565b602082019081526040820133815260608301905f825260808401915f835260a08501915f835260c08601945f8652600254600160401b811015610497578060016119f99201600255611f89565b979097611c6b57518051906001600160401b03821161049757611a2682611a208b54611fb9565b8b612430565b602090601f8311600114611c0857611a5592915f9183611bfd575b50508160011b915f199060031b1c19161790565b87555b51805160018801916001600160401b03821161049757611a8282611a7c8554611fb9565b85612430565b602090601f8311600114611b8f5782611b2597959360059a99979593611abc935f92611b845750508160011b915f199060031b1c19161790565b90555b516002880180546001600160a01b039092166001600160a01b0319909216919091179055516003870155905160048601805460ff191691151560ff1691909117815590518154610100600160a81b03191660089190911b610100600160a81b0316179055565b519101556002545f19810193908411610a3757610a327f1628b78ec8db31dedfbc4ef854c965db809f4d77749a50c27f65a792d27b147393611b7460405194859460408652604086019161248c565b908382036020850152339761248c565b015190505f80611a41565b90601f19831691845f52815f20925f5b818110611be55750926001928592611b259a989660059d9c9a989610611bcd575b505050811b019055611abf565b01515f1960f88460031b161c191690558f8080611bc0565b92936020600181928786015181550195019301611b9f565b015190508e80611a41565b90601f198316918a5f52815f20925f5b818110611c535750908460019594939210611c3b575b505050811b018755611a58565b01515f1960f88460031b161c191690558d8080611c2e565b92936020600181928786015181550195019301611c18565b634e487b7160e01b5f525f60045260245ffd5b60405162461bcd60e51b815260206004820152600f60248201526e105d5d1a1bdc881c995c5d5a5c9959608a1b6044820152606490fd5b60405162461bcd60e51b815260206004820152600e60248201526d151a5d1b19481c995c5d5a5c995960921b6044820152606490fd5b611cff91503d805f833e61056a8183611ff1565b50505050508661039f565b3461020c57604036600319011261020c57611d23612162565b6004355f52600560205260405f209060018060a01b03165f52602052602060ff60405f2054166040519015158152f35b3461020c575f36600319011261020c576004545f805b828110611df05750611d7a906122aa565b905f5f5b828110611d9b57604051602080825281906106269082018761212f565b60ff6008611da88361220b565b500154161580611dda575b611dc0575b600101611d7e565b90611dd2818361184b60019488612309565b919050611db8565b506004611de68261220b565b5001544210611db3565b60ff6008611dfd8361220b565b500154161580611e29575b611e15575b600101611d69565b90611e21600191612285565b919050611e0d565b506004611e358261220b565b5001544210611e08565b3461020c57602036600319011261020c57600435611e5c8161220b565b5090815490600383015490600484015490600585015460018060a01b036006870154169060ff600888015416925f52600660205260405f205493611ecf611eb16002611eaa60018c01612012565b9a01612012565b6112926040519a8b9a8b5261012060208c01526101208b01906120b2565b956060880152608087015260a086015260c0850152151560e08401526101008301520390f35b3461020c57602036600319011261020c5760043560025481101561020c57611f1c90611f89565b50611f2681612012565b610626611f3560018401612012565b60028401546003850154600486015460059096015460405196879691946001600160a01b03600883901c81169560ff9093169493921691886120d6565b5f36600319011261020c5761002434600954612278565b600254811015611fa55760025f52600660205f20910201905f90565b634e487b7160e01b5f52603260045260245ffd5b90600182811c92168015611fe7575b6020831014611fd357565b634e487b7160e01b5f52602260045260245ffd5b91607f1691611fc8565b90601f801991011681019081106001600160401b0382111761049757604052565b9060405191825f82549261202584611fb9565b8084529360018116908115612090575060011461204c575b5061204a92500383611ff1565b565b90505f9291925260205f20905f915b81831061207457505090602061204a928201015f61203d565b602091935080600191548385890101520191019091849261205b565b90506020925061204a94915060ff191682840152151560051b8201015f61203d565b805180835260209291819084018484015e5f828201840152601f01601f1916010190565b939060c095926120f6612104929a9998959a60e0885260e08801906120b2565b9086820360208801526120b2565b6001600160a01b03988916604086015260608501919091529015156080840152951660a08201520152565b90602080835192838152019201905f5b81811061214c5750505090565b825184526020938401939092019160010161213f565b602435906001600160a01b038216820361020c57565b600435906001600160a01b038216820361020c57565b9181601f8401121561020c578235916001600160401b03831161020c576020838186019501011161020c57565b3461020c575f36600319011261020c57602060405166038d7ea4c680008152f35b604090600319011261020c576004359060243590565b8054821015611fa5575f52600560205f20910201905f90565b600454811015611fa55760045f52600960205f20910201905f90565b90602080835192838152019201905f5b8181106122445750505090565b82516001600160a01b0316845260209384019390920191600101612237565b8054821015611fa5575f5260205f2001905f90565b91908201809211610a3757565b5f198114610a375760010190565b6001600160401b0381116104975760051b60200190565b906122b482612293565b6122c16040519182611ff1565b82815280926122d2601f1991612293565b0190602036910137565b805115611fa55760200190565b805160011015611fa55760400190565b805160021015611fa55760600190565b8051821015611fa55760209160051b010190565b6001600160401b03811161049757601f01601f191660200190565b919060c08382031261020c5782516001600160401b03811161020c57830181601f8201121561020c5780519061236d8261231d565b9261237b6040519485611ff1565b8284526020838301011161020c57815f9260208093018386015e830101529160208101519160408201519160608101519160a0608083015192015190565b156123c057565b60405162461bcd60e51b8152602060048201526012602482015271135d5cdd081899481a5b8818481cdc5d585960721b6044820152606490fd5b9291926124068261231d565b916124146040519384611ff1565b82948184528183011161020c578281602093845f960137010152565b601f821161243d57505050565b5f5260205f20906020601f840160051c83019310612475575b601f0160051c01905b81811061246a575050565b5f815560010161245f565b9091508190612456565b91908203918211610a3757565b908060209392818452848401375f828201840152601f01601f1916010190565b156124b357565b60405162461bcd60e51b815260206004820152601060248201526f125b9d985b1a59081c1c9bdc1bdcd85b60821b6044820152606490fd5b156124f257565b60405162461bcd60e51b815260206004820152601060248201526f105b1c9958591e48195e1958dd5d195960821b6044820152606490fd5b1561253157565b60405162461bcd60e51b8152602060048201526011602482015270496e76616c6964206368616c6c656e676560781b6044820152606490fd5b1561257157565b60405162461bcd60e51b8152602060048201526011602482015270139bdd0818481c185c9d1a58da5c185b9d607a1b6044820152606490fd5b156125b157565b60405162461bcd60e51b815260206004820152600d60248201526c105b1c9958591e481d9bdd1959609a1b6044820152606490fd5b5f546001600160a01b031633036125f957565b63118cdaa760e01b5f523360045260245ffd5b5f929181549161261b83611fb9565b8083529260018116908115612670575060011461263757505050565b5f9081526020812093945091925b838310612656575060209250010190565b600181602092949394548385870101520191019190612645565b915050602093945060ff929192191683830152151560051b010190565b61269681611f89565b506004810154916126aa60ff8416156124eb565b60045492603c4201804211610a37576005840154906040519161012083018381106001600160401b03821117610497576040528683526126e986612012565b93602084019485526126fd60018801612012565b60408501908152426060860152608085019390935260a0840182905260081c6001600160a01b031660c084015260e08301525f610100830152600160401b86101561049757600186016004556127528661220b565b939093611c6b578251845551805160018501916001600160401b0382116104975761278182611a7c8554611fb9565b602090601f8311600114612a89576127af92915f9183611b845750508160011b915f199060031b1c19161790565b90555b518051906001600160401b038211610497576127de826127d56002870154611fb9565b60028701612430565b602090601f83116001146129ee57610100612948969461283d856128ab967ff54a77b09b7adabd21d1f455a2b7bf3c84589219f62c6327649cb6449880cb819b99966008965f92611b845750508160011b915f199060031b1c19161790565b60028501555b606081015160038501556080810151600485015560a0810151600585015560c08101516006850180546001600160a01b039092166001600160a01b031990921691909117905560e0810151600785015501519101805460ff191691151560ff16919091179055565b60048201805460ff191660011790556005820154801515806129df575b612953575b507f9891e00a3a4cc849affa0757e5e84373cb3e96c2147df8f460a92dd4495e97e46040516040815280612918612907604083018761260c565b82810360208401526001870161260c565b0390a26005810154604051928392606084526001612939606086018361260c565b9185830360208701520161260c565b9060408301520390a2565b600a90045f516020612cf35f395f51905f5260806002850160018060a01b038154165f52600a60205260405f2061298b858254612278565b90556129998460095461247f565b60095554604080519485526020850181905260149085015273109bdbdac81c1c9bdc1bdcd85b081c995dd85c9960621b60608501526001600160a01b031692a25f6128cd565b50600954600a820411156128c8565b90600285015f52805f20915f5b601f1985168110612a71575061294896946001857ff54a77b09b7adabd21d1f455a2b7bf3c84589219f62c6327649cb6449880cb819a9895600895610100956128ab99601f19811610612a59575b505050811b016002850155612843565b01515f1960f88460031b161c191690555f8080612a49565b919260206001819286850151815501940192016129fb565b90601f19831691845f52815f20925f5b818110612ad45750908460019594939210612abc575b505050811b0190556127b2565b01515f1960f88460031b161c191690555f8080612aaf565b92936020600181928786015181550195019301612a99565b60025f516020612d135f395f51905f525414612b155760025f516020612d135f395f51905f5255565b633ee5aeb560e01b5f5260045ffd5b805f52600760205260405f2054908115612cd857612b41826122aa565b92612b4b836122aa565b915f5b848110612c9657505f915f198501915084821190815b610a375782841015612c3b575f5b612b7c858861247f565b5f198101908111610a3757811015612c2e57612b988187612309565b519060018101808211610a3757600192612bb2828a612309565b5111612bc0575b5001612b72565b612bca8189612309565b51612bd5838a612309565b51612be0838b612309565b52612beb838a612309565b52828060a01b03612bfc828c612309565b511690612c1c8b612c1385878060a01b0392612309565b5116918c612309565b52612c27828b612309565b525f612bb9565b5060019093019281612b64565b949350505050600381115f14612c91575060035b612c58816122aa565b905f5b818110612c69575090925050565b6001906001600160a01b03612c7e8288612309565b5116612c8a8286612309565b5201612c5b565b612c4f565b600190825f5260076020526003612cb08260405f206121f2565b50838060a01b03815416612cc4848b612309565b520154612cd18287612309565b5201612b4e565b5050604051612ce8602082611ff1565b5f81525f3681379056fe283df4a4efa33039800b4d229007053d1634f79e54889139b538b282779a62649b779b17422d0df92223018b32b4d1fa46e071723d6817e2486d003becc55f00a26469706673582212201608f0c2408b0b71d6277e89aa505e14b094b4808d1e94a0c38c5bbb59f43efb64736f6c634300081e0033","linkReferences":{}},"methodIdentifiers":{"CHALLENGE_DURATION()":"67ab845b","CHALLENGE_ENTRY_FEE()":"8d3de3ba","MIN_SPONSOR_AMOUNT()":"4192f8de","REVIEW_SUBMISSION_WINDOW()":"5cf9a0ca","VOTES_REQUIRED()":"c4d665f1","VOTING_DURATION()":"a438d208","VOTING_REWARD()":"58e6b809","bookProposals(uint256)":"19a347c3","challengeParticipants(uint256,uint256)":"ffac1a95","challengeReviews(uint256,uint256)":"60396561","challenges(uint256)":"8f1d3776","completeChallenge(uint256)":"a7817bbc","depositRewards()":"152111f7","executeBookProposal(uint256)":"efe12c7a","getActiveChallenges()":"1f47991e","getActiveProposals()":"5584c4f9","getChallenge(uint256)":"1bdd4b74","getParticipants(uint256)":"c1e3bd3e","getPendingRewards(address)":"f6ed2017","getProposal(uint256)":"c7f758a8","getReviews(uint256)":"9d4a2255","hasJoinedChallenge(uint256,address)":"284aaa33","hasVotedOnProposal(address,uint256)":"2da46385","joinChallenge(uint256)":"e448ee26","owner()":"8da5cb5b","pendingRewards(address)":"31d7a262","proposeBook(string,string)":"2c7a0718","renounceOwnership()":"715018a6","rewardPool()":"66666aa9","sponsorBook(uint256)":"5ba723e1","squadManager()":"db270d4d","submitReview(uint256,string)":"ba279a29","transferOwnership(address)":"f2fde38b","userReviewIndex(uint256,address)":"c7cfd83d","voteForReview(uint256,uint256)":"85c993ed","voteOnBook(uint256)":"8fce0679","withdrawRewards()":"c7b8981c"},"id":39}