{"abi":[{"type":"constructor","inputs":[],"stateMutability":"nonpayable"},{"type":"function","name":"MAX_SQUAD_NAME_LENGTH","inputs":[],"outputs":[{"name":"","type":"uint256","internalType":"uint256"}],"stateMutability":"view"},{"type":"function","name":"MAX_SQUAD_SIZE","inputs":[],"outputs":[{"name":"","type":"uint256","internalType":"uint256"}],"stateMutability":"view"},{"type":"function","name":"MIN_SQUAD_NAME_LENGTH","inputs":[],"outputs":[{"name":"","type":"uint256","internalType":"uint256"}],"stateMutability":"view"},{"type":"function","name":"SUBMISSION_COOLDOWN","inputs":[],"outputs":[{"name":"","type":"uint256","internalType":"uint256"}],"stateMutability":"view"},{"type":"function","name":"VERIFICATION_THRESHOLD","inputs":[],"outputs":[{"name":"","type":"uint256","internalType":"uint256"}],"stateMutability":"view"},{"type":"function","name":"badgesAddress","inputs":[],"outputs":[{"name":"","type":"address","internalType":"address"}],"stateMutability":"view"},{"type":"function","name":"canSubmitToday","inputs":[{"name":"user","type":"address","internalType":"address"}],"outputs":[{"name":"","type":"bool","internalType":"bool"}],"stateMutability":"view"},{"type":"function","name":"createSquad","inputs":[{"name":"name","type":"string","internalType":"string"}],"outputs":[],"stateMutability":"nonpayable"},{"type":"function","name":"getAllSquads","inputs":[],"outputs":[{"name":"","type":"string[]","internalType":"string[]"}],"stateMutability":"view"},{"type":"function","name":"getLeaderboard","inputs":[],"outputs":[{"name":"names","type":"string[]","internalType":"string[]"},{"name":"scores","type":"uint256[]","internalType":"uint256[]"},{"name":"memberCounts","type":"uint256[]","internalType":"uint256[]"},{"name":"createdAt","type":"uint256[]","internalType":"uint256[]"}],"stateMutability":"view"},{"type":"function","name":"getSquad","inputs":[{"name":"name","type":"string","internalType":"string"}],"outputs":[{"name":"squadName","type":"string","internalType":"string"},{"name":"members","type":"address[]","internalType":"address[]"},{"name":"score","type":"uint256","internalType":"uint256"},{"name":"createdAt","type":"uint256","internalType":"uint256"},{"name":"creator","type":"address","internalType":"address"},{"name":"memberCount","type":"uint256","internalType":"uint256"}],"stateMutability":"view"},{"type":"function","name":"getSquadCount","inputs":[],"outputs":[{"name":"","type":"uint256","internalType":"uint256"}],"stateMutability":"view"},{"type":"function","name":"getSubmissionVerificationStatus","inputs":[{"name":"squadName","type":"string","internalType":"string"},{"name":"index","type":"uint256","internalType":"uint256"}],"outputs":[{"name":"verifyCount","type":"uint256","internalType":"uint256"},{"name":"isVerified","type":"bool","internalType":"bool"},{"name":"verifiers","type":"address[]","internalType":"address[]"}],"stateMutability":"view"},{"type":"function","name":"getSubmissions","inputs":[{"name":"name","type":"string","internalType":"string"}],"outputs":[{"name":"","type":"tuple[]","internalType":"struct SquadManager.Submission[]","components":[{"name":"user","type":"address","internalType":"address"},{"name":"ipfsHash","type":"string","internalType":"string"},{"name":"quote","type":"string","internalType":"string"},{"name":"challengeDay","type":"string","internalType":"string"},{"name":"verified","type":"bool","internalType":"bool"},{"name":"timestamp","type":"uint256","internalType":"uint256"},{"name":"squadScore","type":"uint256","internalType":"uint256"},{"name":"verifiers","type":"address[]","internalType":"address[]"},{"name":"verifyCount","type":"uint256","internalType":"uint256"}]}],"stateMutability":"view"},{"type":"function","name":"getSubmissionsForUser","inputs":[{"name":"user","type":"address","internalType":"address"}],"outputs":[{"name":"","type":"tuple[]","internalType":"struct SquadManager.Submission[]","components":[{"name":"user","type":"address","internalType":"address"},{"name":"ipfsHash","type":"string","internalType":"string"},{"name":"quote","type":"string","internalType":"string"},{"name":"challengeDay","type":"string","internalType":"string"},{"name":"verified","type":"bool","internalType":"bool"},{"name":"timestamp","type":"uint256","internalType":"uint256"},{"name":"squadScore","type":"uint256","internalType":"uint256"},{"name":"verifiers","type":"address[]","internalType":"address[]"},{"name":"verifyCount","type":"uint256","internalType":"uint256"}]}],"stateMutability":"view"},{"type":"function","name":"getUserProfile","inputs":[{"name":"user","type":"address","internalType":"address"}],"outputs":[{"name":"squadName","type":"string","internalType":"string"},{"name":"totalScore","type":"uint256","internalType":"uint256"},{"name":"joinDate","type":"uint256","internalType":"uint256"},{"name":"submissionsCount","type":"uint256","internalType":"uint256"},{"name":"lastSubmissionTime","type":"uint256","internalType":"uint256"},{"name":"verificationCount","type":"uint256","internalType":"uint256"}],"stateMutability":"view"},{"type":"function","name":"isMember","inputs":[{"name":"squadName","type":"string","internalType":"string"},{"name":"user","type":"address","internalType":"address"}],"outputs":[{"name":"","type":"bool","internalType":"bool"}],"stateMutability":"view"},{"type":"function","name":"joinSquad","inputs":[{"name":"name","type":"string","internalType":"string"}],"outputs":[],"stateMutability":"nonpayable"},{"type":"function","name":"leaveSquad","inputs":[],"outputs":[],"stateMutability":"nonpayable"},{"type":"function","name":"owner","inputs":[],"outputs":[{"name":"","type":"address","internalType":"address"}],"stateMutability":"view"},{"type":"function","name":"renounceOwnership","inputs":[],"outputs":[],"stateMutability":"nonpayable"},{"type":"function","name":"setBadgesAddress","inputs":[{"name":"_badgesAddress","type":"address","internalType":"address"}],"outputs":[],"stateMutability":"nonpayable"},{"type":"function","name":"squadNames","inputs":[{"name":"","type":"uint256","internalType":"uint256"}],"outputs":[{"name":"","type":"string","internalType":"string"}],"stateMutability":"view"},{"type":"function","name":"squadSubmissions","inputs":[{"name":"","type":"string","internalType":"string"},{"name":"","type":"uint256","internalType":"uint256"}],"outputs":[{"name":"user","type":"address","internalType":"address"},{"name":"ipfsHash","type":"string","internalType":"string"},{"name":"quote","type":"string","internalType":"string"},{"name":"challengeDay","type":"string","internalType":"string"},{"name":"verified","type":"bool","internalType":"bool"},{"name":"timestamp","type":"uint256","internalType":"uint256"},{"name":"squadScore","type":"uint256","internalType":"uint256"},{"name":"verifyCount","type":"uint256","internalType":"uint256"}],"stateMutability":"view"},{"type":"function","name":"squads","inputs":[{"name":"","type":"string","internalType":"string"}],"outputs":[{"name":"name","type":"string","internalType":"string"},{"name":"score","type":"uint256","internalType":"uint256"},{"name":"createdAt","type":"uint256","internalType":"uint256"},{"name":"creator","type":"address","internalType":"address"},{"name":"exists","type":"bool","internalType":"bool"}],"stateMutability":"view"},{"type":"function","name":"submit","inputs":[{"name":"ipfsHash","type":"string","internalType":"string"},{"name":"quote","type":"string","internalType":"string"},{"name":"challengeDay","type":"string","internalType":"string"}],"outputs":[],"stateMutability":"nonpayable"},{"type":"function","name":"transferOwnership","inputs":[{"name":"newOwner","type":"address","internalType":"address"}],"outputs":[],"stateMutability":"nonpayable"},{"type":"function","name":"userSubmissionCount","inputs":[{"name":"","type":"address","internalType":"address"}],"outputs":[{"name":"","type":"uint256","internalType":"uint256"}],"stateMutability":"view"},{"type":"function","name":"users","inputs":[{"name":"","type":"address","internalType":"address"}],"outputs":[{"name":"squadName","type":"string","internalType":"string"},{"name":"totalScore","type":"uint256","internalType":"uint256"},{"name":"joinDate","type":"uint256","internalType":"uint256"},{"name":"submissionsCount","type":"uint256","internalType":"uint256"},{"name":"lastSubmissionTime","type":"uint256","internalType":"uint256"},{"name":"verificationCount","type":"uint256","internalType":"uint256"}],"stateMutability":"view"},{"type":"function","name":"verifySubmission","inputs":[{"name":"squadName","type":"string","internalType":"string"},{"name":"index","type":"uint256","internalType":"uint256"}],"outputs":[],"stateMutability":"nonpayable"},{"type":"event","name":"BadgeMinted","inputs":[{"name":"user","type":"address","indexed":true,"internalType":"address"},{"name":"badgeType","type":"uint8","indexed":false,"internalType":"uint8"},{"name":"tokenId","type":"uint256","indexed":false,"internalType":"uint256"}],"anonymous":false},{"type":"event","name":"BadgesAddressUpdated","inputs":[{"name":"newAddress","type":"address","indexed":true,"internalType":"address"}],"anonymous":false},{"type":"event","name":"OwnershipTransferred","inputs":[{"name":"previousOwner","type":"address","indexed":true,"internalType":"address"},{"name":"newOwner","type":"address","indexed":true,"internalType":"address"}],"anonymous":false},{"type":"event","name":"ScoreUpdated","inputs":[{"name":"squadName","type":"string","indexed":true,"internalType":"string"},{"name":"newScore","type":"uint256","indexed":false,"internalType":"uint256"},{"name":"contributor","type":"address","indexed":true,"internalType":"address"}],"anonymous":false},{"type":"event","name":"SquadCreated","inputs":[{"name":"squadName","type":"string","indexed":true,"internalType":"string"},{"name":"creator","type":"address","indexed":true,"internalType":"address"},{"name":"timestamp","type":"uint256","indexed":false,"internalType":"uint256"}],"anonymous":false},{"type":"event","name":"SquadJoined","inputs":[{"name":"squadName","type":"string","indexed":true,"internalType":"string"},{"name":"user","type":"address","indexed":true,"internalType":"address"},{"name":"timestamp","type":"uint256","indexed":false,"internalType":"uint256"}],"anonymous":false},{"type":"event","name":"SubmissionAdded","inputs":[{"name":"squadName","type":"string","indexed":true,"internalType":"string"},{"name":"user","type":"address","indexed":true,"internalType":"address"},{"name":"ipfsHash","type":"string","indexed":false,"internalType":"string"},{"name":"quote","type":"string","indexed":false,"internalType":"string"},{"name":"challengeDay","type":"string","indexed":false,"internalType":"string"}],"anonymous":false},{"type":"event","name":"SubmissionConfirmed","inputs":[{"name":"squadName","type":"string","indexed":true,"internalType":"string"},{"name":"user","type":"address","indexed":true,"internalType":"address"},{"name":"index","type":"uint256","indexed":false,"internalType":"uint256"},{"name":"timestamp","type":"uint256","indexed":false,"internalType":"uint256"}],"anonymous":false},{"type":"event","name":"SubmissionVerified","inputs":[{"name":"squadName","type":"string","indexed":true,"internalType":"string"},{"name":"user","type":"address","indexed":true,"internalType":"address"},{"name":"index","type":"uint256","indexed":false,"internalType":"uint256"},{"name":"verifier","type":"address","indexed":true,"internalType":"address"},{"name":"verifyCount","type":"uint256","indexed":false,"internalType":"uint256"}],"anonymous":false},{"type":"event","name":"UserLeftSquad","inputs":[{"name":"squadName","type":"string","indexed":true,"internalType":"string"},{"name":"user","type":"address","indexed":true,"internalType":"address"},{"name":"timestamp","type":"uint256","indexed":false,"internalType":"uint256"}],"anonymous":false},{"type":"error","name":"OwnableInvalidOwner","inputs":[{"name":"owner","type":"address","internalType":"address"}]},{"type":"error","name":"OwnableUnauthorizedAccount","inputs":[{"name":"account","type":"address","internalType":"address"}]}],"bytecode":{"object":"0x6080604052348015600e575f5ffd5b503380603357604051631e4fbdf760e01b81525f600482015260240160405180910390fd5b603a816043565b505f6006556092565b5f80546001600160a01b038381166001600160a01b0319831681178455604051919092169283917f8be0079c531659141344cd1fd0a4f28419497f9722a3daafe3b4186f6b6457e09190a35050565b6143ba8061009f5f395ff3fe608060405234801561000f575f5ffd5b50600436106101d1575f3560e01c80636e8589e9116100fe578063a0ec242a1161009e578063bce6c0251161006e578063bce6c02514610414578063cea9d57414610427578063d44d0ce21461044e578063f2fde38b14610461575f5ffd5b8063a0ec242a146103c2578063a7a2e702146103cc578063a87430ba146103ee578063b1ef376814610401575f5ffd5b8063866e22f3116100d9578063866e22f31461034d5780638da5cb5b14610371578063909bfef514610395578063987ee1561461039d575f5ffd5b80636e8589e91461032a578063715018a61461033257806372fd79471461033a575f5ffd5b8063376dcc1a116101745780634c292f10116101445780634c292f10146102c757806353f406ef146102dc578063560e4184146102ff5780636d763a6e14610312575f5ffd5b8063376dcc1a146102915780633f53b43f146102a457806345ee19bb146102ac57806346fb5ac6146102b4575f5ffd5b806321d222cd116101af57806321d222cd1461023557806328391646146102555780632ee9d9681461025d578063368ad7871461027c575f5ffd5b80630ffeb198146101d557806314ff136c146101f057806316584f4b14610210575b5f5ffd5b6101dd602081565b6040519081526020015b60405180910390f35b6102036101fe36600461393f565b610474565b6040516101e791906139ee565b61022361021e36600461393f565b610752565b6040516101e796959493929190613af5565b610248610243366004613b48565b61089f565b6040516101e79190613b5f565b6006546101dd565b6101dd61026b366004613b93565b60046020525f908152604090205481565b61028f61028a366004613bac565b610945565b005b61028f61029f36600461393f565b610d9b565b6101dd600181565b6101dd600381565b61028f6102c2366004613bf3565b611095565b6102cf611492565b6040516101e79190613ce9565b6102ef6102ea366004613cfb565b611566565b60405190151581526020016101e7565b6102ef61030d366004613b93565b6115af565b61031a6115e0565b6040516101e79493929190613d7a565b6101dd601481565b61028f611b40565b610203610348366004613b93565b611b53565b61036061035b366004613e6e565b61208c565b6040516101e7959493929190613e9f565b5f546001600160a01b03165b6040516001600160a01b0390911681526020016101e7565b61028f61215c565b6103b06103ab366004613b93565b6123e2565b6040516101e796959493929190613ee0565b6101dd6201518081565b6103df6103da366004613bac565b61250e565b6040516101e793929190613f1b565b6103b06103fc366004613b93565b612636565b60075461037d906001600160a01b031681565b61028f610422366004613b93565b6126ef565b61043a610435366004613f44565b612788565b6040516101e7989796959493929190613f85565b61028f61045c36600461393f565b612998565b61028f61046f366004613b93565b612d93565b606060038383604051610488929190613ff7565b9081526020016040518091039020805480602002602001604051908101604052809291908181526020015f905b82821015610745575f8481526020908190206040805161012081019091526009850290910180546001600160a01b0316825260018101805492939192918401916104fe90614006565b80601f016020809104026020016040519081016040528092919081815260200182805461052a90614006565b80156105755780601f1061054c57610100808354040283529160200191610575565b820191905f5260205f20905b81548152906001019060200180831161055857829003601f168201915b5050505050815260200160028201805461058e90614006565b80601f01602080910402602001604051908101604052809291908181526020018280546105ba90614006565b80156106055780601f106105dc57610100808354040283529160200191610605565b820191905f5260205f20905b8154815290600101906020018083116105e857829003601f168201915b5050505050815260200160038201805461061e90614006565b80601f016020809104026020016040519081016040528092919081815260200182805461064a90614006565b80156106955780601f1061066c57610100808354040283529160200191610695565b820191905f5260205f20905b81548152906001019060200180831161067857829003601f168201915b50505050508152602001600482015f9054906101000a900460ff1615151515815260200160058201548152602001600682015481526020016007820180548060200260200160405190810160405280929190818152602001828054801561072357602002820191905f5260205f20905b81546001600160a01b03168152600190910190602001808311610705575b50505050508152602001600882015481525050815260200190600101906104b5565b5050505090505b92915050565b6060805f5f5f5f5f6001898960405161076c929190613ff7565b90815260405190819003602001902060028101546003820154600483015460018401805485549596508695919493926001600160a01b03169186906107b090614006565b80601f01602080910402602001604051908101604052809291908181526020018280546107dc90614006565b80156108275780601f106107fe57610100808354040283529160200191610827565b820191905f5260205f20905b81548152906001019060200180831161080a57829003601f168201915b505050505095508480548060200260200160405190810160405280929190818152602001828054801561088157602002820191905f5260205f20905b81546001600160a01b03168152600190910190602001808311610863575b50505050509450965096509650965096509650509295509295509295565b600581815481106108ae575f80fd5b905f5260205f20015f9150905080546108c690614006565b80601f01602080910402602001604051908101604052809291908181526020018280546108f290614006565b801561093d5780601f106109145761010080835404028352916020019161093d565b820191905f5260205f20905b81548152906001019060200180831161092057829003601f168201915b505050505081565b828260018282604051610959929190613ff7565b9081526040519081900360200190206004015460ff600160a01b909104166109bf5760405162461bcd60e51b815260206004820152601460248201527314dc5d585908191bd95cc81b9bdd08195e1a5cdd60621b60448201526064015b60405180910390fd5b8484610a0182828080601f0160208091040260200160405190810160405280939291908181526020018383808284375f92019190915250339250612dd0915050565b610a425760405162461bcd60e51b81526020600482015260126024820152712737ba10309039b8bab0b21036b2b6b132b960711b60448201526064016109b6565b60038787604051610a54929190613ff7565b908152604051908190036020019020548510610aa25760405162461bcd60e51b815260206004820152600d60248201526c092dcecc2d8d2c840d2dcc8caf609b1b60448201526064016109b6565b5f60038888604051610ab5929190613ff7565b90815260200160405180910390208681548110610ad457610ad461403e565b5f9182526020909120600990910201600481015490915060ff1615610b345760405162461bcd60e51b8152602060048201526016602482015275105b1c9958591e48199d5b1b1e481d995c9a599a595960521b60448201526064016109b6565b8054336001600160a01b0390911603610b885760405162461bcd60e51b815260206004820152601660248201527521b0b73737ba103b32b934b33c903cb7bab939b2b63360511b60448201526064016109b6565b80546001600160a01b0316610bd35760405162461bcd60e51b815260206004820152601160248201527024b73b30b634b21039bab136b4ba3a32b960791b60448201526064016109b6565b5f5b6007820154811015610c6957336001600160a01b0316826007018281548110610c0057610c0061403e565b5f918252602090912001546001600160a01b031603610c615760405162461bcd60e51b815260206004820152601760248201527f416c726561647920766572696669656420627920796f7500000000000000000060448201526064016109b6565b600101610bd5565b506007810180546001810182555f918252602082200180546001600160a01b0319163317905560088201805491610c9f83614066565b9091555050335f908152600260205260408120600501805491610cc183614066565b9091555050805460405133916001600160a01b031690610ce4908b908b90613ff7565b6040805191829003822060088601548b84526020840152917fa6801e85027da63705506e12d047554bb66c4b672048d33c70093d1c50f50a95910160405180910390a46001816008015410158015610d415750600481015460ff16155b15610d9157610d9188888080601f0160208091040260200160405190810160405280939291908181526020018383808284375f920191909152505084548a92506001600160a01b03169050612e6d565b5050505050505050565b818160018282604051610daf929190613ff7565b9081526040519081900360200190206004015460ff600160a01b90910416610e105760405162461bcd60e51b815260206004820152601460248201527314dc5d585908191bd95cc81b9bdd08195e1a5cdd60621b60448201526064016109b6565b335f8181526002602052604090208054610e2990614006565b159050610e6d5760405162461bcd60e51b8152602060048201526012602482015271105b1c9958591e481a5b8818481cdc5d585960721b60448201526064016109b6565b601460018686604051610e81929190613ff7565b9081526040519081900360200190206001015410610ed15760405162461bcd60e51b815260206004820152600d60248201526c14dc5d5859081a5cc8199d5b1b609a1b60448201526064016109b6565b610f1185858080601f0160208091040260200160405190810160405280939291908181526020018383808284375f92019190915250339250612dd0915050565b15610f515760405162461bcd60e51b815260206004820152601060248201526f20b63932b0b23c90309036b2b6b132b960811b60448201526064016109b6565b60018585604051610f63929190613ff7565b9081526040805191829003602090810183206001908101805491820181555f9081528290200180546001600160a01b0319163317905560e0601f88018290049091028301810190915260c08201868152829188908890819085018382808284375f920182905250938552505050602080830182905242604080850191909152606084018390526080840183905260a090930182905233825260029052208151819061100e90826140c2565b50602082015160018201556040808301516002830155606083015160038301556080830151600483015560a0909201516005909101555133906110549087908790613ff7565b604051908190038120428252907fdf17e7033c57b5e3a7c55dfbb0ac4ecac0874397dbf699d51ba847318192f3f79060200160405180910390a35050505050565b335f90815260026020526040812080546110ae90614006565b80601f01602080910402602001604051908101604052809291908181526020018280546110da90614006565b80156111255780601f106110fc57610100808354040283529160200191611125565b820191905f5260205f20905b81548152906001019060200180831161110857829003601f168201915b505050505090505f81511161116d5760405162461bcd60e51b815260206004820152600e60248201526d139bdd081a5b8818481cdc5d585960921b60448201526064016109b6565b335f9081526002602052604090206004015461118d90620151809061417c565b42116111e75760405162461bcd60e51b815260206004820152602360248201527f506c65617365207761697420323468206265747765656e207375626d697373696044820152626f6e7360e81b60648201526084016109b6565b60606003826040516111f9919061418f565b9081526020016040518091039020604051806101200160405280336001600160a01b031681526020018a8a8080601f0160208091040260200160405190810160405280939291908181526020018383808284375f92019190915250505090825250604080516020601f8b0181900481028201810190925289815291810191908a908a90819084018382808284375f92019190915250505090825250604080516020601f8901819004810282018101909252878152918101919088908890819084018382808284375f920182905250938552505050602082015242604080830191909152516060909101906001906112f190879061418f565b90815260408051602092819003830190206002015483528282018690525f920182905283546001808201865594835291819020835160099093020180546001600160a01b0319166001600160a01b03909316929092178255820151919290919082019061135e90826140c2565b506040820151600282019061137390826140c2565b506060820151600382019061138890826140c2565b50608082015160048201805460ff191691151591909117905560a0820151600582015560c0820151600682015560e082015180516113d09160078401916020909101906137ff565b506101009190910151600890910155335f9081526002602052604081206003018054916113fc83614066565b9091555050335f90815260026020908152604080832042600491820155909152812080549161142a83614066565b9091555050604051339061143f90849061418f565b60405180910390207fbded8ce793fed0437c054f8c4f1ded90212bb54ec87aaf3a338f5236e71cfcd88a8a8a8a8a8a604051611480969594939291906141cd565b60405180910390a35050505050505050565b60606005805480602002602001604051908101604052809291908181526020015f905b8282101561155d578382905f5260205f200180546114d290614006565b80601f01602080910402602001604051908101604052809291908181526020018280546114fe90614006565b80156115495780601f1061152057610100808354040283529160200191611549565b820191905f5260205f20905b81548152906001019060200180831161152c57829003601f168201915b5050505050815260200190600101906114b5565b50505050905090565b5f6115a784848080601f0160208091040260200160405190810160405280939291908181526020018383808284375f92019190915250869250612dd0915050565b949350505050565b6001600160a01b0381165f908152600260205260408120600401546115d890620151809061417c565b421192915050565b600554606090819081908190806001600160401b0381111561160457611604613dd1565b60405190808252806020026020018201604052801561163757816020015b60608152602001906001900390816116225790505b509450806001600160401b0381111561165257611652613dd1565b60405190808252806020026020018201604052801561167b578160200160208202803683370190505b509350806001600160401b0381111561169657611696613dd1565b6040519080825280602002602001820160405280156116bf578160200160208202803683370190505b509250806001600160401b038111156116da576116da613dd1565b604051908082528060200260200182016040528015611703578160200160208202803683370190505b5091505f5b8181101561189e575f600582815481106117245761172461403e565b905f5260205f2001805461173790614006565b80601f016020809104026020016040519081016040528092919081815260200182805461176390614006565b80156117ae5780601f10611785576101008083540402835291602001916117ae565b820191905f5260205f20905b81548152906001019060200180831161179157829003601f168201915b50505050509050808783815181106117c8576117c861403e565b60200260200101819052506001816040516117e3919061418f565b9081526020016040518091039020600201548683815181106118075761180761403e565b602002602001018181525050600181604051611823919061418f565b90815260200160405180910390206001018054905085838151811061184a5761184a61403e565b602002602001018181525050600181604051611866919061418f565b90815260200160405180910390206003015484838151811061188a5761188a61403e565b602090810291909101015250600101611708565b505f5b6118ac600183614215565b811015611b38575f5b60016118c18385614215565b6118cb9190614215565b811015611b2f57856118de82600161417c565b815181106118ee576118ee61403e565b60200260200101518682815181106119085761190861403e565b60200260200101511015611b27578561192282600161417c565b815181106119325761193261403e565b602002602001015186828151811061194c5761194c61403e565b60200260200101518783815181106119665761196661403e565b602002602001018884600161197b919061417c565b8151811061198b5761198b61403e565b602090810291909101019190915252866119a682600161417c565b815181106119b6576119b661403e565b60200260200101518782815181106119d0576119d061403e565b60200260200101518883815181106119ea576119ea61403e565b60200260200101898460016119ff919061417c565b81518110611a0f57611a0f61403e565b60209081029190910101919091525284611a2a82600161417c565b81518110611a3a57611a3a61403e565b6020026020010151858281518110611a5457611a5461403e565b6020026020010151868381518110611a6e57611a6e61403e565b6020026020010187846001611a83919061417c565b81518110611a9357611a9361403e565b60209081029190910101919091525283611aae82600161417c565b81518110611abe57611abe61403e565b6020026020010151848281518110611ad857611ad861403e565b6020026020010151858381518110611af257611af261403e565b6020026020010186846001611b07919061417c565b81518110611b1757611b1761403e565b6020908102919091010191909152525b6001016118b5565b506001016118a1565b505090919293565b611b48613048565b611b515f613074565b565b6001600160a01b0381165f90815260026020526040812080546060929190611b7a90614006565b80601f0160208091040260200160405190810160405280929190818152602001828054611ba690614006565b8015611bf15780601f10611bc857610100808354040283529160200191611bf1565b820191905f5260205f20905b815481529060010190602001808311611bd457829003601f168201915b5050505050905080515f03611c3857604080515f8082526020820190925290611c30565b611c1d613862565b815260200190600190039081611c155790505b509392505050565b5f805b600383604051611c4b919061418f565b90815260405190819003602001902054811015611ccf57846001600160a01b0316600384604051611c7c919061418f565b90815260200160405180910390208281548110611c9b57611c9b61403e565b5f9182526020909120600990910201546001600160a01b031603611cc75781611cc381614066565b9250505b600101611c3b565b505f816001600160401b03811115611ce957611ce9613dd1565b604051908082528060200260200182016040528015611d2257816020015b611d0f613862565b815260200190600190039081611d075790505b5090505f805b600385604051611d38919061418f565b9081526040519081900360200190205481101561208157866001600160a01b0316600386604051611d69919061418f565b90815260200160405180910390208281548110611d8857611d8861403e565b5f9182526020909120600990910201546001600160a01b03160361207957600385604051611db6919061418f565b90815260200160405180910390208181548110611dd557611dd561403e565b5f91825260209182902060408051610120810190915260099092020180546001600160a01b031682526001810180549293919291840191611e1590614006565b80601f0160208091040260200160405190810160405280929190818152602001828054611e4190614006565b8015611e8c5780601f10611e6357610100808354040283529160200191611e8c565b820191905f5260205f20905b815481529060010190602001808311611e6f57829003601f168201915b50505050508152602001600282018054611ea590614006565b80601f0160208091040260200160405190810160405280929190818152602001828054611ed190614006565b8015611f1c5780601f10611ef357610100808354040283529160200191611f1c565b820191905f5260205f20905b815481529060010190602001808311611eff57829003601f168201915b50505050508152602001600382018054611f3590614006565b80601f0160208091040260200160405190810160405280929190818152602001828054611f6190614006565b8015611fac5780601f10611f8357610100808354040283529160200191611fac565b820191905f5260205f20905b815481529060010190602001808311611f8f57829003601f168201915b50505050508152602001600482015f9054906101000a900460ff1615151515815260200160058201548152602001600682015481526020016007820180548060200260200160405190810160405280929190818152602001828054801561203a57602002820191905f5260205f20905b81546001600160a01b0316815260019091019060200180831161201c575b5050505050815260200160088201548152505083838151811061205f5761205f61403e565b6020026020010181905250818061207590614066565b9250505b600101611d28565b509095945050505050565b80516020818301810180516001825292820191909301209152805481906120b290614006565b80601f01602080910402602001604051908101604052809291908181526020018280546120de90614006565b80156121295780601f1061210057610100808354040283529160200191612129565b820191905f5260205f20905b81548152906001019060200180831161210c57829003601f168201915b5050505060028301546003840154600490940154929390929091506001600160a01b03811690600160a01b900460ff1685565b335f908152600260205260408120805461217590614006565b80601f01602080910402602001604051908101604052809291908181526020018280546121a190614006565b80156121ec5780601f106121c3576101008083540402835291602001916121ec565b820191905f5260205f20905b8154815290600101906020018083116121cf57829003601f168201915b505050505090505f8151116122345760405162461bcd60e51b815260206004820152600e60248201526d139bdd081a5b8818481cdc5d585960921b60448201526064016109b6565b5f600182604051612245919061418f565b90815260405190819003602001902090505f5b600182015481101561235657336001600160a01b03168260010182815481106122835761228361403e565b5f918252602090912001546001600160a01b03160361234e576001808301805490916122ae91614215565b815481106122be576122be61403e565b5f918252602090912001546001830180546001600160a01b0390921691839081106122eb576122eb61403e565b905f5260205f20015f6101000a8154816001600160a01b0302191690836001600160a01b031602179055508160010180548061232957612329614228565b5f8281526020902081015f1990810180546001600160a01b0319169055019055612356565b600101612258565b50335f9081526002602052604081209061237082826138b4565b505f6001820181905560028201819055600382018190556004820181905560059091015560405133906123a490849061418f565b604051908190038120428252907f3b953c43d4b38bbdd15ea55013e377817c65df547140796bb5aac5fa91f7d2539060200160405180910390a35050565b60605f5f5f5f5f5f60025f896001600160a01b03166001600160a01b031681526020019081526020015f206040518060c00160405290815f8201805461242790614006565b80601f016020809104026020016040519081016040528092919081815260200182805461245390614006565b801561249e5780601f106124755761010080835404028352916020019161249e565b820191905f5260205f20905b81548152906001019060200180831161248157829003601f168201915b50505050508152602001600182015481526020016002820154815260200160038201548152602001600482015481526020016005820154815250509050805f015181602001518260400151836060015184608001518560a001519650965096509650965096505091939550919395565b5f5f606060038686604051612524929190613ff7565b9081526040519081900360200190205484106125725760405162461bcd60e51b815260206004820152600d60248201526c092dcecc2d8d2c840d2dcc8caf609b1b60448201526064016109b6565b5f60038787604051612585929190613ff7565b908152602001604051809103902085815481106125a4576125a461403e565b905f5260205f20906009020190508060080154816004015f9054906101000a900460ff16826007018080548060200260200160405190810160405280929190818152602001828054801561261f57602002820191905f5260205f20905b81546001600160a01b03168152600190910190602001808311612601575b505050505090509350935093505093509350939050565b60026020525f908152604090208054819061265090614006565b80601f016020809104026020016040519081016040528092919081815260200182805461267c90614006565b80156126c75780601f1061269e576101008083540402835291602001916126c7565b820191905f5260205f20905b8154815290600101906020018083116126aa57829003601f168201915b5050505050908060010154908060020154908060030154908060040154908060050154905086565b6126f7613048565b6001600160a01b03811661273f5760405162461bcd60e51b815260206004820152600f60248201526e496e76616c6964206164647265737360881b60448201526064016109b6565b600780546001600160a01b0319166001600160a01b0383169081179091556040517fe87ce4d39c8b237914858ddc464301aad9275673badeda2bfbff01dacfec7e4a905f90a250565b815160208184018101805160038252928201918501919091209190528054829081106127b2575f80fd5b5f918252602090912060099091020180546001820180546001600160a01b0390921694509192506127e290614006565b80601f016020809104026020016040519081016040528092919081815260200182805461280e90614006565b80156128595780601f1061283057610100808354040283529160200191612859565b820191905f5260205f20905b81548152906001019060200180831161283c57829003601f168201915b50505050509080600201805461286e90614006565b80601f016020809104026020016040519081016040528092919081815260200182805461289a90614006565b80156128e55780601f106128bc576101008083540402835291602001916128e5565b820191905f5260205f20905b8154815290600101906020018083116128c857829003601f168201915b5050505050908060030180546128fa90614006565b80601f016020809104026020016040519081016040528092919081815260200182805461292690614006565b80156129715780601f1061294857610100808354040283529160200191612971565b820191905f5260205f20905b81548152906001019060200180831161295457829003601f168201915b50505050600483015460058401546006850154600890950154939460ff9092169390925088565b81815f82828080601f0160208091040260200160405190810160405280939291908181526020018383808284375f9201919091525050825192935050506003118015906129e757506020815111155b612a335760405162461bcd60e51b815260206004820152601960248201527f496e76616c6964207371756164206e616d65206c656e6774680000000000000060448201526064016109b6565b335f8181526002602052604090208054612a4c90614006565b159050612a905760405162461bcd60e51b8152602060048201526012602482015271105b1c9958591e481a5b8818481cdc5d585960721b60448201526064016109b6565b60018686604051612aa2929190613ff7565b9081526040519081900360200190206004015460ff600160a01b9091041615612b045760405162461bcd60e51b8152602060048201526014602482015273537175616420616c72656164792065786973747360601b60448201526064016109b6565b6040805160e06020601f8901819004028201810190925260c081018781526060928291908a908a90819085018382808284375f92018290525093855250505060208201849052604080830191909152426060830152336080830152600160a090920182905251612b77908a908a90613ff7565b90815260405190819003602001902081518190612b9490826140c2565b506020828101518051612bad92600185019201906137ff565b5060408281015160028301556060830151600383015560808301516004909201805460a0909401511515600160a01b026001600160a81b03199094166001600160a01b039093169290921792909217905551600190612c0f9089908990613ff7565b9081526040805191829003602090810183206001908101805491820181555f9081528290200180546001600160a01b0319163317905560e0601f8a018290049091028301810190915260c0820188815282918a908a90819085018382808284375f920182905250938552505050602080830182905242604080850191909152606084018390526080840183905260a0909301829052338252600290522081518190612cba90826140c2565b50602082015160018083019190915560408301516002830155606083015160038301556080830151600483015560a090920151600591820155805491820181555f527f036b6384b5eca791c62761152d0c79bb0604c104a5fb6f4eb0703f3154bb3db001612d2987898361423c565b5060068054905f612d3983614066565b90915550506040513390612d509089908990613ff7565b604051908190038120428252907f5037a17e0d499e2060583d8b45f9a3f60075f9412b5058b60ac1e081a29dea5d9060200160405180910390a350505050505050565b612d9b613048565b6001600160a01b038116612dc457604051631e4fbdf760e01b81525f60048201526024016109b6565b612dcd81613074565b50565b5f805b600184604051612de3919061418f565b90815260405190819003602001902060010154811015612e6457826001600160a01b0316600185604051612e17919061418f565b90815260200160405180910390206001018281548110612e3957612e3961403e565b5f918252602090912001546001600160a01b031603612e5c57600191505061074c565b600101612dd3565b505f9392505050565b5f600384604051612e7e919061418f565b90815260200160405180910390208381548110612e9d57612e9d61403e565b5f91825260209091206004600990920201908101805460ff19166001908117909155604051919250908190612ed390879061418f565b90815260200160405180910390206002015f828254612ef2919061417c565b90915550506001600160a01b0382165f9081526002602052604081206001908101805491929091612f2490849061417c565b90915550506040516001600160a01b03831690612f4290869061418f565b60408051918290038220868352426020840152917fdaaf3a30dc2b6b4178390649e99969110311271f62e3cf5ffc7c30b37e75bcde910160405180910390a3816001600160a01b031684604051612f99919061418f565b60405180910390207f1254c149e16ea1dd1993d36a0862f16127b229fe980aee78b8a283843a9cc329600187604051612fd2919061418f565b908152604051602091819003820181206002015481520160405180910390a3612ffa826130c3565b5f5b6007820154811015613041576130398260070182815481106130205761302061403e565b5f918252602090912001546001600160a01b03166130c3565b600101612ffc565b5050505050565b5f546001600160a01b03163314611b515760405163118cdaa760e01b81523360048201526024016109b6565b5f80546001600160a01b038381166001600160a01b0319831681178455604051919092169283917f8be0079c531659141344cd1fd0a4f28419497f9722a3daafe3b4186f6b6457e09190a35050565b6007546001600160a01b03166130d65750565b6007546001600160a01b038281165f90815260026020526040902060018181015492909316929091148015613175575060405163075e18d160e31b81526001600160a01b03831690633af0c688906131349086905f906004016142f5565b602060405180830381865afa15801561314f573d5f5f3e3d5ffd5b505050506040513d601f19601f82011682018060405250810190613173919061432e565b155b156132205760405163aa131a6960e01b81525f906001600160a01b0384169063aa131a69906131aa90879085906004016142f5565b6020604051808303815f875af11580156131c6573d5f5f3e3d5ffd5b505050506040513d601f19601f820116820180604052508101906131ea919061434d565b604080515f8152602081018390529192506001600160a01b038616915f5160206143655f395f51905f52910160405180910390a2505b8060010154600a14801561329f575060405163075e18d160e31b81526001600160a01b03831690633af0c6889061325e9086906001906004016142f5565b602060405180830381865afa158015613279573d5f5f3e3d5ffd5b505050506040513d601f19601f8201168201806040525081019061329d919061432e565b155b1561334c5760405163aa131a6960e01b81525f906001600160a01b0384169063aa131a69906132d59087906001906004016142f5565b6020604051808303815f875af11580156132f1573d5f5f3e3d5ffd5b505050506040513d601f19601f82011682018060405250810190613315919061434d565b6040805160018152602081018390529192506001600160a01b038616915f5160206143655f395f51905f52910160405180910390a2505b806001015460321480156133cb575060405163075e18d160e31b81526001600160a01b03831690633af0c6889061338a9086906002906004016142f5565b602060405180830381865afa1580156133a5573d5f5f3e3d5ffd5b505050506040513d601f19601f820116820180604052508101906133c9919061432e565b155b156134785760405163aa131a6960e01b81525f906001600160a01b0384169063aa131a69906134019087906002906004016142f5565b6020604051808303815f875af115801561341d573d5f5f3e3d5ffd5b505050506040513d601f19601f82011682018060405250810190613441919061434d565b6040805160028152602081018390529192506001600160a01b038616915f5160206143655f395f51905f52910160405180910390a2505b806001015460641480156134f7575060405163075e18d160e31b81526001600160a01b03831690633af0c688906134b69086906003906004016142f5565b602060405180830381865afa1580156134d1573d5f5f3e3d5ffd5b505050506040513d601f19601f820116820180604052508101906134f5919061432e565b155b156135a45760405163aa131a6960e01b81525f906001600160a01b0384169063aa131a699061352d9087906003906004016142f5565b6020604051808303815f875af1158015613549573d5f5f3e3d5ffd5b505050506040513d601f19601f8201168201806040525081019061356d919061434d565b6040805160038152602081018390529192506001600160a01b038616915f5160206143655f395f51905f52910160405180910390a2505b80600501546005148015613622575060405163075e18d160e31b81526001600160a01b03831690633af0c688906135e190869060049081016142f5565b602060405180830381865afa1580156135fc573d5f5f3e3d5ffd5b505050506040513d601f19601f82011682018060405250810190613620919061432e565b155b156136ce5760405163aa131a6960e01b81525f906001600160a01b0384169063aa131a699061365790879060049081016142f5565b6020604051808303815f875af1158015613673573d5f5f3e3d5ffd5b505050506040513d601f19601f82011682018060405250810190613697919061434d565b6040805160048152602081018390529192506001600160a01b038616915f5160206143655f395f51905f52910160405180910390a2505b8060010154601414801561374d575060405163075e18d160e31b81526001600160a01b03831690633af0c6889061370c9086906005906004016142f5565b602060405180830381865afa158015613727573d5f5f3e3d5ffd5b505050506040513d601f19601f8201168201806040525081019061374b919061432e565b155b156137fa5760405163aa131a6960e01b81525f906001600160a01b0384169063aa131a69906137839087906005906004016142f5565b6020604051808303815f875af115801561379f573d5f5f3e3d5ffd5b505050506040513d601f19601f820116820180604052508101906137c3919061434d565b6040805160058152602081018390529192506001600160a01b038616915f5160206143655f395f51905f52910160405180910390a2505b505050565b828054828255905f5260205f20908101928215613852579160200282015b8281111561385257825182546001600160a01b0319166001600160a01b0390911617825560209092019160019091019061381d565b5061385e9291506138e7565b5090565b6040518061012001604052805f6001600160a01b031681526020016060815260200160608152602001606081526020015f151581526020015f81526020015f8152602001606081526020015f81525090565b5080546138c090614006565b5f825580601f106138cf575050565b601f0160209004905f5260205f2090810190612dcd91905b5b8082111561385e575f81556001016138e8565b5f5f83601f84011261390b575f5ffd5b5081356001600160401b03811115613921575f5ffd5b602083019150836020828501011115613938575f5ffd5b9250929050565b5f5f60208385031215613950575f5ffd5b82356001600160401b03811115613965575f5ffd5b613971858286016138fb565b90969095509350505050565b5f81518084528060208401602086015e5f602082860101526020601f19601f83011685010191505092915050565b5f8151808452602084019350602083015f5b828110156139e45781516001600160a01b03168652602095860195909101906001016139bd565b5093949350505050565b5f602082016020835280845180835260408501915060408160051b8601019250602086015f5b82811015613ae957868503603f19018452815180516001600160a01b0316865260208101516101206020880152613a4f61012088018261397d565b905060408201518782036040890152613a68828261397d565b91505060608201518782036060890152613a82828261397d565b9150506080820151613a98608089018215159052565b5060a082015160a088015260c082015160c088015260e082015187820360e0890152613ac482826139ab565b6101009384015198909301979097525094506020938401939190910190600101613a14565b50929695505050505050565b60c081525f613b0760c083018961397d565b8281036020840152613b1981896139ab565b6040840197909752505060608101939093526001600160a01b0391909116608083015260a09091015292915050565b5f60208284031215613b58575f5ffd5b5035919050565b602081525f613b71602083018461397d565b9392505050565b80356001600160a01b0381168114613b8e575f5ffd5b919050565b5f60208284031215613ba3575f5ffd5b613b7182613b78565b5f5f5f60408486031215613bbe575f5ffd5b83356001600160401b03811115613bd3575f5ffd5b613bdf868287016138fb565b909790965060209590950135949350505050565b5f5f5f5f5f5f60608789031215613c08575f5ffd5b86356001600160401b03811115613c1d575f5ffd5b613c2989828a016138fb565b90975095505060208701356001600160401b03811115613c47575f5ffd5b613c5389828a016138fb565b90955093505060408701356001600160401b03811115613c71575f5ffd5b613c7d89828a016138fb565b979a9699509497509295939492505050565b5f82825180855260208501945060208160051b830101602085015f5b83811015613cdd57601f19858403018852613cc783835161397d565b6020988901989093509190910190600101613cab565b50909695505050505050565b602081525f613b716020830184613c8f565b5f5f5f60408486031215613d0d575f5ffd5b83356001600160401b03811115613d22575f5ffd5b613d2e868287016138fb565b9094509250613d41905060208501613b78565b90509250925092565b5f8151808452602084019350602083015f5b828110156139e4578151865260209586019590910190600101613d5c565b608081525f613d8c6080830187613c8f565b8281036020840152613d9e8187613d4a565b90508281036040840152613db28186613d4a565b90508281036060840152613dc68185613d4a565b979650505050505050565b634e487b7160e01b5f52604160045260245ffd5b5f82601f830112613df4575f5ffd5b81356001600160401b03811115613e0d57613e0d613dd1565b604051601f8201601f19908116603f011681016001600160401b0381118282101715613e3b57613e3b613dd1565b604052818152838201602001851015613e52575f5ffd5b816020850160208301375f918101602001919091529392505050565b5f60208284031215613e7e575f5ffd5b81356001600160401b03811115613e93575f5ffd5b6115a784828501613de5565b60a081525f613eb160a083018861397d565b60208301969096525060408101939093526001600160a01b039190911660608301521515608090910152919050565b60c081525f613ef260c083018961397d565b60208301979097525060408101949094526060840192909252608083015260a090910152919050565b8381528215156020820152606060408201525f613f3b60608301846139ab565b95945050505050565b5f5f60408385031215613f55575f5ffd5b82356001600160401b03811115613f6a575f5ffd5b613f7685828601613de5565b95602094909401359450505050565b6001600160a01b0389168152610100602082018190525f90613fa99083018a61397d565b8281036040840152613fbb818a61397d565b90508281036060840152613fcf818961397d565b9615156080840152505060a081019390935260c083019190915260e090910152949350505050565b818382375f9101908152919050565b600181811c9082168061401a57607f821691505b60208210810361403857634e487b7160e01b5f52602260045260245ffd5b50919050565b634e487b7160e01b5f52603260045260245ffd5b634e487b7160e01b5f52601160045260245ffd5b5f6001820161407757614077614052565b5060010190565b601f8211156137fa57805f5260205f20601f840160051c810160208510156140a35750805b601f840160051c820191505b81811015613041575f81556001016140af565b81516001600160401b038111156140db576140db613dd1565b6140ef816140e98454614006565b8461407e565b6020601f821160018114614121575f831561410a5750848201515b5f19600385901b1c1916600184901b178455613041565b5f84815260208120601f198516915b828110156141505787850151825560209485019460019092019101614130565b508482101561416d57868401515f19600387901b60f8161c191681555b50505050600190811b01905550565b8082018082111561074c5761074c614052565b5f82518060208501845e5f920191825250919050565b81835281816020850137505f828201602090810191909152601f909101601f19169091010190565b606081525f6141e060608301888a6141a5565b82810360208401526141f38187896141a5565b905082810360408401526142088185876141a5565b9998505050505050505050565b8181038181111561074c5761074c614052565b634e487b7160e01b5f52603160045260245ffd5b6001600160401b0383111561425357614253613dd1565b614267836142618354614006565b8361407e565b5f601f841160018114614298575f85156142815750838201355b5f19600387901b1c1916600186901b178355613041565b5f83815260208120601f198716915b828110156142c757868501358255602094850194600190920191016142a7565b50868210156142e3575f1960f88860031b161c19848701351681555b505060018560011b0183555050505050565b6001600160a01b0383168152604081016006831061432157634e487b7160e01b5f52602160045260245ffd5b8260208301529392505050565b5f6020828403121561433e575f5ffd5b81518015158114613b71575f5ffd5b5f6020828403121561435d575f5ffd5b505191905056fe0dbdb7726a1704da165dee8b96cec65a9919e80ca5b8403954b77af3eaa7b26ca26469706673582212209e3d49fbd2ab6a57275965e95b511551eb8f066a85befcf1719bfc83403d246d64736f6c634300081e0033","linkReferences":{}},"methodIdentifiers":{"MAX_SQUAD_NAME_LENGTH()":"0ffeb198","MAX_SQUAD_SIZE()":"6e8589e9","MIN_SQUAD_NAME_LENGTH()":"45ee19bb","SUBMISSION_COOLDOWN()":"a0ec242a","VERIFICATION_THRESHOLD()":"3f53b43f","badgesAddress()":"b1ef3768","canSubmitToday(address)":"560e4184","createSquad(string)":"d44d0ce2","getAllSquads()":"4c292f10","getLeaderboard()":"6d763a6e","getSquad(string)":"16584f4b","getSquadCount()":"28391646","getSubmissionVerificationStatus(string,uint256)":"a7a2e702","getSubmissions(string)":"14ff136c","getSubmissionsForUser(address)":"72fd7947","getUserProfile(address)":"987ee156","isMember(string,address)":"53f406ef","joinSquad(string)":"376dcc1a","leaveSquad()":"909bfef5","owner()":"8da5cb5b","renounceOwnership()":"715018a6","setBadgesAddress(address)":"bce6c025","squadNames(uint256)":"21d222cd","squadSubmissions(string,uint256)":"cea9d574","squads(string)":"866e22f3","submit(string,string,string)":"46fb5ac6","transferOwnership(address)":"f2fde38b","userSubmissionCount(address)":"2ee9d968","users(address)":"a87430ba","verifySubmission(string,uint256)":"368ad787"},"id":37}