{"abi":[{"type":"constructor","inputs":[{"name":"_squadManagerAddress","type":"address","internalType":"address"}],"stateMutability":"nonpayable"},{"type":"function","name":"approve","inputs":[{"name":"to","type":"address","internalType":"address"},{"name":"tokenId","type":"uint256","internalType":"uint256"}],"outputs":[],"stateMutability":"nonpayable"},{"type":"function","name":"badgeDescriptions","inputs":[{"name":"","type":"uint256","internalType":"uint256"}],"outputs":[{"name":"","type":"string","internalType":"string"}],"stateMutability":"view"},{"type":"function","name":"badgeDetails","inputs":[{"name":"","type":"uint256","internalType":"uint256"}],"outputs":[{"name":"badgeType","type":"uint8","internalType":"enum SquadBadges.BadgeType"},{"name":"mintedAt","type":"uint256","internalType":"uint256"},{"name":"metadataURI","type":"string","internalType":"string"}],"stateMutability":"view"},{"type":"function","name":"badgeNames","inputs":[{"name":"","type":"uint256","internalType":"uint256"}],"outputs":[{"name":"","type":"string","internalType":"string"}],"stateMutability":"view"},{"type":"function","name":"balanceOf","inputs":[{"name":"owner","type":"address","internalType":"address"}],"outputs":[{"name":"","type":"uint256","internalType":"uint256"}],"stateMutability":"view"},{"type":"function","name":"batchMintBadges","inputs":[{"name":"user","type":"address","internalType":"address"},{"name":"badgeTypes","type":"uint8[]","internalType":"enum SquadBadges.BadgeType[]"}],"outputs":[],"stateMutability":"nonpayable"},{"type":"function","name":"getApproved","inputs":[{"name":"tokenId","type":"uint256","internalType":"uint256"}],"outputs":[{"name":"","type":"address","internalType":"address"}],"stateMutability":"view"},{"type":"function","name":"getBadgeCount","inputs":[{"name":"user","type":"address","internalType":"address"}],"outputs":[{"name":"","type":"uint256","internalType":"uint256"}],"stateMutability":"view"},{"type":"function","name":"getBadgeDetails","inputs":[{"name":"tokenId","type":"uint256","internalType":"uint256"}],"outputs":[{"name":"","type":"tuple","internalType":"struct SquadBadges.Badge","components":[{"name":"badgeType","type":"uint8","internalType":"enum SquadBadges.BadgeType"},{"name":"mintedAt","type":"uint256","internalType":"uint256"},{"name":"metadataURI","type":"string","internalType":"string"}]}],"stateMutability":"view"},{"type":"function","name":"getUserBadges","inputs":[{"name":"user","type":"address","internalType":"address"}],"outputs":[{"name":"","type":"uint256[]","internalType":"uint256[]"}],"stateMutability":"view"},{"type":"function","name":"hasBadge","inputs":[{"name":"user","type":"address","internalType":"address"},{"name":"badgeType","type":"uint8","internalType":"enum SquadBadges.BadgeType"}],"outputs":[{"name":"","type":"bool","internalType":"bool"}],"stateMutability":"view"},{"type":"function","name":"isApprovedForAll","inputs":[{"name":"owner","type":"address","internalType":"address"},{"name":"operator","type":"address","internalType":"address"}],"outputs":[{"name":"","type":"bool","internalType":"bool"}],"stateMutability":"view"},{"type":"function","name":"mintBadge","inputs":[{"name":"user","type":"address","internalType":"address"},{"name":"badgeType","type":"uint8","internalType":"enum SquadBadges.BadgeType"}],"outputs":[{"name":"","type":"uint256","internalType":"uint256"}],"stateMutability":"nonpayable"},{"type":"function","name":"name","inputs":[],"outputs":[{"name":"","type":"string","internalType":"string"}],"stateMutability":"view"},{"type":"function","name":"owner","inputs":[],"outputs":[{"name":"","type":"address","internalType":"address"}],"stateMutability":"view"},{"type":"function","name":"ownerOf","inputs":[{"name":"tokenId","type":"uint256","internalType":"uint256"}],"outputs":[{"name":"","type":"address","internalType":"address"}],"stateMutability":"view"},{"type":"function","name":"renounceOwnership","inputs":[],"outputs":[],"stateMutability":"nonpayable"},{"type":"function","name":"safeTransferFrom","inputs":[{"name":"from","type":"address","internalType":"address"},{"name":"to","type":"address","internalType":"address"},{"name":"tokenId","type":"uint256","internalType":"uint256"}],"outputs":[],"stateMutability":"nonpayable"},{"type":"function","name":"safeTransferFrom","inputs":[{"name":"from","type":"address","internalType":"address"},{"name":"to","type":"address","internalType":"address"},{"name":"tokenId","type":"uint256","internalType":"uint256"},{"name":"data","type":"bytes","internalType":"bytes"}],"outputs":[],"stateMutability":"nonpayable"},{"type":"function","name":"setApprovalForAll","inputs":[{"name":"operator","type":"address","internalType":"address"},{"name":"approved","type":"bool","internalType":"bool"}],"outputs":[],"stateMutability":"nonpayable"},{"type":"function","name":"squadManagerAddress","inputs":[],"outputs":[{"name":"","type":"address","internalType":"address"}],"stateMutability":"view"},{"type":"function","name":"supportsInterface","inputs":[{"name":"interfaceId","type":"bytes4","internalType":"bytes4"}],"outputs":[{"name":"","type":"bool","internalType":"bool"}],"stateMutability":"view"},{"type":"function","name":"symbol","inputs":[],"outputs":[{"name":"","type":"string","internalType":"string"}],"stateMutability":"view"},{"type":"function","name":"tokenURI","inputs":[{"name":"tokenId","type":"uint256","internalType":"uint256"}],"outputs":[{"name":"","type":"string","internalType":"string"}],"stateMutability":"view"},{"type":"function","name":"totalSupply","inputs":[],"outputs":[{"name":"","type":"uint256","internalType":"uint256"}],"stateMutability":"view"},{"type":"function","name":"transferFrom","inputs":[{"name":"from","type":"address","internalType":"address"},{"name":"to","type":"address","internalType":"address"},{"name":"tokenId","type":"uint256","internalType":"uint256"}],"outputs":[],"stateMutability":"nonpayable"},{"type":"function","name":"transferOwnership","inputs":[{"name":"newOwner","type":"address","internalType":"address"}],"outputs":[],"stateMutability":"nonpayable"},{"type":"function","name":"updateBadgeMetadata","inputs":[{"name":"tokenId","type":"uint256","internalType":"uint256"},{"name":"metadataURI","type":"string","internalType":"string"}],"outputs":[],"stateMutability":"nonpayable"},{"type":"function","name":"updateSquadManager","inputs":[{"name":"_newSquadManagerAddress","type":"address","internalType":"address"}],"outputs":[],"stateMutability":"nonpayable"},{"type":"function","name":"userBadges","inputs":[{"name":"","type":"address","internalType":"address"},{"name":"","type":"uint256","internalType":"uint256"}],"outputs":[{"name":"","type":"uint256","internalType":"uint256"}],"stateMutability":"view"},{"type":"event","name":"Approval","inputs":[{"name":"owner","type":"address","indexed":true,"internalType":"address"},{"name":"approved","type":"address","indexed":true,"internalType":"address"},{"name":"tokenId","type":"uint256","indexed":true,"internalType":"uint256"}],"anonymous":false},{"type":"event","name":"ApprovalForAll","inputs":[{"name":"owner","type":"address","indexed":true,"internalType":"address"},{"name":"operator","type":"address","indexed":true,"internalType":"address"},{"name":"approved","type":"bool","indexed":false,"internalType":"bool"}],"anonymous":false},{"type":"event","name":"BadgeMetadataUpdated","inputs":[{"name":"tokenId","type":"uint256","indexed":true,"internalType":"uint256"},{"name":"metadataURI","type":"string","indexed":false,"internalType":"string"}],"anonymous":false},{"type":"event","name":"BadgeMinted","inputs":[{"name":"user","type":"address","indexed":true,"internalType":"address"},{"name":"badgeType","type":"uint8","indexed":false,"internalType":"enum SquadBadges.BadgeType"},{"name":"tokenId","type":"uint256","indexed":false,"internalType":"uint256"}],"anonymous":false},{"type":"event","name":"OwnershipTransferred","inputs":[{"name":"previousOwner","type":"address","indexed":true,"internalType":"address"},{"name":"newOwner","type":"address","indexed":true,"internalType":"address"}],"anonymous":false},{"type":"event","name":"SquadManagerUpdated","inputs":[{"name":"oldManager","type":"address","indexed":true,"internalType":"address"},{"name":"newManager","type":"address","indexed":true,"internalType":"address"}],"anonymous":false},{"type":"event","name":"Transfer","inputs":[{"name":"from","type":"address","indexed":true,"internalType":"address"},{"name":"to","type":"address","indexed":true,"internalType":"address"},{"name":"tokenId","type":"uint256","indexed":true,"internalType":"uint256"}],"anonymous":false},{"type":"error","name":"ERC721IncorrectOwner","inputs":[{"name":"sender","type":"address","internalType":"address"},{"name":"tokenId","type":"uint256","internalType":"uint256"},{"name":"owner","type":"address","internalType":"address"}]},{"type":"error","name":"ERC721InsufficientApproval","inputs":[{"name":"operator","type":"address","internalType":"address"},{"name":"tokenId","type":"uint256","internalType":"uint256"}]},{"type":"error","name":"ERC721InvalidApprover","inputs":[{"name":"approver","type":"address","internalType":"address"}]},{"type":"error","name":"ERC721InvalidOperator","inputs":[{"name":"operator","type":"address","internalType":"address"}]},{"type":"error","name":"ERC721InvalidOwner","inputs":[{"name":"owner","type":"address","internalType":"address"}]},{"type":"error","name":"ERC721InvalidReceiver","inputs":[{"name":"receiver","type":"address","internalType":"address"}]},{"type":"error","name":"ERC721InvalidSender","inputs":[{"name":"sender","type":"address","internalType":"address"}]},{"type":"error","name":"ERC721NonexistentToken","inputs":[{"name":"tokenId","type":"uint256","internalType":"uint256"}]},{"type":"error","name":"OwnableInvalidOwner","inputs":[{"name":"owner","type":"address","internalType":"address"}]},{"type":"error","name":"OwnableUnauthorizedAccount","inputs":[{"name":"account","type":"address","internalType":"address"}]}],"bytecode":{"object":"0x60106101409081526f2334b939ba1029bab136b4b9b9b4b7b760811b610160526080908152600e6101808181526d3130205375626d697373696f6e7360901b6101a05260a0526101c08181526d3530205375626d697373696f6e7360901b6101e05260c052600f6102009081526e313030205375626d697373696f6e7360881b6102205260e052600d6102409081526c5665726966696572204865726f60981b61026052610100526102c06040526102809081526d29b8bab0b21021b430b6b834b7b760911b6102a052610120526100db90600b9060066103bf565b506040805161010081018252601e60c082019081527f5375626d697474656420796f7572206669727374206368616c6c656e6765000060e083015281528151808301835260138082527f4d616465203130207375626d697373696f6e730000000000000000000000000060208381019190915280840192909252835180850185529081527f4d616465203530207375626d697373696f6e7300000000000000000000000000818301528284015282518084018452601481527f4d61646520313030207375626d697373696f6e7300000000000000000000000081830152606083015282518084018452601681527f56657269666965642035207375626d697373696f6e73000000000000000000008183015260808301528251808401909352601083526f53636f72656420323020706f696e747360801b9083015260a081019190915261022c90600c9060066103bf565b50348015610238575f5ffd5b506040516125f13803806125f18339810160408190526102579161047d565b336040518060400160405280600b81526020016a537175616442616467657360a81b815250604051806040016040528060048152602001635342444760e01b815250815f90816102a79190610542565b5060016102b48282610542565b5050506001600160a01b0381166102e557604051631e4fbdf760e01b81525f60048201526024015b60405180910390fd5b6102ee8161036e565b506001600160a01b0381166103455760405162461bcd60e51b815260206004820152601c60248201527f496e76616c69642053717561644d616e6167657220616464726573730000000060448201526064016102dc565b600880546001600160a01b0319166001600160a01b03929092169190911790555f6007556105fc565b600680546001600160a01b038381166001600160a01b0319831681179093556040519116919082907f8be0079c531659141344cd1fd0a4f28419497f9722a3daafe3b4186f6b6457e0905f90a35050565b828054828255905f5260205f20908101928215610403579160200282015b8281111561040357825182906103f39082610542565b50916020019190600101906103dd565b5061040f929150610413565b5090565b8082111561040f575f610426828261042f565b50600101610413565b50805461043b906104be565b5f825580601f1061044a575050565b601f0160209004905f5260205f20908101906104669190610469565b50565b5b8082111561040f575f815560010161046a565b5f6020828403121561048d575f5ffd5b81516001600160a01b03811681146104a3575f5ffd5b9392505050565b634e487b7160e01b5f52604160045260245ffd5b600181811c908216806104d257607f821691505b6020821081036104f057634e487b7160e01b5f52602260045260245ffd5b50919050565b601f82111561053d57805f5260205f20601f840160051c8101602085101561051b5750805b601f840160051c820191505b8181101561053a575f8155600101610527565b50505b505050565b81516001600160401b0381111561055b5761055b6104aa565b61056f8161056984546104be565b846104f6565b6020601f8211600181146105a1575f831561058a5750848201515b5f19600385901b1c1916600184901b17845561053a565b5f84815260208120601f198516915b828110156105d057878501518255602094850194600190920191016105b0565b50848210156105ed57868401515f19600387901b60f8161c191681555b50505050600190811b01905550565b611fe8806106095f395ff3fe608060405234801561000f575f5ffd5b50600436106101d1575f3560e01c806370a08231116100fe578063b88d4fde1161009e578063e985e9c51161006e578063e985e9c51461041d578063ec7fee2614610430578063f104c7e114610443578063f2fde38b14610456575f5ffd5b8063b88d4fde146103d1578063c87b56dd146103e4578063d9983b49146103f7578063df91cc231461040a575f5ffd5b80638da5cb5b116100d95780638da5cb5b1461039257806395d89b41146103a3578063a22cb465146103ab578063aa131a69146103be575f5ffd5b806370a0823114610364578063715018a6146103775780637e67aa731461037f575f5ffd5b80632950c4bd1161017457806342842e0e1161014457806342842e0e1461030957806347461b401461031c5780636352211e1461032f5780636d1fa7b014610342575f5ffd5b80632950c4bd146102a357806337c245fe146102c35780633af0c688146102e35780633b8609e8146102f6575f5ffd5b8063095ea7b3116101af578063095ea7b31461023d5780630fb91b881461025257806318160ddd1461028857806323b872dd14610290575f5ffd5b806301ffc9a7146101d557806306fdde03146101fd578063081812fc14610212575b5f5ffd5b6101e86101e3366004611714565b610469565b60405190151581526020015b60405180910390f35b6102056104ba565b6040516101f49190611764565b610225610220366004611776565b610549565b6040516001600160a01b0390911681526020016101f4565b61025061024b3660046117a8565b610570565b005b61027a6102603660046117d0565b6001600160a01b03165f9081526009602052604090205490565b6040519081526020016101f4565b60075461027a565b61025061029e3660046117e9565b61057f565b6102b66102b1366004611776565b61060d565b6040516101f49190611857565b6102d66102d13660046117d0565b610741565b6040516101f4919061188c565b6101e86102f13660046118dc565b6107aa565b61025061030436600461190d565b61088f565b6102506103173660046117e9565b610a54565b61025061032a36600461198e565b610a73565b61022561033d366004611776565b610b09565b610355610350366004611776565b610b13565b6040516101f4939291906119f4565b61027a6103723660046117d0565b610bbf565b610250610c04565b61025061038d3660046117d0565b610c17565b6006546001600160a01b0316610225565b610205610cb8565b6102506103b9366004611a22565b610cc7565b61027a6103cc3660046118dc565b610cd2565b6102506103df366004611a6f565b610e43565b6102056103f2366004611776565b610e5b565b610205610405366004611776565b61100d565b61027a6104183660046117a8565b6110b3565b6101e861042b366004611b4c565b6110de565b600854610225906001600160a01b031681565b610205610451366004611776565b61110b565b6102506104643660046117d0565b61111a565b5f6001600160e01b031982166380ac58cd60e01b148061049957506001600160e01b03198216635b5e139f60e01b145b806104b457506301ffc9a760e01b6001600160e01b03198316145b92915050565b60605f80546104c890611b74565b80601f01602080910402602001604051908101604052809291908181526020018280546104f490611b74565b801561053f5780601f106105165761010080835404028352916020019161053f565b820191905f5260205f20905b81548152906001019060200180831161052257829003601f168201915b5050505050905090565b5f61055382611157565b505f828152600460205260409020546001600160a01b03166104b4565b61057b82823361118f565b5050565b6001600160a01b0382166105ad57604051633250574960e11b81525f60048201526024015b60405180910390fd5b5f6105b983833361119c565b9050836001600160a01b0316816001600160a01b031614610607576040516364283d7b60e01b81526001600160a01b03808616600483015260248201849052821660448201526064016105a4565b50505050565b60408051606080820183525f8083526020830152918101919091525f828152600260205260409020546001600160a01b031661065b5760405162461bcd60e51b81526004016105a490611bac565b5f828152600a6020526040908190208151606081019092528054829060ff16600581111561068b5761068b611823565b600581111561069c5761069c611823565b8152602001600182015481526020016002820180546106ba90611b74565b80601f01602080910402602001604051908101604052809291908181526020018280546106e690611b74565b80156107315780601f1061070857610100808354040283529160200191610731565b820191905f5260205f20905b81548152906001019060200180831161071457829003601f168201915b5050505050815250509050919050565b6001600160a01b0381165f9081526009602090815260409182902080548351818402810184019094528084526060939283018282801561079e57602002820191905f5260205f20905b81548152602001906001019080831161078a575b50505050509050919050565b6001600160a01b0382165f9081526009602090815260408083208054825181850281018501909352808352849383018282801561080457602002820191905f5260205f20905b8154815260200190600101908083116107f0575b509394505f93505050505b81518110156108855783600581111561082a5761082a611823565b600a5f84848151811061083f5761083f611bda565b60209081029190910181015182528101919091526040015f205460ff16600581111561086d5761086d611823565b0361087d576001925050506104b4565b60010161080f565b505f949350505050565b6008546001600160a01b031633146108e95760405162461bcd60e51b815260206004820152601a60248201527f4f6e6c792053717561644d616e616765722063616e206d696e7400000000000060448201526064016105a4565b5f5b818110156106075760078054905f61090283611bee565b9091555050600754610914858261128e565b604051806060016040528085858581811061093157610931611bda565b90506020020160208101906109469190611c12565b600581111561095757610957611823565b8152426020808301919091526040805180830182525f80825293820152848352600a909152902081518154829060ff1916600183600581111561099c5761099c611823565b021790555060208201516001820155604082015160028201906109bf9082611c6f565b5050506001600160a01b0385165f818152600960209081526040822080546001810182559083529120018290557f0dbdb7726a1704da165dee8b96cec65a9919e80ca5b8403954b77af3eaa7b26c858585818110610a1f57610a1f611bda565b9050602002016020810190610a349190611c12565b83604051610a43929190611d2a565b60405180910390a2506001016108eb565b610a6e83838360405180602001604052805f815250610e43565b505050565b610a7b6112ef565b5f838152600260205260409020546001600160a01b0316610aae5760405162461bcd60e51b81526004016105a490611bac565b5f838152600a60205260409020600201610ac9828483611d45565b50827fb810609e93b7325976c078b96d9c92d3160d0d165073b8c9a8a6a4d257fd04778383604051610afc929190611dff565b60405180910390a2505050565b5f6104b482611157565b600a6020525f908152604090208054600182015460028301805460ff909316939192610b3e90611b74565b80601f0160208091040260200160405190810160405280929190818152602001828054610b6a90611b74565b8015610bb55780601f10610b8c57610100808354040283529160200191610bb5565b820191905f5260205f20905b815481529060010190602001808311610b9857829003601f168201915b5050505050905083565b5f6001600160a01b038216610be9576040516322718ad960e21b81525f60048201526024016105a4565b506001600160a01b03165f9081526003602052604090205490565b610c0c6112ef565b610c155f61131c565b565b610c1f6112ef565b6001600160a01b038116610c675760405162461bcd60e51b815260206004820152600f60248201526e496e76616c6964206164647265737360881b60448201526064016105a4565b600880546001600160a01b038381166001600160a01b0319831681179093556040519116919082907f568661ae783870f7539560507e9027e7bd53319b803d419b24ff70e73d88b7dd905f90a35050565b6060600180546104c890611b74565b61057b33838361136d565b6008545f906001600160a01b03163314610d2e5760405162461bcd60e51b815260206004820152601a60248201527f4f6e6c792053717561644d616e616765722063616e206d696e7400000000000060448201526064016105a4565b60078054905f610d3d83611bee565b9091555050600754610d4f848261128e565b6040518060600160405280846005811115610d6c57610d6c611823565b8152426020808301919091526040805180830182525f80825293820152848352600a909152902081518154829060ff19166001836005811115610db157610db1611823565b02179055506020820151600182015560408201516002820190610dd49082611c6f565b5050506001600160a01b0384165f81815260096020908152604080832080546001810182559084529190922001839055517f0dbdb7726a1704da165dee8b96cec65a9919e80ca5b8403954b77af3eaa7b26c90610e349086908590611d2a565b60405180910390a29392505050565b610e4e84848461057f565b610607338585858561140b565b5f818152600260205260409020546060906001600160a01b0316610e915760405162461bcd60e51b81526004016105a490611bac565b5f828152600a60205260408082208151606081019092528054829060ff166005811115610ec057610ec0611823565b6005811115610ed157610ed1611823565b815260200160018201548152602001600282018054610eef90611b74565b80601f0160208091040260200160405190810160405280929190818152602001828054610f1b90611b74565b8015610f665780601f10610f3d57610100808354040283529160200191610f66565b820191905f5260205f20905b815481529060010190602001808311610f4957829003601f168201915b50505050508152505090505f8160400151511115610f88576040015192915050565b8051600b906005811115610f9e57610f9e611823565b81548110610fae57610fae611bda565b905f5260205f2001600c825f01516005811115610fcd57610fcd611823565b81548110610fdd57610fdd611bda565b905f5260205f2001604051602001610ff6929190611e9b565b604051602081830303815290604052915050919050565b600b818154811061101c575f80fd5b905f5260205f20015f91509050805461103490611b74565b80601f016020809104026020016040519081016040528092919081815260200182805461106090611b74565b80156110ab5780601f10611082576101008083540402835291602001916110ab565b820191905f5260205f20905b81548152906001019060200180831161108e57829003601f168201915b505050505081565b6009602052815f5260405f2081815481106110cc575f80fd5b905f5260205f20015f91509150505481565b6001600160a01b039182165f90815260056020908152604080832093909416825291909152205460ff1690565b600c818154811061101c575f80fd5b6111226112ef565b6001600160a01b03811661114b57604051631e4fbdf760e01b81525f60048201526024016105a4565b6111548161131c565b50565b5f818152600260205260408120546001600160a01b0316806104b457604051637e27328960e01b8152600481018490526024016105a4565b610a6e8383836001611533565b5f828152600260205260408120546001600160a01b03908116908316156111c8576111c8818486611637565b6001600160a01b03811615611202576111e35f855f5f611533565b6001600160a01b0381165f90815260036020526040902080545f190190555b6001600160a01b03851615611230576001600160a01b0385165f908152600360205260409020805460010190555b5f8481526002602052604080822080546001600160a01b0319166001600160a01b0389811691821790925591518793918516917fddf252ad1be2c89b69c2b068fc378daa952ba7f163c4a11628f55a4df523b3ef91a4949350505050565b6001600160a01b0382166112b757604051633250574960e11b81525f60048201526024016105a4565b5f6112c383835f61119c565b90506001600160a01b03811615610a6e576040516339e3563760e11b81525f60048201526024016105a4565b6006546001600160a01b03163314610c155760405163118cdaa760e01b81523360048201526024016105a4565b600680546001600160a01b038381166001600160a01b0319831681179093556040519116919082907f8be0079c531659141344cd1fd0a4f28419497f9722a3daafe3b4186f6b6457e0905f90a35050565b6001600160a01b03821661139f57604051630b61174360e31b81526001600160a01b03831660048201526024016105a4565b6001600160a01b038381165f81815260056020908152604080832094871680845294825291829020805460ff191686151590811790915591519182527f17307eab39ab6107e8899845ad3d59bd9653f200f220920489ca2b5937696c31910160405180910390a3505050565b6001600160a01b0383163b1561152c57604051630a85bd0160e11b81526001600160a01b0384169063150b7a029061144d908890889087908790600401611f5b565b6020604051808303815f875af1925050508015611487575060408051601f3d908101601f1916820190925261148491810190611f97565b60015b6114ee573d8080156114b4576040519150601f19603f3d011682016040523d82523d5f602084013e6114b9565b606091505b5080515f036114e657604051633250574960e11b81526001600160a01b03851660048201526024016105a4565b805160208201fd5b6001600160e01b03198116630a85bd0160e11b1461152a57604051633250574960e11b81526001600160a01b03851660048201526024016105a4565b505b5050505050565b808061154757506001600160a01b03821615155b15611608575f61155684611157565b90506001600160a01b038316158015906115825750826001600160a01b0316816001600160a01b031614155b8015611595575061159381846110de565b155b156115be5760405163a9fbf51f60e01b81526001600160a01b03841660048201526024016105a4565b81156116065783856001600160a01b0316826001600160a01b03167f8c5be1e5ebec7d5bd14f71427d1e84f3dd0314c0f7b2291e5b200ac8c7c3b92560405160405180910390a45b505b50505f90815260046020526040902080546001600160a01b0319166001600160a01b0392909216919091179055565b61164283838361169b565b610a6e576001600160a01b03831661167057604051637e27328960e01b8152600481018290526024016105a4565b60405163177e802f60e01b81526001600160a01b0383166004820152602481018290526044016105a4565b5f6001600160a01b038316158015906116f75750826001600160a01b0316846001600160a01b031614806116d457506116d484846110de565b806116f757505f828152600460205260409020546001600160a01b038481169116145b949350505050565b6001600160e01b031981168114611154575f5ffd5b5f60208284031215611724575f5ffd5b813561172f816116ff565b9392505050565b5f81518084528060208401602086015e5f602082860101526020601f19601f83011685010191505092915050565b602081525f61172f6020830184611736565b5f60208284031215611786575f5ffd5b5035919050565b80356001600160a01b03811681146117a3575f5ffd5b919050565b5f5f604083850312156117b9575f5ffd5b6117c28361178d565b946020939093013593505050565b5f602082840312156117e0575f5ffd5b61172f8261178d565b5f5f5f606084860312156117fb575f5ffd5b6118048461178d565b92506118126020850161178d565b929592945050506040919091013590565b634e487b7160e01b5f52602160045260245ffd5b6006811061185357634e487b7160e01b5f52602160045260245ffd5b9052565b60208152611869602082018351611837565b602082015160408201525f60408301516060808401526116f76080840182611736565b602080825282518282018190525f918401906040840190835b818110156118c35783518352602093840193909201916001016118a5565b509095945050505050565b8035600681106117a3575f5ffd5b5f5f604083850312156118ed575f5ffd5b6118f68361178d565b9150611904602084016118ce565b90509250929050565b5f5f5f6040848603121561191f575f5ffd5b6119288461178d565b9250602084013567ffffffffffffffff811115611943575f5ffd5b8401601f81018613611953575f5ffd5b803567ffffffffffffffff811115611969575f5ffd5b8660208260051b840101111561197d575f5ffd5b939660209190910195509293505050565b5f5f5f604084860312156119a0575f5ffd5b83359250602084013567ffffffffffffffff8111156119bd575f5ffd5b8401601f810186136119cd575f5ffd5b803567ffffffffffffffff8111156119e3575f5ffd5b86602082840101111561197d575f5ffd5b6119fe8185611837565b826020820152606060408201525f611a196060830184611736565b95945050505050565b5f5f60408385031215611a33575f5ffd5b611a3c8361178d565b915060208301358015158114611a50575f5ffd5b809150509250929050565b634e487b7160e01b5f52604160045260245ffd5b5f5f5f5f60808587031215611a82575f5ffd5b611a8b8561178d565b9350611a996020860161178d565b925060408501359150606085013567ffffffffffffffff811115611abb575f5ffd5b8501601f81018713611acb575f5ffd5b803567ffffffffffffffff811115611ae557611ae5611a5b565b604051601f8201601f19908116603f0116810167ffffffffffffffff81118282101715611b1457611b14611a5b565b604052818152828201602001891015611b2b575f5ffd5b816020840160208301375f6020838301015280935050505092959194509250565b5f5f60408385031215611b5d575f5ffd5b611b668361178d565b91506119046020840161178d565b600181811c90821680611b8857607f821691505b602082108103611ba657634e487b7160e01b5f52602260045260245ffd5b50919050565b60208082526014908201527310985919d948191bd95cc81b9bdd08195e1a5cdd60621b604082015260600190565b634e487b7160e01b5f52603260045260245ffd5b5f60018201611c0b57634e487b7160e01b5f52601160045260245ffd5b5060010190565b5f60208284031215611c22575f5ffd5b61172f826118ce565b601f821115610a6e57805f5260205f20601f840160051c81016020851015611c505750805b601f840160051c820191505b8181101561152c575f8155600101611c5c565b815167ffffffffffffffff811115611c8957611c89611a5b565b611c9d81611c978454611b74565b84611c2b565b6020601f821160018114611ccf575f8315611cb85750848201515b5f19600385901b1c1916600184901b17845561152c565b5f84815260208120601f198516915b82811015611cfe5787850151825560209485019460019092019101611cde565b5084821015611d1b57868401515f19600387901b60f8161c191681555b50505050600190811b01905550565b60408101611d388285611837565b8260208301529392505050565b67ffffffffffffffff831115611d5d57611d5d611a5b565b611d7183611d6b8354611b74565b83611c2b565b5f601f841160018114611da2575f8515611d8b5750838201355b5f19600387901b1c1916600186901b17835561152c565b5f83815260208120601f198716915b82811015611dd15786850135825560209485019460019092019101611db1565b5086821015611ded575f1960f88860031b161c19848701351681555b505060018560011b0183555050505050565b60208152816020820152818360408301375f818301604090810191909152601f909201601f19160101919050565b5f8154611e3981611b74565b600182168015611e505760018114611e6557611e92565b60ff1983168652811515820286019350611e92565b845f5260205f205f5b83811015611e8a57815488820152600190910190602001611e6e565b505081860193505b50505092915050565b7f646174613a6170706c69636174696f6e2f6a736f6e3b757466382c7b00000000815267113730b6b2911d1160c11b601c8201525f611edd6024830185611e2d565b61088b60f21b81526e113232b9b1b934b83a34b7b7111d1160891b6002820152611f0a6011820185611e2d565b61088b60f21b81527f22696d616765223a22697066733a2f2f516d44656661756c744261646765496d60028201526330b3b29160e11b6022820152607d60f81b602682015260270195945050505050565b6001600160a01b03858116825284166020820152604081018390526080606082018190525f90611f8d90830184611736565b9695505050505050565b5f60208284031215611fa7575f5ffd5b815161172f816116ff56fea2646970667358221220aeec5103a3bccc7966df3b32f2993cc0d2d059d479a407f312409551a3aea5eb64736f6c634300081e0033","linkReferences":{}},"methodIdentifiers":{"approve(address,uint256)":"095ea7b3","badgeDescriptions(uint256)":"f104c7e1","badgeDetails(uint256)":"6d1fa7b0","badgeNames(uint256)":"d9983b49","balanceOf(address)":"70a08231","batchMintBadges(address,uint8[])":"3b8609e8","getApproved(uint256)":"081812fc","getBadgeCount(address)":"0fb91b88","getBadgeDetails(uint256)":"2950c4bd","getUserBadges(address)":"37c245fe","hasBadge(address,uint8)":"3af0c688","isApprovedForAll(address,address)":"e985e9c5","mintBadge(address,uint8)":"aa131a69","name()":"06fdde03","owner()":"8da5cb5b","ownerOf(uint256)":"6352211e","renounceOwnership()":"715018a6","safeTransferFrom(address,address,uint256)":"42842e0e","safeTransferFrom(address,address,uint256,bytes)":"b88d4fde","setApprovalForAll(address,bool)":"a22cb465","squadManagerAddress()":"ec7fee26","supportsInterface(bytes4)":"01ffc9a7","symbol()":"95d89b41","tokenURI(uint256)":"c87b56dd","totalSupply()":"18160ddd","transferFrom(address,address,uint256)":"23b872dd","transferOwnership(address)":"f2fde38b","updateBadgeMetadata(uint256,string)":"47461b40","updateSquadManager(address)":"7e67aa73","userBadges(address,uint256)":"df91cc23"},"id":36}