{"abi":[{"type":"constructor","inputs":[{"name":"_squadManagerAddress","type":"address","internalType":"address"}],"stateMutability":"nonpayable"},{"type":"function","name":"DEFAULT_ADMIN_ROLE","inputs":[],"outputs":[{"name":"","type":"bytes32","internalType":"bytes32"}],"stateMutability":"view"},{"type":"function","name":"currentChallenge","inputs":[],"outputs":[{"name":"day","type":"uint256","internalType":"uint256"},{"name":"challengeType","type":"uint256","internalType":"uint256"},{"name":"title","type":"string","internalType":"string"},{"name":"description","type":"string","internalType":"string"},{"name":"theme","type":"string","internalType":"string"},{"name":"bonusPoints","type":"uint256","internalType":"uint256"}],"stateMutability":"view"},{"type":"function","name":"dayGenerated","inputs":[{"name":"","type":"uint256","internalType":"uint256"}],"outputs":[{"name":"","type":"bool","internalType":"bool"}],"stateMutability":"view"},{"type":"function","name":"generateDailyChallenge","inputs":[],"outputs":[],"stateMutability":"nonpayable"},{"type":"function","name":"getCurrentChallenge","inputs":[],"outputs":[{"name":"","type":"tuple","internalType":"struct DailyChallenge.Challenge","components":[{"name":"day","type":"uint256","internalType":"uint256"},{"name":"challengeType","type":"uint256","internalType":"uint256"},{"name":"title","type":"string","internalType":"string"},{"name":"description","type":"string","internalType":"string"},{"name":"theme","type":"string","internalType":"string"},{"name":"bonusPoints","type":"uint256","internalType":"uint256"}]}],"stateMutability":"view"},{"type":"function","name":"getDailyParticipants","inputs":[{"name":"day","type":"uint256","internalType":"uint256"}],"outputs":[{"name":"","type":"address[]","internalType":"address[]"}],"stateMutability":"view"},{"type":"function","name":"getDailySubmission","inputs":[{"name":"day","type":"uint256","internalType":"uint256"},{"name":"user","type":"address","internalType":"address"}],"outputs":[{"name":"submitter","type":"address","internalType":"address"},{"name":"ipfsHash","type":"string","internalType":"string"},{"name":"timestamp","type":"uint256","internalType":"uint256"},{"name":"verified","type":"bool","internalType":"bool"},{"name":"verifierCount","type":"uint256","internalType":"uint256"}],"stateMutability":"view"},{"type":"function","name":"getRoleAdmin","inputs":[{"name":"role","type":"bytes32","internalType":"bytes32"}],"outputs":[{"name":"","type":"bytes32","internalType":"bytes32"}],"stateMutability":"view"},{"type":"function","name":"getStoredHash","inputs":[{"name":"day","type":"uint256","internalType":"uint256"},{"name":"user","type":"address","internalType":"address"}],"outputs":[{"name":"","type":"string","internalType":"string"},{"name":"","type":"uint256","internalType":"uint256"}],"stateMutability":"view"},{"type":"function","name":"getVerificationStatus","inputs":[{"name":"day","type":"uint256","internalType":"uint256"},{"name":"user","type":"address","internalType":"address"}],"outputs":[{"name":"verified","type":"bool","internalType":"bool"},{"name":"verifierCount","type":"uint256","internalType":"uint256"}],"stateMutability":"view"},{"type":"function","name":"grantRole","inputs":[{"name":"role","type":"bytes32","internalType":"bytes32"},{"name":"account","type":"address","internalType":"address"}],"outputs":[],"stateMutability":"nonpayable"},{"type":"function","name":"hasRole","inputs":[{"name":"role","type":"bytes32","internalType":"bytes32"},{"name":"account","type":"address","internalType":"address"}],"outputs":[{"name":"","type":"bool","internalType":"bool"}],"stateMutability":"view"},{"type":"function","name":"hasSubmittedToday","inputs":[{"name":"user","type":"address","internalType":"address"}],"outputs":[{"name":"","type":"bool","internalType":"bool"}],"stateMutability":"view"},{"type":"function","name":"renounceRole","inputs":[{"name":"role","type":"bytes32","internalType":"bytes32"},{"name":"callerConfirmation","type":"address","internalType":"address"}],"outputs":[],"stateMutability":"nonpayable"},{"type":"function","name":"revokeRole","inputs":[{"name":"role","type":"bytes32","internalType":"bytes32"},{"name":"account","type":"address","internalType":"address"}],"outputs":[],"stateMutability":"nonpayable"},{"type":"function","name":"squadManagerAddress","inputs":[],"outputs":[{"name":"","type":"address","internalType":"address"}],"stateMutability":"view"},{"type":"function","name":"submitDailyChallenge","inputs":[{"name":"ipfsHash","type":"string","internalType":"string"}],"outputs":[],"stateMutability":"nonpayable"},{"type":"function","name":"supportsInterface","inputs":[{"name":"interfaceId","type":"bytes4","internalType":"bytes4"}],"outputs":[{"name":"","type":"bool","internalType":"bool"}],"stateMutability":"view"},{"type":"function","name":"verifyDailySubmission","inputs":[{"name":"submitter","type":"address","internalType":"address"}],"outputs":[],"stateMutability":"nonpayable"},{"type":"event","name":"ChallengeAutoGenerated","inputs":[{"name":"day","type":"uint256","indexed":true,"internalType":"uint256"},{"name":"challengeType","type":"uint256","indexed":true,"internalType":"uint256"},{"name":"title","type":"string","indexed":false,"internalType":"string"},{"name":"bonusPoints","type":"uint256","indexed":false,"internalType":"uint256"}],"anonymous":false},{"type":"event","name":"DailySubmissionAdded","inputs":[{"name":"day","type":"uint256","indexed":true,"internalType":"uint256"},{"name":"user","type":"address","indexed":true,"internalType":"address"},{"name":"ipfsHash","type":"string","indexed":false,"internalType":"string"}],"anonymous":false},{"type":"event","name":"DailySubmissionVerified","inputs":[{"name":"day","type":"uint256","indexed":true,"internalType":"uint256"},{"name":"submitter","type":"address","indexed":true,"internalType":"address"},{"name":"verifier","type":"address","indexed":true,"internalType":"address"},{"name":"verifierCount","type":"uint256","indexed":false,"internalType":"uint256"}],"anonymous":false},{"type":"event","name":"HashStored","inputs":[{"name":"day","type":"uint256","indexed":true,"internalType":"uint256"},{"name":"user","type":"address","indexed":true,"internalType":"address"},{"name":"hash","type":"string","indexed":false,"internalType":"string"},{"name":"length","type":"uint256","indexed":false,"internalType":"uint256"}],"anonymous":false},{"type":"event","name":"PointsAwarded","inputs":[{"name":"day","type":"uint256","indexed":true,"internalType":"uint256"},{"name":"user","type":"address","indexed":true,"internalType":"address"},{"name":"points","type":"uint256","indexed":false,"internalType":"uint256"}],"anonymous":false},{"type":"event","name":"RoleAdminChanged","inputs":[{"name":"role","type":"bytes32","indexed":true,"internalType":"bytes32"},{"name":"previousAdminRole","type":"bytes32","indexed":true,"internalType":"bytes32"},{"name":"newAdminRole","type":"bytes32","indexed":true,"internalType":"bytes32"}],"anonymous":false},{"type":"event","name":"RoleGranted","inputs":[{"name":"role","type":"bytes32","indexed":true,"internalType":"bytes32"},{"name":"account","type":"address","indexed":true,"internalType":"address"},{"name":"sender","type":"address","indexed":true,"internalType":"address"}],"anonymous":false},{"type":"event","name":"RoleRevoked","inputs":[{"name":"role","type":"bytes32","indexed":true,"internalType":"bytes32"},{"name":"account","type":"address","indexed":true,"internalType":"address"},{"name":"sender","type":"address","indexed":true,"internalType":"address"}],"anonymous":false},{"type":"error","name":"AccessControlBadConfirmation","inputs":[]},{"type":"error","name":"AccessControlUnauthorizedAccount","inputs":[{"name":"account","type":"address","internalType":"address"},{"name":"neededRole","type":"bytes32","internalType":"bytes32"}]}],"bytecode":{"object":"0x60a060405234801561000f575f5ffd5b50604051614fb1380380614fb183398181016040528101906100319190611551565b5f73ffffffffffffffffffffffffffffffffffffffff168173ffffffffffffffffffffffffffffffffffffffff160361009f576040517f08c379a0000000000000000000000000000000000000000000000000000000008152600401610096906115d6565b60405180910390fd5b8073ffffffffffffffffffffffffffffffffffffffff1660808173ffffffffffffffffffffffffffffffffffffffff16815250506100e55f5f1b336100fa60201b60201c565b506100f46101ef60201b60201c565b50611900565b5f61010b83836113b760201b60201c565b6101e55760015f5f8581526020019081526020015f205f015f8473ffffffffffffffffffffffffffffffffffffffff1673ffffffffffffffffffffffffffffffffffffffff1681526020019081526020015f205f6101000a81548160ff02191690831515021790555061018261141a60201b60201c565b73ffffffffffffffffffffffffffffffffffffffff168273ffffffffffffffffffffffffffffffffffffffff16847f2f8788117e7eff1d82e926ec794901d17c78024a50270940304540a733656f0d60405160405180910390a4600190506101e9565b5f90505b92915050565b604051806103c001604052806040518060400160405280601781526020017f4661766f7269746520426f6f6b2043686172616374657200000000000000000081525081526020016040518060400160405280600f81526020017f4265737420506c6f74205477697374000000000000000000000000000000000081525081526020016040518060400160405280601481526020017f4d6f7374204d656d6f7261626c652051756f746500000000000000000000000081525081526020016040518060400160405280601581526020017f426f6f6b2054686174204368616e67656420596f75000000000000000000000081525081526020016040518060400160405280600e81526020017f556e64657272617465642047656d00000000000000000000000000000000000081525081526020016040518060400160405280601281526020017f4368696c64686f6f64204661766f72697465000000000000000000000000000081525081526020016040518060400160405280600d81526020017f426f6f6b2048616e676f7665720000000000000000000000000000000000000081525081526020016040518060400160405280600f81526020017f4661766f7269746520417574686f72000000000000000000000000000000000081525081526020016040518060400160405280600f81526020017f42656175746966756c20436f766572000000000000000000000000000000000081525081526020016040518060400160405280601881526020017f426f6f6b2053657474696e6720596f752764205669736974000000000000000081525081526020016040518060400160405280601881526020017f56696c6c61696e20596f75204c6f766520746f2048617465000000000000000081525081526020016040518060400160405280601481526020017f4d6f737420456d6f74696f6e616c205363656e6500000000000000000000000081525081526020016040518060400160405280601681526020017f426f6f6b2054686174204d61646520596f75204372790000000000000000000081525081526020016040518060400160405280601881526020017f426f6f6b2054686174204d61646520596f75204c61756768000000000000000081525081526020016040518060400160405280601181526020017f42657374204f70656e696e67204c696e6500000000000000000000000000000081525081526020016040518060400160405280601681526020017f4d6f73742053617469736679696e6720456e64696e670000000000000000000081525081526020016040518060400160405280601481526020017f426f6f6b20596f7520526572656164204d6f737400000000000000000000000081525081526020016040518060400160405280601881526020017f426f6f6b20596f7520436f756c646e27742046696e697368000000000000000081525081526020016040518060400160405280601481526020017f4775696c747920506c656173757265205265616400000000000000000000000081525081526020016040518060400160405280601b81526020017f426f6f6b20576974682042657374204d616769632053797374656d000000000081525081526020016040518060400160405280601881526020017f4d6f73742052656c617461626c6520436861726163746572000000000000000081525081526020016040518060400160405280601d81526020017f4265737420467269656e647368697020696e204c69746572617475726500000081525081526020016040518060400160405280601681526020017f4d6f7374204570696320426174746c65205363656e650000000000000000000081525081526020016040518060400160405280600c81526020017f4265737420526f6d616e6365000000000000000000000000000000000000000081525081526020016040518060400160405280601981526020017f4d6f737420556e697175652057726974696e67205374796c650000000000000081525081526020016040518060400160405280601f81526020017f426f6f6b2054686174204b65707420596f7520557020416c6c204e696768740081525081526020016040518060400160405280601d81526020017f4265737420426f6f6b20746f204d6f7669652041646170746174696f6e00000081525081526020016040518060400160405280601381526020017f4d6f7374204f766572726174656420426f6f6b0000000000000000000000000081525081526020016040518060400160405280601281526020017f48696464656e2047656d206f662032303234000000000000000000000000000081525081526020016040518060400160405280601281526020017f42657374205365726965732046696e616c650000000000000000000000000000815250815250600a90601e6108f3929190611421565b50604051806103c00160405280604051806080016040528060448152602001614b2b604491398152602001604051806060016040528060378152602001614ee86037913981526020016040518060600160405280602e8152602001614bf6602e913981526020016040518060600160405280602c8152602001614b6f602c91398152602001604051806060016040528060348152602001614da46034913981526020016040518060600160405280602e8152602001614afd602e913981526020016040518060600160405280603a8152602001614f4b603a913981526020016040518060600160405280602c8152602001614f85602c913981526020016040518060600160405280602e8152602001614e8f602e91398152602001604051806060016040528060338152602001614aa36033913981526020016040518060600160405280602d8152602001614c52602d913981526020016040518060600160405280602c8152602001614d4c602c913981526020016040518060400160405280601d81526020017f4120626f6f6b2074686174206d61646520796f752075676c79206372790000008152508152602001604051806060016040528060258152602001614cfd6025913981526020016040518060600160405280602c8152602001614ca7602c913981526020016040518060600160405280602c8152602001614f1f602c91398152602001604051806060016040528060248152602001614e4a602491398152602001604051806060016040528060298152602001614dd8602991398152602001604051806060016040528060218152602001614e6e6021913981526020016040518060600160405280602a8152602001614cd3602a913981526020016040518060600160405280602e8152602001614c24602e91398152602001604051806060016040528060278152602001614ad66027913981526020016040518060600160405280602c8152602001614b9b602c91398152602001604051806060016040528060288152602001614c7f6028913981526020016040518060600160405280602c8152602001614d78602c913981526020016040518060600160405280602a8152602001614d22602a913981526020016040518060600160405280602b8152602001614ebd602b91398152602001604051806060016040528060258152602001614e256025913981526020016040518060600160405280602f8152602001614bc7602f91398152602001604051806060016040528060248152602001614e0160249139815250600b90601e610caf929190611421565b50604051806103c001604052806040518060400160405280600a81526020017f436861726163746572730000000000000000000000000000000000000000000081525081526020016040518060400160405280600b81526020017f506c6f742054776973747300000000000000000000000000000000000000000081525081526020016040518060400160405280600681526020017f51756f746573000000000000000000000000000000000000000000000000000081525081526020016040518060400160405280600681526020017f496d70616374000000000000000000000000000000000000000000000000000081525081526020016040518060400160405280600b81526020017f48696464656e2047656d7300000000000000000000000000000000000000000081525081526020016040518060400160405280600981526020017f4e6f7374616c676961000000000000000000000000000000000000000000000081525081526020016040518060400160405280600d81526020017f426f6f6b2048616e676f7665720000000000000000000000000000000000000081525081526020016040518060400160405280600781526020017f417574686f72730000000000000000000000000000000000000000000000000081525081526020016040518060400160405280600981526020017f436f76657220417274000000000000000000000000000000000000000000000081525081526020016040518060400160405280600e81526020017f576f726c64204275696c64696e6700000000000000000000000000000000000081525081526020016040518060400160405280600881526020017f56696c6c61696e7300000000000000000000000000000000000000000000000081525081526020016040518060400160405280600981526020017f456d6f74696f6e616c000000000000000000000000000000000000000000000081525081526020016040518060400160405280600981526020017f536164205265616473000000000000000000000000000000000000000000000081525081526020016040518060400160405280600b81526020017f46756e6e7920526561647300000000000000000000000000000000000000000081525081526020016040518060400160405280600d81526020017f57726974696e67205374796c650000000000000000000000000000000000000081525081526020016040518060400160405280600781526020017f456e64696e67730000000000000000000000000000000000000000000000000081525081526020016040518060400160405280600a81526020017f52652d72656164696e670000000000000000000000000000000000000000000081525081526020016040518060400160405280600b81526020017f436f6e66657373696f6e7300000000000000000000000000000000000000000081525081526020016040518060400160405280601081526020017f4775696c747920506c656173757265730000000000000000000000000000000081525081526020016040518060400160405280600d81526020017f4d616769632053797374656d730000000000000000000000000000000000000081525081526020016040518060400160405280600981526020017f52656c617461626c65000000000000000000000000000000000000000000000081525081526020016040518060400160405280600a81526020017f467269656e64736869700000000000000000000000000000000000000000000081525081526020016040518060400160405280600681526020017f416374696f6e000000000000000000000000000000000000000000000000000081525081526020016040518060400160405280600781526020017f526f6d616e63650000000000000000000000000000000000000000000000000081525081526020016040518060400160405280600581526020017f5374796c6500000000000000000000000000000000000000000000000000000081525081526020016040518060400160405280600981526020017f536c6565706c657373000000000000000000000000000000000000000000000081525081526020016040518060400160405280600b81526020017f41646170746174696f6e7300000000000000000000000000000000000000000081525081526020016040518060400160405280600981526020017f486f742054616b6573000000000000000000000000000000000000000000000081525081526020016040518060400160405280600981526020017f446973636f76657279000000000000000000000000000000000000000000000081525081526020016040518060400160405280600681526020017f5365726965730000000000000000000000000000000000000000000000000000815250815250600c90601e6113b4929190611421565b50565b5f5f5f8481526020019081526020015f205f015f8373ffffffffffffffffffffffffffffffffffffffff1673ffffffffffffffffffffffffffffffffffffffff1681526020019081526020015f205f9054906101000a900460ff16905092915050565b5f33905090565b828054828255905f5260205f20908101928215611467579160200282015b828111156114665782518290816114569190611831565b509160200191906001019061143f565b5b5090506114749190611478565b5090565b5b80821115611497575f818161148e919061149b565b50600101611479565b5090565b5080546114a790611658565b5f825580601f106114b857506114d5565b601f0160209004905f5260205f20908101906114d491906114d8565b5b50565b5b808211156114ef575f815f9055506001016114d9565b5090565b5f5ffd5b5f73ffffffffffffffffffffffffffffffffffffffff82169050919050565b5f611520826114f7565b9050919050565b61153081611516565b811461153a575f5ffd5b50565b5f8151905061154b81611527565b92915050565b5f60208284031215611566576115656114f3565b5b5f6115738482850161153d565b91505092915050565b5f82825260208201905092915050565b7f496e76616c69642053717561644d616e616765722061646472657373000000005f82015250565b5f6115c0601c8361157c565b91506115cb8261158c565b602082019050919050565b5f6020820190508181035f8301526115ed816115b4565b9050919050565b5f81519050919050565b7f4e487b71000000000000000000000000000000000000000000000000000000005f52604160045260245ffd5b7f4e487b71000000000000000000000000000000000000000000000000000000005f52602260045260245ffd5b5f600282049050600182168061166f57607f821691505b6020821081036116825761168161162b565b5b50919050565b5f819050815f5260205f209050919050565b5f6020601f8301049050919050565b5f82821b905092915050565b5f600883026116e47fffffffffffffffffffffffffffffffffffffffffffffffffffffffffffffffff826116a9565b6116ee86836116a9565b95508019841693508086168417925050509392505050565b5f819050919050565b5f819050919050565b5f61173261172d61172884611706565b61170f565b611706565b9050919050565b5f819050919050565b61174b83611718565b61175f61175782611739565b8484546116b5565b825550505050565b5f5f905090565b611776611767565b611781818484611742565b505050565b5b818110156117a4576117995f8261176e565b600181019050611787565b5050565b601f8211156117e9576117ba81611688565b6117c38461169a565b810160208510156117d2578190505b6117e66117de8561169a565b830182611786565b50505b505050565b5f82821c905092915050565b5f6118095f19846008026117ee565b1980831691505092915050565b5f61182183836117fa565b9150826002028217905092915050565b61183a826115f4565b67ffffffffffffffff811115611853576118526115fe565b5b61185d8254611658565b6118688282856117a8565b5f60209050601f831160018114611899575f8415611887578287015190505b6118918582611816565b8655506118f8565b601f1984166118a786611688565b5f5b828110156118ce578489015182556001820191506020850194506020810190506118a9565b868310156118eb57848901516118e7601f8916826117fa565b8355505b6001600288020188555050505b505050505050565b60805161317d6119265f395f8181610a02015281816113580152611a01015261317d5ff3fe608060405234801561000f575f5ffd5b506004361061011f575f3560e01c806391d14854116100ab578063d547741f1161006f578063d547741f1461035b578063d71cbab214610377578063e70788aa14610393578063ec7fee261461039d578063f4ba5bf6146103bb5761011f565b806391d14854146102785780639a49f18f146102a85780639d1de1f9146102dc578063a217fddf1461030d578063a65257811461032b5761011f565b80632f2ff15d116100f25780632f2ff15d146101d157806336568abe146101ed57806346a023671461020957806351bdd585146102395780638ad8c8261461025c5761011f565b806301ffc9a714610123578063094e7c7c14610153578063202eaa9c14610183578063248a9ca3146101a1575b5f5ffd5b61013d60048036038101906101389190611e4e565b6103ec565b60405161014a9190611e93565b60405180910390f35b61016d60048036038101906101689190611edf565b610465565b60405161017a9190611e93565b60405180910390f35b61018b610482565b604051610198919061201d565b60405180910390f35b6101bb60048036038101906101b69190612070565b610669565b6040516101c891906120aa565b60405180910390f35b6101eb60048036038101906101e6919061211d565b610685565b005b6102076004803603810190610202919061211d565b6106a7565b005b610223600480360381019061021e919061215b565b610722565b6040516102309190611e93565b60405180910390f35b61024161078f565b604051610253969594939291906121dd565b60405180910390f35b610276600480360381019061027191906122b2565b61094a565b005b610292600480360381019061028d919061211d565b610e36565b60405161029f9190611e93565b60405180910390f35b6102c260048036038101906102bd91906122fd565b610e99565b6040516102d395949392919061234a565b60405180910390f35b6102f660048036038101906102f191906122fd565b610fcf565b6040516103049291906123a2565b60405180910390f35b610315611042565b60405161032291906120aa565b60405180910390f35b61034560048036038101906103409190611edf565b611048565b6040516103529190612480565b60405180910390f35b6103756004803603810190610370919061211d565b6110e4565b005b610391600480360381019061038c919061215b565b611106565b005b61039b611626565b005b6103a56119ff565b6040516103b291906124a0565b60405180910390f35b6103d560048036038101906103d091906122fd565b611a23565b6040516103e39291906124b9565b60405180910390f35b5f7f7965db0b000000000000000000000000000000000000000000000000000000007bffffffffffffffffffffffffffffffffffffffffffffffffffffffff1916827bffffffffffffffffffffffffffffffffffffffffffffffffffffffff1916148061045e575061045d82611b0e565b5b9050919050565b6009602052805f5260405f205f915054906101000a900460ff1681565b61048a611db5565b60016040518060c00160405290815f8201548152602001600182015481526020016002820180546104ba90612514565b80601f01602080910402602001604051908101604052809291908181526020018280546104e690612514565b80156105315780601f1061050857610100808354040283529160200191610531565b820191905f5260205f20905b81548152906001019060200180831161051457829003601f168201915b5050505050815260200160038201805461054a90612514565b80601f016020809104026020016040519081016040528092919081815260200182805461057690612514565b80156105c15780601f10610598576101008083540402835291602001916105c1565b820191905f5260205f20905b8154815290600101906020018083116105a457829003601f168201915b505050505081526020016004820180546105da90612514565b80601f016020809104026020016040519081016040528092919081815260200182805461060690612514565b80156106515780601f1061062857610100808354040283529160200191610651565b820191905f5260205f20905b81548152906001019060200180831161063457829003601f168201915b50505050508152602001600582015481525050905090565b5f5f5f8381526020019081526020015f20600101549050919050565b61068e82610669565b61069781611b77565b6106a18383611b8b565b50505050565b6106af611c74565b73ffffffffffffffffffffffffffffffffffffffff168173ffffffffffffffffffffffffffffffffffffffff1614610713576040517f6697b23200000000000000000000000000000000000000000000000000000000815260040160405180910390fd5b61071d8282611c7b565b505050565b5f5f6201518042610733919061259e565b90505f60075f8381526020019081526020015f205f8573ffffffffffffffffffffffffffffffffffffffff1673ffffffffffffffffffffffffffffffffffffffff1681526020019081526020015f206002015411915050919050565b6001805f0154908060010154908060020180546107ab90612514565b80601f01602080910402602001604051908101604052809291908181526020018280546107d790612514565b80156108225780601f106107f957610100808354040283529160200191610822565b820191905f5260205f20905b81548152906001019060200180831161080557829003601f168201915b50505050509080600301805461083790612514565b80601f016020809104026020016040519081016040528092919081815260200182805461086390612514565b80156108ae5780601f10610885576101008083540402835291602001916108ae565b820191905f5260205f20905b81548152906001019060200180831161089157829003601f168201915b5050505050908060040180546108c390612514565b80601f01602080910402602001604051908101604052809291908181526020018280546108ef90612514565b801561093a5780601f106109115761010080835404028352916020019161093a565b820191905f5260205f20905b81548152906001019060200180831161091d57829003601f168201915b5050505050908060050154905086565b5f620151804261095a919061259e565b905060095f8281526020019081526020015f205f9054906101000a900460ff166109b9576040517f08c379a00000000000000000000000000000000000000000000000000000000081526004016109b090612618565b60405180910390fd5b8060015f0154146109ff576040517f08c379a00000000000000000000000000000000000000000000000000000000081526004016109f690612680565b60405180910390fd5b5f7f000000000000000000000000000000000000000000000000000000000000000090505f8173ffffffffffffffffffffffffffffffffffffffff1663987ee156336040518263ffffffff1660e01b8152600401610a5d91906124a0565b5f60405180830381865afa158015610a77573d5f5f3e3d5ffd5b505050506040513d5f823e3d601f19601f82011682018060405250810190610a9f91906127cc565b505050505090505f815111610ae9576040517f08c379a0000000000000000000000000000000000000000000000000000000008152600401610ae0906128bb565b60405180910390fd5b5f60075f8581526020019081526020015f205f3373ffffffffffffffffffffffffffffffffffffffff1673ffffffffffffffffffffffffffffffffffffffff1681526020019081526020015f206002015414610b7a576040517f08c379a0000000000000000000000000000000000000000000000000000000008152600401610b7190612923565b60405180910390fd5b5f85858080601f0160208091040260200160405190810160405280939291908181526020018383808284375f81840152601f19601f8201169050808301925050505050505090505f815111610c04576040517f08c379a0000000000000000000000000000000000000000000000000000000008152600401610bfb9061298b565b60405180910390fd5b606481511115610c49576040517f08c379a0000000000000000000000000000000000000000000000000000000008152600401610c40906129f3565b60405180910390fd5b5f8190505f60075f8781526020019081526020015f205f3373ffffffffffffffffffffffffffffffffffffffff1673ffffffffffffffffffffffffffffffffffffffff1681526020019081526020015f20905033815f015f6101000a81548173ffffffffffffffffffffffffffffffffffffffff021916908373ffffffffffffffffffffffffffffffffffffffff16021790555081816001019081610cee9190612bb1565b504281600201819055505f816003015f6101000a81548160ff0219169083151502179055505f816004018190555060085f8781526020019081526020015f2033908060018154018082558091505060019003905f5260205f20015f9091909190916101000a81548173ffffffffffffffffffffffffffffffffffffffff021916908373ffffffffffffffffffffffffffffffffffffffff1602179055503373ffffffffffffffffffffffffffffffffffffffff16867f8411d73720159281949442620a4c06b7aca44980894a60d98c3b045984e0137d84604051610dd29190612c80565b60405180910390a33373ffffffffffffffffffffffffffffffffffffffff16867f514d2593ef0600332db968a607d2875ccff0fb03a4c52022f0c257e107ca8c2b848651604051610e249291906124b9565b60405180910390a35050505050505050565b5f5f5f8481526020019081526020015f205f015f8373ffffffffffffffffffffffffffffffffffffffff1673ffffffffffffffffffffffffffffffffffffffff1681526020019081526020015f205f9054906101000a900460ff16905092915050565b5f60605f5f5f5f60075f8981526020019081526020015f205f8873ffffffffffffffffffffffffffffffffffffffff1673ffffffffffffffffffffffffffffffffffffffff1681526020019081526020015f209050805f015f9054906101000a900473ffffffffffffffffffffffffffffffffffffffff16816001018260020154836003015f9054906101000a900460ff168460040154838054610f3c90612514565b80601f0160208091040260200160405190810160405280929190818152602001828054610f6890612514565b8015610fb35780601f10610f8a57610100808354040283529160200191610fb3565b820191905f5260205f20905b815481529060010190602001808311610f9657829003601f168201915b5050505050935095509550955095509550509295509295909350565b5f5f5f60075f8681526020019081526020015f205f8573ffffffffffffffffffffffffffffffffffffffff1673ffffffffffffffffffffffffffffffffffffffff1681526020019081526020015f209050806003015f9054906101000a900460ff16816004015492509250509250929050565b5f5f1b81565b606060085f8381526020019081526020015f208054806020026020016040519081016040528092919081815260200182805480156110d857602002820191905f5260205f20905b815f9054906101000a900473ffffffffffffffffffffffffffffffffffffffff1673ffffffffffffffffffffffffffffffffffffffff168152602001906001019080831161108f575b50505050509050919050565b6110ed82610669565b6110f681611b77565b6111008383611c7b565b50505050565b5f6201518042611116919061259e565b905060095f8281526020019081526020015f205f9054906101000a900460ff16611175576040517f08c379a000000000000000000000000000000000000000000000000000000000815260040161116c90612618565b60405180910390fd5b3373ffffffffffffffffffffffffffffffffffffffff168273ffffffffffffffffffffffffffffffffffffffff16036111e3576040517f08c379a00000000000000000000000000000000000000000000000000000000081526004016111da90612cea565b60405180910390fd5b5f60075f8381526020019081526020015f205f8473ffffffffffffffffffffffffffffffffffffffff1673ffffffffffffffffffffffffffffffffffffffff1681526020019081526020015f2090505f816002015411611278576040517f08c379a000000000000000000000000000000000000000000000000000000000815260040161126f90612d52565b60405180910390fd5b806003015f9054906101000a900460ff16156112c9576040517f08c379a00000000000000000000000000000000000000000000000000000000081526004016112c090612dba565b60405180910390fd5b806005015f3373ffffffffffffffffffffffffffffffffffffffff1673ffffffffffffffffffffffffffffffffffffffff1681526020019081526020015f205f9054906101000a900460ff1615611355576040517f08c379a000000000000000000000000000000000000000000000000000000000815260040161134c90612e22565b60405180910390fd5b5f7f000000000000000000000000000000000000000000000000000000000000000090505f8173ffffffffffffffffffffffffffffffffffffffff1663987ee156336040518263ffffffff1660e01b81526004016113b391906124a0565b5f60405180830381865afa1580156113cd573d5f5f3e3d5ffd5b505050506040513d5f823e3d601f19601f820116820180604052508101906113f591906127cc565b505050505090505f81511161143f576040517f08c379a0000000000000000000000000000000000000000000000000000000008152600401611436906128bb565b60405180910390fd5b826004015f81548092919061145390612e40565b91905055506001836005015f3373ffffffffffffffffffffffffffffffffffffffff1673ffffffffffffffffffffffffffffffffffffffff1681526020019081526020015f205f6101000a81548160ff0219169083151502179055503373ffffffffffffffffffffffffffffffffffffffff168573ffffffffffffffffffffffffffffffffffffffff16857f1ada978fe54dee6f7768652e1560787252a3023be4da48791768b4849572077a86600401546040516115119190612e87565b60405180910390a4600383600401541015801561153c5750826003015f9054906101000a900460ff16155b1561161f576001836003015f6101000a81548160ff0219169083151502179055508173ffffffffffffffffffffffffffffffffffffffff1663507cd30f866001600501546040518363ffffffff1660e01b815260040161159d929190612ea0565b5f604051808303815f87803b1580156115b4575f5ffd5b505af11580156115c6573d5f5f3e3d5ffd5b505050508473ffffffffffffffffffffffffffffffffffffffff16847f0dbadce3c07b5bc30ebbe2bcec3d6bb95f9b3a0bb33178ff0d61e4d7d43399156001600501546040516116169190612e87565b60405180910390a35b5050505050565b5f6201518042611636919061259e565b905060095f8281526020019081526020015f205f9054906101000a900460ff1615611696576040517f08c379a000000000000000000000000000000000000000000000000000000000815260040161168d90612f11565b60405180910390fd5b5f424443336040516020016116ae9493929190612f94565b604051602081830303815290604052805190602001205f1c90505f600a80549050826116da9190612fe1565b90505f601f836116ea9190612fe1565b60146116f69190613011565b90506040518060c00160405280858152602001600a846117169190612fe1565b8152602001600a848154811061172f5761172e613044565b5b905f5260205f2001805461174290612514565b80601f016020809104026020016040519081016040528092919081815260200182805461176e90612514565b80156117b95780601f10611790576101008083540402835291602001916117b9565b820191905f5260205f20905b81548152906001019060200180831161179c57829003601f168201915b50505050508152602001600b84815481106117d7576117d6613044565b5b905f5260205f200180546117ea90612514565b80601f016020809104026020016040519081016040528092919081815260200182805461181690612514565b80156118615780601f1061183857610100808354040283529160200191611861565b820191905f5260205f20905b81548152906001019060200180831161184457829003601f168201915b50505050508152602001600c848154811061187f5761187e613044565b5b905f5260205f2001805461189290612514565b80601f01602080910402602001604051908101604052809291908181526020018280546118be90612514565b80156119095780601f106118e057610100808354040283529160200191611909565b820191905f5260205f20905b8154815290600101906020018083116118ec57829003601f168201915b505050505081526020018281525060015f820151815f01556020820151816001015560408201518160020190816119409190612bb1565b5060608201518160030190816119569190612bb1565b50608082015181600401908161196c9190612bb1565b5060a08201518160050155905050600160095f8681526020019081526020015f205f6101000a81548160ff02191690831515021790555081847fa928db95b00adb996b75f8aa88e66ae0a597a661a2666831e7efa49e4afff685600a85815481106119da576119d9613044565b5b905f5260205f2001846040516119f19291906130f2565b60405180910390a350505050565b7f000000000000000000000000000000000000000000000000000000000000000081565b60605f5f60075f8681526020019081526020015f205f8573ffffffffffffffffffffffffffffffffffffffff1673ffffffffffffffffffffffffffffffffffffffff1681526020019081526020015f206001018054611a8190612514565b80601f0160208091040260200160405190810160405280929190818152602001828054611aad90612514565b8015611af85780601f10611acf57610100808354040283529160200191611af8565b820191905f5260205f20905b815481529060010190602001808311611adb57829003601f168201915b5050505050905080815192509250509250929050565b5f7f01ffc9a7000000000000000000000000000000000000000000000000000000007bffffffffffffffffffffffffffffffffffffffffffffffffffffffff1916827bffffffffffffffffffffffffffffffffffffffffffffffffffffffff1916149050919050565b611b8881611b83611c74565b611d64565b50565b5f611b968383610e36565b611c6a5760015f5f8581526020019081526020015f205f015f8473ffffffffffffffffffffffffffffffffffffffff1673ffffffffffffffffffffffffffffffffffffffff1681526020019081526020015f205f6101000a81548160ff021916908315150217905550611c07611c74565b73ffffffffffffffffffffffffffffffffffffffff168273ffffffffffffffffffffffffffffffffffffffff16847f2f8788117e7eff1d82e926ec794901d17c78024a50270940304540a733656f0d60405160405180910390a460019050611c6e565b5f90505b92915050565b5f33905090565b5f611c868383610e36565b15611d5a575f5f5f8581526020019081526020015f205f015f8473ffffffffffffffffffffffffffffffffffffffff1673ffffffffffffffffffffffffffffffffffffffff1681526020019081526020015f205f6101000a81548160ff021916908315150217905550611cf7611c74565b73ffffffffffffffffffffffffffffffffffffffff168273ffffffffffffffffffffffffffffffffffffffff16847ff6391f5c32d9c69d2a47ea670b442974b53935d1edc7fd64eb21e047a839171b60405160405180910390a460019050611d5e565b5f90505b92915050565b611d6e8282610e36565b611db15780826040517fe2517d3f000000000000000000000000000000000000000000000000000000008152600401611da8929190613120565b60405180910390fd5b5050565b6040518060c001604052805f81526020015f81526020016060815260200160608152602001606081526020015f81525090565b5f604051905090565b5f5ffd5b5f5ffd5b5f7fffffffff0000000000000000000000000000000000000000000000000000000082169050919050565b611e2d81611df9565b8114611e37575f5ffd5b50565b5f81359050611e4881611e24565b92915050565b5f60208284031215611e6357611e62611df1565b5b5f611e7084828501611e3a565b91505092915050565b5f8115159050919050565b611e8d81611e79565b82525050565b5f602082019050611ea65f830184611e84565b92915050565b5f819050919050565b611ebe81611eac565b8114611ec8575f5ffd5b50565b5f81359050611ed981611eb5565b92915050565b5f60208284031215611ef457611ef3611df1565b5b5f611f0184828501611ecb565b91505092915050565b611f1381611eac565b82525050565b5f81519050919050565b5f82825260208201905092915050565b8281835e5f83830152505050565b5f601f19601f8301169050919050565b5f611f5b82611f19565b611f658185611f23565b9350611f75818560208601611f33565b611f7e81611f41565b840191505092915050565b5f60c083015f830151611f9e5f860182611f0a565b506020830151611fb16020860182611f0a565b5060408301518482036040860152611fc98282611f51565b91505060608301518482036060860152611fe38282611f51565b91505060808301518482036080860152611ffd8282611f51565b91505060a083015161201260a0860182611f0a565b508091505092915050565b5f6020820190508181035f8301526120358184611f89565b905092915050565b5f819050919050565b61204f8161203d565b8114612059575f5ffd5b50565b5f8135905061206a81612046565b92915050565b5f6020828403121561208557612084611df1565b5b5f6120928482850161205c565b91505092915050565b6120a48161203d565b82525050565b5f6020820190506120bd5f83018461209b565b92915050565b5f73ffffffffffffffffffffffffffffffffffffffff82169050919050565b5f6120ec826120c3565b9050919050565b6120fc816120e2565b8114612106575f5ffd5b50565b5f81359050612117816120f3565b92915050565b5f5f6040838503121561213357612132611df1565b5b5f6121408582860161205c565b925050602061215185828601612109565b9150509250929050565b5f602082840312156121705761216f611df1565b5b5f61217d84828501612109565b91505092915050565b61218f81611eac565b82525050565b5f82825260208201905092915050565b5f6121af82611f19565b6121b98185612195565b93506121c9818560208601611f33565b6121d281611f41565b840191505092915050565b5f60c0820190506121f05f830189612186565b6121fd6020830188612186565b818103604083015261220f81876121a5565b9050818103606083015261222381866121a5565b9050818103608083015261223781856121a5565b905061224660a0830184612186565b979650505050505050565b5f5ffd5b5f5ffd5b5f5ffd5b5f5f83601f84011261227257612271612251565b5b8235905067ffffffffffffffff81111561228f5761228e612255565b5b6020830191508360018202830111156122ab576122aa612259565b5b9250929050565b5f5f602083850312156122c8576122c7611df1565b5b5f83013567ffffffffffffffff8111156122e5576122e4611df5565b5b6122f18582860161225d565b92509250509250929050565b5f5f6040838503121561231357612312611df1565b5b5f61232085828601611ecb565b925050602061233185828601612109565b9150509250929050565b612344816120e2565b82525050565b5f60a08201905061235d5f83018861233b565b818103602083015261236f81876121a5565b905061237e6040830186612186565b61238b6060830185611e84565b6123986080830184612186565b9695505050505050565b5f6040820190506123b55f830185611e84565b6123c26020830184612186565b9392505050565b5f81519050919050565b5f82825260208201905092915050565b5f819050602082019050919050565b6123fb816120e2565b82525050565b5f61240c83836123f2565b60208301905092915050565b5f602082019050919050565b5f61242e826123c9565b61243881856123d3565b9350612443836123e3565b805f5b8381101561247357815161245a8882612401565b975061246583612418565b925050600181019050612446565b5085935050505092915050565b5f6020820190508181035f8301526124988184612424565b905092915050565b5f6020820190506124b35f83018461233b565b92915050565b5f6040820190508181035f8301526124d181856121a5565b90506124e06020830184612186565b9392505050565b7f4e487b71000000000000000000000000000000000000000000000000000000005f52602260045260245ffd5b5f600282049050600182168061252b57607f821691505b60208210810361253e5761253d6124e7565b5b50919050565b7f4e487b71000000000000000000000000000000000000000000000000000000005f52601260045260245ffd5b7f4e487b71000000000000000000000000000000000000000000000000000000005f52601160045260245ffd5b5f6125a882611eac565b91506125b383611eac565b9250826125c3576125c2612544565b5b828204905092915050565b7f4e6f20616374697665206368616c6c656e676520666f7220746f6461790000005f82015250565b5f612602601d83612195565b915061260d826125ce565b602082019050919050565b5f6020820190508181035f83015261262f816125f6565b9050919050565b7f4368616c6c656e6765206d69736d6174636800000000000000000000000000005f82015250565b5f61266a601283612195565b915061267582612636565b602082019050919050565b5f6020820190508181035f8301526126978161265e565b9050919050565b5f5ffd5b7f4e487b71000000000000000000000000000000000000000000000000000000005f52604160045260245ffd5b6126d882611f41565b810181811067ffffffffffffffff821117156126f7576126f66126a2565b5b80604052505050565b5f612709611de8565b905061271582826126cf565b919050565b5f67ffffffffffffffff821115612734576127336126a2565b5b61273d82611f41565b9050602081019050919050565b5f61275c6127578461271a565b612700565b9050828152602081018484840111156127785761277761269e565b5b612783848285611f33565b509392505050565b5f82601f83011261279f5761279e612251565b5b81516127af84826020860161274a565b91505092915050565b5f815190506127c681611eb5565b92915050565b5f5f5f5f5f5f60c087890312156127e6576127e5611df1565b5b5f87015167ffffffffffffffff81111561280357612802611df5565b5b61280f89828a0161278b565b965050602061282089828a016127b8565b955050604061283189828a016127b8565b945050606061284289828a016127b8565b935050608061285389828a016127b8565b92505060a061286489828a016127b8565b9150509295509295509295565b7f4d75737420626520696e206120737175616400000000000000000000000000005f82015250565b5f6128a5601283612195565b91506128b082612871565b602082019050919050565b5f6020820190508181035f8301526128d281612899565b9050919050565b7f416c7265616479207375626d697474656420746f6461790000000000000000005f82015250565b5f61290d601783612195565b9150612918826128d9565b602082019050919050565b5f6020820190508181035f83015261293a81612901565b9050919050565b7f4950465320686173682063616e6e6f7420626520656d707479000000000000005f82015250565b5f612975601983612195565b915061298082612941565b602082019050919050565b5f6020820190508181035f8301526129a281612969565b9050919050565b7f49504653206861736820746f6f206c6f6e6700000000000000000000000000005f82015250565b5f6129dd601283612195565b91506129e8826129a9565b602082019050919050565b5f6020820190508181035f830152612a0a816129d1565b9050919050565b5f819050815f5260205f209050919050565b5f6020601f8301049050919050565b5f82821b905092915050565b5f60088302612a6d7fffffffffffffffffffffffffffffffffffffffffffffffffffffffffffffffff82612a32565b612a778683612a32565b95508019841693508086168417925050509392505050565b5f819050919050565b5f612ab2612aad612aa884611eac565b612a8f565b611eac565b9050919050565b5f819050919050565b612acb83612a98565b612adf612ad782612ab9565b848454612a3e565b825550505050565b5f5f905090565b612af6612ae7565b612b01818484612ac2565b505050565b5b81811015612b2457612b195f82612aee565b600181019050612b07565b5050565b601f821115612b6957612b3a81612a11565b612b4384612a23565b81016020851015612b52578190505b612b66612b5e85612a23565b830182612b06565b50505b505050565b5f82821c905092915050565b5f612b895f1984600802612b6e565b1980831691505092915050565b5f612ba18383612b7a565b9150826002028217905092915050565b612bba82611f19565b67ffffffffffffffff811115612bd357612bd26126a2565b5b612bdd8254612514565b612be8828285612b28565b5f60209050601f831160018114612c19575f8415612c07578287015190505b612c118582612b96565b865550612c78565b601f198416612c2786612a11565b5f5b82811015612c4e57848901518255600182019150602085019450602081019050612c29565b86831015612c6b5784890151612c67601f891682612b7a565b8355505b6001600288020188555050505b505050505050565b5f6020820190508181035f830152612c9881846121a5565b905092915050565b7f43616e6e6f742076657269667920796f757273656c66000000000000000000005f82015250565b5f612cd4601683612195565b9150612cdf82612ca0565b602082019050919050565b5f6020820190508181035f830152612d0181612cc8565b9050919050565b7f5375626d697373696f6e20646f65736e277420657869737400000000000000005f82015250565b5f612d3c601883612195565b9150612d4782612d08565b602082019050919050565b5f6020820190508181035f830152612d6981612d30565b9050919050565b7f416c7265616479207665726966696564000000000000000000000000000000005f82015250565b5f612da4601083612195565b9150612daf82612d70565b602082019050919050565b5f6020820190508181035f830152612dd181612d98565b9050919050565b7f416c72656164792076657269666965642074686973207375626d697373696f6e5f82015250565b5f612e0c602083612195565b9150612e1782612dd8565b602082019050919050565b5f6020820190508181035f830152612e3981612e00565b9050919050565b5f612e4a82611eac565b91507fffffffffffffffffffffffffffffffffffffffffffffffffffffffffffffffff8203612e7c57612e7b612571565b5b600182019050919050565b5f602082019050612e9a5f830184612186565b92915050565b5f604082019050612eb35f83018561233b565b612ec06020830184612186565b9392505050565b7f546f6461792773206368616c6c656e676520616c7265616479206578697374735f82015250565b5f612efb602083612195565b9150612f0682612ec7565b602082019050919050565b5f6020820190508181035f830152612f2881612eef565b9050919050565b5f819050919050565b612f49612f4482611eac565b612f2f565b82525050565b5f8160601b9050919050565b5f612f6582612f4f565b9050919050565b5f612f7682612f5b565b9050919050565b612f8e612f89826120e2565b612f6c565b82525050565b5f612f9f8287612f38565b602082019150612faf8286612f38565b602082019150612fbf8285612f38565b602082019150612fcf8284612f7d565b60148201915081905095945050505050565b5f612feb82611eac565b9150612ff683611eac565b92508261300657613005612544565b5b828206905092915050565b5f61301b82611eac565b915061302683611eac565b925082820190508082111561303e5761303d612571565b5b92915050565b7f4e487b71000000000000000000000000000000000000000000000000000000005f52603260045260245ffd5b5f815461307d81612514565b6130878186612195565b9450600182165f81146130a157600181146130b7576130e9565b60ff1983168652811515602002860193506130e9565b6130c085612a11565b5f5b838110156130e1578154818901526001820191506020810190506130c2565b808801955050505b50505092915050565b5f6040820190508181035f83015261310a8185613071565b90506131196020830184612186565b9392505050565b5f6040820190506131335f83018561233b565b613140602083018461209b565b939250505056fea2646970667358221220998fd70f6d7d9cb8c638390ff424f7ae94ca6a27e856c7d37e00d0a136a7e7f464736f6c634300081e003357686963682066696374696f6e616c20706c61636520776f756c6420796f75206d6f73742077616e7420746f2076697369743f536861726520796f7572206661766f72697465206c6974657261727920667269656e64736869704120626f6f6b2066726f6d20796f7572206368696c64686f6f64207468617420796f75207374696c6c206c6f7665446573637269626520796f7572206661766f7269746520626f6f6b2063686172616374657220616e64207768792074686579207265736f6e617465207769746820796f754120626f6f6b2074686174206368616e67656420796f7572207065727370656374697665206f6e206c696665446573637269626520616e206570696320626174746c652074686174206761766520796f75206368696c6c735265636f6d6d656e6420612068696464656e2067656d20796f7520646973636f766572656420746869732079656172506f737420612071756f74652074686174206c697665732072656e742d6672656520696e20796f7572206865616457686963682063686172616374657220646f20796f752072656c61746520746f206d6f737420616e64207768793f446573637269626520612076696c6c61696e20796f7520636f756c646e27742068656c7020627574206c6f766554656c6c2075732061626f757420796f7572206661766f7269746520626f6f6b20726f6d616e63655368617265207468652062657374206f70656e696e67206c696e6520796f75277665206576657220726561644120626f6f6b207769746820746865206d6f7374206372656174697665206d616769632073797374656d4120626f6f6b20746861742068616420796f75206c61756768696e67206f7574206c6f75644120626f6f6b2074686174206b65707420796f752072656164696e6720756e74696c2073756e7269736553686172652061207363656e65207468617420656d6f74696f6e616c6c792064657374726f79656420796f755768617420626f6f6b2068617320746865206d6f737420756e697175652077726974696e67207374796c653f5265636f6d6d656e6420616e20756e646572726174656420626f6f6b206d6f72652070656f706c652073686f756c6420726561644120626f6f6b20796f7520636f756c646e27742066696e69736820286e6f206a7564676d656e7421295768696368207365726965732068616420746865207065726665637420656e64696e673f4120706f70756c617220626f6f6b20796f75207468696e6b206973206f76657272617465644120626f6f6b20796f752776652072656164206d6f7265207468616e20332074696d657357686174277320796f7572206775696c747920706c65617375726520726561643f5368617265206120626f6f6b20636f766572207468617420796f75207468696e6b2069732062656175746966756c576869636820626f6f6b2061646170746174696f6e206469642074686520626f6f6b206a7573746963653f5368617265206120706c6f7420747769737420746861742063617567687420796f7520636f6d706c6574656c79206f6666206775617264416e20656e64696e672074686174206c65667420796f7520636f6d706c6574656c79207361746973666965644120626f6f6b2074686174206c65667420796f7520756e61626c6520746f207265616420616e797468696e6720656c736520666f72206461797354656c6c2075732061626f757420616e20617574686f722077686f736520776f726b20796f752061646f7265","linkReferences":{}},"methodIdentifiers":{"DEFAULT_ADMIN_ROLE()":"a217fddf","currentChallenge()":"51bdd585","dayGenerated(uint256)":"094e7c7c","generateDailyChallenge()":"e70788aa","getCurrentChallenge()":"202eaa9c","getDailyParticipants(uint256)":"a6525781","getDailySubmission(uint256,address)":"9a49f18f","getRoleAdmin(bytes32)":"248a9ca3","getStoredHash(uint256,address)":"f4ba5bf6","getVerificationStatus(uint256,address)":"9d1de1f9","grantRole(bytes32,address)":"2f2ff15d","hasRole(bytes32,address)":"91d14854","hasSubmittedToday(address)":"46a02367","renounceRole(bytes32,address)":"36568abe","revokeRole(bytes32,address)":"d547741f","squadManagerAddress()":"ec7fee26","submitDailyChallenge(string)":"8ad8c826","supportsInterface(bytes4)":"01ffc9a7","verifyDailySubmission(address)":"d71cbab2"},"id":26}